{
  "_format": "hh-sol-artifact-1",
  "contractName": "QuoterV2",
  "sourceName": "contracts/lens/QuoterV2.sol",
  "abi": [
    {
      "inputs": [
        {
          "internalType": "address",
          "name": "_factory",
          "type": "address"
        },
        {
          "internalType": "address",
          "name": "_WETH9",
          "type": "address"
        }
      ],
      "stateMutability": "nonpayable",
      "type": "constructor"
    },
    {
      "inputs": [],
      "name": "WETH9",
      "outputs": [
        {
          "internalType": "address",
          "name": "",
          "type": "address"
        }
      ],
      "stateMutability": "view",
      "type": "function"
    },
    {
      "inputs": [],
      "name": "factory",
      "outputs": [
        {
          "internalType": "address",
          "name": "",
          "type": "address"
        }
      ],
      "stateMutability": "view",
      "type": "function"
    },
    {
      "inputs": [
        {
          "internalType": "bytes",
          "name": "path",
          "type": "bytes"
        },
        {
          "internalType": "uint256",
          "name": "amountIn",
          "type": "uint256"
        }
      ],
      "name": "quoteExactInput",
      "outputs": [
        {
          "internalType": "uint256",
          "name": "amountOut",
          "type": "uint256"
        },
        {
          "internalType": "uint160[]",
          "name": "sqrtPriceX96AfterList",
          "type": "uint160[]"
        },
        {
          "internalType": "uint32[]",
          "name": "initializedTicksCrossedList",
          "type": "uint32[]"
        },
        {
          "internalType": "uint256",
          "name": "gasEstimate",
          "type": "uint256"
        }
      ],
      "stateMutability": "nonpayable",
      "type": "function"
    },
    {
      "inputs": [
        {
          "components": [
            {
              "internalType": "address",
              "name": "tokenIn",
              "type": "address"
            },
            {
              "internalType": "address",
              "name": "tokenOut",
              "type": "address"
            },
            {
              "internalType": "uint256",
              "name": "amountIn",
              "type": "uint256"
            },
            {
              "internalType": "uint24",
              "name": "fee",
              "type": "uint24"
            },
            {
              "internalType": "uint160",
              "name": "sqrtPriceLimitX96",
              "type": "uint160"
            }
          ],
          "internalType": "struct IQuoterV2.QuoteExactInputSingleParams",
          "name": "params",
          "type": "tuple"
        }
      ],
      "name": "quoteExactInputSingle",
      "outputs": [
        {
          "internalType": "uint256",
          "name": "amountOut",
          "type": "uint256"
        },
        {
          "internalType": "uint160",
          "name": "sqrtPriceX96After",
          "type": "uint160"
        },
        {
          "internalType": "uint32",
          "name": "initializedTicksCrossed",
          "type": "uint32"
        },
        {
          "internalType": "uint256",
          "name": "gasEstimate",
          "type": "uint256"
        }
      ],
      "stateMutability": "nonpayable",
      "type": "function"
    },
    {
      "inputs": [
        {
          "internalType": "bytes",
          "name": "path",
          "type": "bytes"
        },
        {
          "internalType": "uint256",
          "name": "amountOut",
          "type": "uint256"
        }
      ],
      "name": "quoteExactOutput",
      "outputs": [
        {
          "internalType": "uint256",
          "name": "amountIn",
          "type": "uint256"
        },
        {
          "internalType": "uint160[]",
          "name": "sqrtPriceX96AfterList",
          "type": "uint160[]"
        },
        {
          "internalType": "uint32[]",
          "name": "initializedTicksCrossedList",
          "type": "uint32[]"
        },
        {
          "internalType": "uint256",
          "name": "gasEstimate",
          "type": "uint256"
        }
      ],
      "stateMutability": "nonpayable",
      "type": "function"
    },
    {
      "inputs": [
        {
          "components": [
            {
              "internalType": "address",
              "name": "tokenIn",
              "type": "address"
            },
            {
              "internalType": "address",
              "name": "tokenOut",
              "type": "address"
            },
            {
              "internalType": "uint256",
              "name": "amount",
              "type": "uint256"
            },
            {
              "internalType": "uint24",
              "name": "fee",
              "type": "uint24"
            },
            {
              "internalType": "uint160",
              "name": "sqrtPriceLimitX96",
              "type": "uint160"
            }
          ],
          "internalType": "struct IQuoterV2.QuoteExactOutputSingleParams",
          "name": "params",
          "type": "tuple"
        }
      ],
      "name": "quoteExactOutputSingle",
      "outputs": [
        {
          "internalType": "uint256",
          "name": "amountIn",
          "type": "uint256"
        },
        {
          "internalType": "uint160",
          "name": "sqrtPriceX96After",
          "type": "uint160"
        },
        {
          "internalType": "uint32",
          "name": "initializedTicksCrossed",
          "type": "uint32"
        },
        {
          "internalType": "uint256",
          "name": "gasEstimate",
          "type": "uint256"
        }
      ],
      "stateMutability": "nonpayable",
      "type": "function"
    },
    {
      "inputs": [
        {
          "internalType": "int256",
          "name": "amount0Delta",
          "type": "int256"
        },
        {
          "internalType": "int256",
          "name": "amount1Delta",
          "type": "int256"
        },
        {
          "internalType": "bytes",
          "name": "path",
          "type": "bytes"
        }
      ],
      "name": "uniswapV3SwapCallback",
      "outputs": [],
      "stateMutability": "view",
      "type": "function"
    }
  ],
  "bytecode": "0x60c06040523480156200001157600080fd5b5060405162001ba538038062001ba5833981016040819052620000349162000070565b6001600160601b0319606092831b8116608052911b1660a052620000a7565b80516001600160a01b03811681146200006b57600080fd5b919050565b6000806040838503121562000083578182fd5b6200008e8362000053565b91506200009e6020840162000053565b90509250929050565b60805160601c60a05160601c611aca620000db600039806102ce5250806104c5528061082352806109db5250611aca6000f3fe608060405234801561001057600080fd5b506004361061006d5760003560e01c80632f80bb1d146100725780634aa4a4fc1461009e578063bd21704a146100b3578063c45a0155146100d6578063c6a5026a146100de578063cdca1753146100f1578063fa461e3314610104575b600080fd5b610085610080366004611662565b610119565b604051610095949392919061196c565b60405180910390f35b6100a66102cc565b60405161009591906118d5565b6100c66100c136600461177d565b6102f0565b6040516100959493929190611a07565b6100a66104c3565b6100c66100ec36600461177d565b6104e7565b6100856100ff366004611662565b61065d565b6101176101123660046116c7565b6107f2565b005b600060608060006101298661096d565b6001600160401b038111801561013e57600080fd5b50604051908082528060200260200182016040528015610168578160200160208202803683370190505b5092506101748661096d565b6001600160401b038111801561018957600080fd5b506040519080825280602002602001820160405280156101b3578160200160208202803683370190505b50915060005b60008060006101c78a61097e565b9250925092506000806000806102236040518060a00160405280886001600160a01b03168152602001896001600160a01b031681526020018f81526020018762ffffff16815260200160006001600160a01b03168152506102f0565b9350935093509350828b898151811061023857fe5b60200260200101906001600160a01b031690816001600160a01b031681525050818a898151811061026557fe5b63ffffffff90921660209283029190910190910152929b50968201966001909601958b926102928e6109af565b156102a7576102a08e6109b7565b9d506102b7565b8c9b5050505050505050506102c3565b505050505050506101b9565b92959194509250565b7f000000000000000000000000000000000000000000000000000000000000000081565b6020810151815160608301516000928392839283926001600160a01b038082169084161092849261032192906109d4565b905086608001516001600160a01b0316600014156103425760408701516000555b60005a9050816001600160a01b031663128acb0830856103658c60400151610a12565b6000038c608001516001600160a01b0316600014610387578c608001516103ad565b876103a65773fffd8963efd1fc6a506488495d951d5263988d256103ad565b6401000276a45b8d602001518e606001518f600001516040516020016103ce9392919061189f565b6040516020818303038152906040526040518663ffffffff1660e01b81526004016103fd9594939291906118e9565b6040805180830381600087803b15801561041657600080fd5b505af1925050508015610446575060408051601f3d908101601f19168201909252610443918101906116a4565b60015b6104b6573d808015610474576040519150601f19603f3d011682016040523d82523d6000602084013e610479565b606091505b505a8203945088608001516001600160a01b03166000141561049a57600080555b6104a5818487610a28565b9750975097509750505050506104bc565b50505050505b9193509193565b7f000000000000000000000000000000000000000000000000000000000000000081565b6020810151815160608301516000928392839283926001600160a01b038082169084161092849261051892906109d4565b905060005a9050816001600160a01b031663128acb08308561053d8c60400151610a12565b60808d01516001600160a01b03161561055a578c60800151610580565b876105795773fffd8963efd1fc6a506488495d951d5263988d25610580565b6401000276a45b8d600001518e606001518f602001516040516020016105a19392919061189f565b6040516020818303038152906040526040518663ffffffff1660e01b81526004016105d09594939291906118e9565b6040805180830381600087803b1580156105e957600080fd5b505af1925050508015610619575060408051601f3d908101601f19168201909252610616918101906116a4565b60015b6104b6573d808015610647576040519150601f19603f3d011682016040523d82523d6000602084013e61064c565b606091505b505a820394506104a5818487610a28565b6000606080600061066d8661096d565b6001600160401b038111801561068257600080fd5b506040519080825280602002602001820160405280156106ac578160200160208202803683370190505b5092506106b88661096d565b6001600160401b03811180156106cd57600080fd5b506040519080825280602002602001820160405280156106f7578160200160208202803683370190505b50915060005b600080600061070b8a61097e565b9250925092506000806000806107676040518060a00160405280896001600160a01b03168152602001886001600160a01b031681526020018f81526020018762ffffff16815260200160006001600160a01b03168152506104e7565b9350935093509350828b898151811061077c57fe5b60200260200101906001600160a01b031690816001600160a01b031681525050818a89815181106107a957fe5b63ffffffff90921660209283029190910190910152929b50968201966001909601958b926107d68e6109af565b156102a7576107e48e6109b7565b9d50505050505050506106fd565b60008313806108015750600082135b61080a57600080fd5b60008060006108188461097e565b92509250925061084a7f0000000000000000000000000000000000000000000000000000000000000000848484610ae2565b50600080600080891361087657856001600160a01b0316856001600160a01b031610888a600003610891565b846001600160a01b0316866001600160a01b03161089896000035b92509250925060006108a48787876109d4565b9050600080826001600160a01b0316633850c7bd6040518163ffffffff1660e01b815260040160e06040518083038186803b1580156108e257600080fd5b505afa1580156108f6573d6000803e3d6000fd5b505050506040513d601f19601f8201168201806040525081019061091a919061179f565b505050505091509150851561094057604051848152826020820152816040820152606081fd5b6000541561095657600054841461095657600080fd5b604051858152826020820152816040820152606081fd5b80516017601319909101045b919050565b6000808061098c8482610b01565b9250610999846014610bb1565b90506109a6846017610b01565b91509193909250565b516042111590565b80516060906109ce90839060179060161901610c58565b92915050565b6000610a0a7f0000000000000000000000000000000000000000000000000000000000000000610a05868686610da9565b610dff565b949350505050565b6000600160ff1b8210610a2457600080fd5b5090565b600080600080600080876001600160a01b0316633850c7bd6040518163ffffffff1660e01b815260040160e06040518083038186803b158015610a6a57600080fd5b505afa158015610a7e573d6000803e3d6000fd5b505050506040513d601f19601f82011682018060405250810190610aa2919061179f565b50939650610ab794508d9350610ede92505050565b91975095509050610ad26001600160a01b0389168383610f6b565b9350869250505093509350935093565b6000610af885610af3868686610da9565b6114f4565b95945050505050565b600081826014011015610b50576040805162461bcd60e51b8152602060048201526012602482015271746f416464726573735f6f766572666c6f7760701b604482015290519081900360640190fd5b8160140183511015610ba1576040805162461bcd60e51b8152602060048201526015602482015274746f416464726573735f6f75744f66426f756e647360581b604482015290519081900360640190fd5b500160200151600160601b900490565b600081826003011015610bff576040805162461bcd60e51b8152602060048201526011602482015270746f55696e7432345f6f766572666c6f7760781b604482015290519081900360640190fd5b8160030183511015610c4f576040805162461bcd60e51b8152602060048201526014602482015273746f55696e7432345f6f75744f66426f756e647360601b604482015290519081900360640190fd5b50016003015190565b60608182601f011015610ca3576040805162461bcd60e51b815260206004820152600e60248201526d736c6963655f6f766572666c6f7760901b604482015290519081900360640190fd5b828284011015610ceb576040805162461bcd60e51b815260206004820152600e60248201526d736c6963655f6f766572666c6f7760901b604482015290519081900360640190fd5b81830184511015610d37576040805162461bcd60e51b8152602060048201526011602482015270736c6963655f6f75744f66426f756e647360781b604482015290519081900360640190fd5b606082158015610d565760405191506000825260208201604052610da0565b6040519150601f8416801560200281840101858101878315602002848b0101015b81831015610d8f578051835260209283019201610d77565b5050858452601f01601f1916604052505b50949350505050565b610db1611532565b826001600160a01b0316846001600160a01b03161115610dcf579192915b50604080516060810182526001600160a01b03948516815292909316602083015262ffffff169181019190915290565b600081602001516001600160a01b031682600001516001600160a01b031610610e2757600080fd5b50805160208083015160409384015184516001600160a01b0394851681850152939091168385015262ffffff166060808401919091528351808403820181526080840185528051908301206001600160f81b031960a085015294901b6001600160601b03191660a183015260b58201939093527fd64aeb510b6f5a07f0728155913a1372ab2303cf3f169a4a79b7d9ece4774ae460d5808301919091528251808303909101815260f5909101909152805191012090565b60008060008351606014610f4a57604484511015610f175760405162461bcd60e51b8152600401610f0e90611942565b60405180910390fd5b60048401935083806020019051810190610f319190611714565b60405162461bcd60e51b8152600401610f0e919061192f565b83806020019051810190610f5e9190611836565b9250925092509193909250565b60008060008060008060008060088b6001600160a01b031663d0c93a7c6040518163ffffffff1660e01b815260040160206040518083038186803b158015610fb257600080fd5b505afa158015610fc6573d6000803e3d6000fd5b505050506040513d6020811015610fdc57600080fd5b5051600290810b908c900b81610fee57fe5b0560020b901d905060006101008c6001600160a01b031663d0c93a7c6040518163ffffffff1660e01b815260040160206040518083038186803b15801561103457600080fd5b505afa158015611048573d6000803e3d6000fd5b505050506040513d602081101561105e57600080fd5b5051600290810b908d900b8161107057fe5b0560020b8161107b57fe5b079050600060088d6001600160a01b031663d0c93a7c6040518163ffffffff1660e01b815260040160206040518083038186803b1580156110bb57600080fd5b505afa1580156110cf573d6000803e3d6000fd5b505050506040513d60208110156110e557600080fd5b5051600290810b908d900b816110f757fe5b0560020b901d905060006101008e6001600160a01b031663d0c93a7c6040518163ffffffff1660e01b815260040160206040518083038186803b15801561113d57600080fd5b505afa158015611151573d6000803e3d6000fd5b505050506040513d602081101561116757600080fd5b5051600290810b908e900b8161117957fe5b0560020b8161118457fe5b07905060008160ff166001901b8f6001600160a01b0316635339c296856040518263ffffffff1660e01b8152600401808260010b815260200191505060206040518083038186803b1580156111d857600080fd5b505afa1580156111ec573d6000803e3d6000fd5b505050506040513d602081101561120257600080fd5b50511611801561128857508d6001600160a01b031663d0c93a7c6040518163ffffffff1660e01b815260040160206040518083038186803b15801561124657600080fd5b505afa15801561125a573d6000803e3d6000fd5b505050506040513d602081101561127057600080fd5b5051600290810b908d900b8161128257fe5b0760020b155b801561129957508b60020b8d60020b135b945060008360ff166001901b8f6001600160a01b0316635339c296876040518263ffffffff1660e01b8152600401808260010b815260200191505060206040518083038186803b1580156112ec57600080fd5b505afa158015611300573d6000803e3d6000fd5b505050506040513d602081101561131657600080fd5b50511611801561139c57508d6001600160a01b031663d0c93a7c6040518163ffffffff1660e01b815260040160206040518083038186803b15801561135a57600080fd5b505afa15801561136e573d6000803e3d6000fd5b505050506040513d602081101561138457600080fd5b5051600290810b908e900b8161139657fe5b0760020b155b80156113ad57508b60020b8d60020b125b95508160010b8460010b12806113d957508160010b8460010b1480156113d957508060ff168360ff1611155b156113ef578399508297508198508096506113fc565b8199508097508398508296505b505060001960ff87161b9150505b8560010b8760010b136114cc578560010b8760010b14156114315760001960ff858103161c165b6000818c6001600160a01b0316635339c2968a6040518263ffffffff1660e01b8152600401808260010b815260200191505060206040518083038186803b15801561147b57600080fd5b505afa15801561148f573d6000803e3d6000fd5b505050506040513d60208110156114a557600080fd5b50511690506114b381611517565b61ffff169890980197505060019095019460001961140a565b81156114d9576001880397505b82156114e6576001880397505b505050505050509392505050565b60006115008383610dff565b9050336001600160a01b038216146109ce57600080fd5b6000805b82156109ce5760001983019092169160010161151b565b604080516060810182526000808252602082018190529181019190915290565b600082601f830112611562578081fd5b813561157561157082611a54565b611a31565b818152846020838601011115611589578283fd5b816020850160208301379081016020019190915292915050565b8051600281900b811461097957600080fd5b600060a082840312156115c6578081fd5b60405160a081016001600160401b03811182821017156115e257fe5b60405290508082356115f381611aa5565b8152602083013561160381611aa5565b602082015260408381013590820152606083013562ffffff8116811461162857600080fd5b606082015261163960808401611645565b60808201525092915050565b803561097981611aa5565b805161ffff8116811461097957600080fd5b60008060408385031215611674578182fd5b82356001600160401b03811115611689578283fd5b61169585828601611552565b95602094909401359450505050565b600080604083850312156116b6578182fd5b505080516020909101519092909150565b6000806000606084860312156116db578081fd5b833592506020840135915060408401356001600160401b038111156116fe578182fd5b61170a86828701611552565b9150509250925092565b600060208284031215611725578081fd5b81516001600160401b0381111561173a578182fd5b8201601f8101841361174a578182fd5b805161175861157082611a54565b81815285602083850101111561176c578384fd5b610af8826020830160208601611a75565b600060a0828403121561178e578081fd5b61179883836115b5565b9392505050565b600080600080600080600060e0888a0312156117b9578283fd5b87516117c481611aa5565b96506117d2602089016115a3565b95506117e060408901611650565b94506117ee60608901611650565b93506117fc60808901611650565b925060a088015160ff81168114611811578283fd5b60c08901519092508015158114611826578182fd5b8091505092959891949750929550565b60008060006060848603121561184a578081fd5b83519250602084015161185c81611aa5565b915061186a604085016115a3565b90509250925092565b6000815180845261188b816020860160208601611a75565b601f01601f19169290920160200192915050565b606093841b6001600160601b0319908116825260e89390931b6001600160e81b0319166014820152921b166017820152602b0190565b6001600160a01b0391909116815260200190565b6001600160a01b0386811682528515156020830152604082018590528316606082015260a06080820181905260009061192490830184611873565b979650505050505050565b6000602082526117986020830184611873565b60208082526010908201526f2ab732bc3832b1ba32b21032b93937b960811b604082015260600190565b600060808201868352602060808185015281875180845260a0860191508289019350845b818110156119b55784516001600160a01b031683529383019391830191600101611990565b505084810360408601528651808252908201925081870190845b818110156119f157825163ffffffff16855293830193918301916001016119cf565b5050505060609290920192909252949350505050565b9384526001600160a01b0392909216602084015263ffffffff166040830152606082015260800190565b6040518181016001600160401b0381118282101715611a4c57fe5b604052919050565b60006001600160401b03821115611a6757fe5b50601f01601f191660200190565b60005b83811015611a90578181015183820152602001611a78565b83811115611a9f576000848401525b50505050565b6001600160a01b0381168114611aba57600080fd5b5056fea164736f6c6343000706000a",
  "linkReferences": {},
  "deployedLinkReferences": {}
}