{
  "_format": "hh-sol-artifact-1",
  "contractName": "UniswapV3Pool",
  "sourceName": "@uniswap/v3-core-optimism/contracts/UniswapV3Pool.sol",
  "abi": [
    {
      "inputs": [],
      "stateMutability": "nonpayable",
      "type": "constructor"
    },
    {
      "anonymous": false,
      "inputs": [
        {
          "indexed": true,
          "internalType": "address",
          "name": "owner",
          "type": "address"
        },
        {
          "indexed": true,
          "internalType": "int24",
          "name": "tickLower",
          "type": "int24"
        },
        {
          "indexed": true,
          "internalType": "int24",
          "name": "tickUpper",
          "type": "int24"
        },
        {
          "indexed": false,
          "internalType": "uint128",
          "name": "amount",
          "type": "uint128"
        },
        {
          "indexed": false,
          "internalType": "uint256",
          "name": "amount0",
          "type": "uint256"
        },
        {
          "indexed": false,
          "internalType": "uint256",
          "name": "amount1",
          "type": "uint256"
        }
      ],
      "name": "Burn",
      "type": "event"
    },
    {
      "anonymous": false,
      "inputs": [
        {
          "indexed": true,
          "internalType": "address",
          "name": "owner",
          "type": "address"
        },
        {
          "indexed": false,
          "internalType": "address",
          "name": "recipient",
          "type": "address"
        },
        {
          "indexed": true,
          "internalType": "int24",
          "name": "tickLower",
          "type": "int24"
        },
        {
          "indexed": true,
          "internalType": "int24",
          "name": "tickUpper",
          "type": "int24"
        },
        {
          "indexed": false,
          "internalType": "uint128",
          "name": "amount0",
          "type": "uint128"
        },
        {
          "indexed": false,
          "internalType": "uint128",
          "name": "amount1",
          "type": "uint128"
        }
      ],
      "name": "Collect",
      "type": "event"
    },
    {
      "anonymous": false,
      "inputs": [
        {
          "indexed": true,
          "internalType": "address",
          "name": "sender",
          "type": "address"
        },
        {
          "indexed": true,
          "internalType": "address",
          "name": "recipient",
          "type": "address"
        },
        {
          "indexed": false,
          "internalType": "uint128",
          "name": "amount0",
          "type": "uint128"
        },
        {
          "indexed": false,
          "internalType": "uint128",
          "name": "amount1",
          "type": "uint128"
        }
      ],
      "name": "CollectProtocol",
      "type": "event"
    },
    {
      "anonymous": false,
      "inputs": [
        {
          "indexed": true,
          "internalType": "address",
          "name": "sender",
          "type": "address"
        },
        {
          "indexed": true,
          "internalType": "address",
          "name": "recipient",
          "type": "address"
        },
        {
          "indexed": false,
          "internalType": "uint256",
          "name": "amount0",
          "type": "uint256"
        },
        {
          "indexed": false,
          "internalType": "uint256",
          "name": "amount1",
          "type": "uint256"
        },
        {
          "indexed": false,
          "internalType": "uint256",
          "name": "paid0",
          "type": "uint256"
        },
        {
          "indexed": false,
          "internalType": "uint256",
          "name": "paid1",
          "type": "uint256"
        }
      ],
      "name": "Flash",
      "type": "event"
    },
    {
      "anonymous": false,
      "inputs": [
        {
          "indexed": false,
          "internalType": "uint16",
          "name": "observationCardinalityNextOld",
          "type": "uint16"
        },
        {
          "indexed": false,
          "internalType": "uint16",
          "name": "observationCardinalityNextNew",
          "type": "uint16"
        }
      ],
      "name": "IncreaseObservationCardinalityNext",
      "type": "event"
    },
    {
      "anonymous": false,
      "inputs": [
        {
          "indexed": false,
          "internalType": "uint160",
          "name": "sqrtPriceX96",
          "type": "uint160"
        },
        {
          "indexed": false,
          "internalType": "int24",
          "name": "tick",
          "type": "int24"
        }
      ],
      "name": "Initialize",
      "type": "event"
    },
    {
      "anonymous": false,
      "inputs": [
        {
          "indexed": false,
          "internalType": "address",
          "name": "sender",
          "type": "address"
        },
        {
          "indexed": true,
          "internalType": "address",
          "name": "owner",
          "type": "address"
        },
        {
          "indexed": true,
          "internalType": "int24",
          "name": "tickLower",
          "type": "int24"
        },
        {
          "indexed": true,
          "internalType": "int24",
          "name": "tickUpper",
          "type": "int24"
        },
        {
          "indexed": false,
          "internalType": "uint128",
          "name": "amount",
          "type": "uint128"
        },
        {
          "indexed": false,
          "internalType": "uint256",
          "name": "amount0",
          "type": "uint256"
        },
        {
          "indexed": false,
          "internalType": "uint256",
          "name": "amount1",
          "type": "uint256"
        }
      ],
      "name": "Mint",
      "type": "event"
    },
    {
      "anonymous": false,
      "inputs": [
        {
          "indexed": false,
          "internalType": "uint8",
          "name": "feeProtocol0Old",
          "type": "uint8"
        },
        {
          "indexed": false,
          "internalType": "uint8",
          "name": "feeProtocol1Old",
          "type": "uint8"
        },
        {
          "indexed": false,
          "internalType": "uint8",
          "name": "feeProtocol0New",
          "type": "uint8"
        },
        {
          "indexed": false,
          "internalType": "uint8",
          "name": "feeProtocol1New",
          "type": "uint8"
        }
      ],
      "name": "SetFeeProtocol",
      "type": "event"
    },
    {
      "anonymous": false,
      "inputs": [
        {
          "indexed": true,
          "internalType": "address",
          "name": "sender",
          "type": "address"
        },
        {
          "indexed": true,
          "internalType": "address",
          "name": "recipient",
          "type": "address"
        },
        {
          "indexed": false,
          "internalType": "int256",
          "name": "amount0",
          "type": "int256"
        },
        {
          "indexed": false,
          "internalType": "int256",
          "name": "amount1",
          "type": "int256"
        },
        {
          "indexed": false,
          "internalType": "uint160",
          "name": "sqrtPriceX96",
          "type": "uint160"
        },
        {
          "indexed": false,
          "internalType": "uint128",
          "name": "liquidity",
          "type": "uint128"
        },
        {
          "indexed": false,
          "internalType": "int24",
          "name": "tick",
          "type": "int24"
        }
      ],
      "name": "Swap",
      "type": "event"
    },
    {
      "inputs": [
        {
          "internalType": "int24",
          "name": "tickLower",
          "type": "int24"
        },
        {
          "internalType": "int24",
          "name": "tickUpper",
          "type": "int24"
        },
        {
          "internalType": "uint128",
          "name": "amount",
          "type": "uint128"
        }
      ],
      "name": "burn",
      "outputs": [
        {
          "internalType": "uint256",
          "name": "amount0",
          "type": "uint256"
        },
        {
          "internalType": "uint256",
          "name": "amount1",
          "type": "uint256"
        }
      ],
      "stateMutability": "nonpayable",
      "type": "function"
    },
    {
      "inputs": [
        {
          "internalType": "address",
          "name": "recipient",
          "type": "address"
        },
        {
          "internalType": "int24",
          "name": "tickLower",
          "type": "int24"
        },
        {
          "internalType": "int24",
          "name": "tickUpper",
          "type": "int24"
        },
        {
          "internalType": "uint128",
          "name": "amount0Requested",
          "type": "uint128"
        },
        {
          "internalType": "uint128",
          "name": "amount1Requested",
          "type": "uint128"
        }
      ],
      "name": "collect",
      "outputs": [
        {
          "internalType": "uint128",
          "name": "amount0",
          "type": "uint128"
        },
        {
          "internalType": "uint128",
          "name": "amount1",
          "type": "uint128"
        }
      ],
      "stateMutability": "nonpayable",
      "type": "function"
    },
    {
      "inputs": [
        {
          "internalType": "address",
          "name": "recipient",
          "type": "address"
        },
        {
          "internalType": "uint128",
          "name": "amount0Requested",
          "type": "uint128"
        },
        {
          "internalType": "uint128",
          "name": "amount1Requested",
          "type": "uint128"
        }
      ],
      "name": "collectProtocol",
      "outputs": [
        {
          "internalType": "uint128",
          "name": "amount0",
          "type": "uint128"
        },
        {
          "internalType": "uint128",
          "name": "amount1",
          "type": "uint128"
        }
      ],
      "stateMutability": "nonpayable",
      "type": "function"
    },
    {
      "inputs": [],
      "name": "factory",
      "outputs": [
        {
          "internalType": "address",
          "name": "",
          "type": "address"
        }
      ],
      "stateMutability": "view",
      "type": "function"
    },
    {
      "inputs": [],
      "name": "fee",
      "outputs": [
        {
          "internalType": "uint24",
          "name": "",
          "type": "uint24"
        }
      ],
      "stateMutability": "view",
      "type": "function"
    },
    {
      "inputs": [],
      "name": "feeGrowthGlobal0X128",
      "outputs": [
        {
          "internalType": "uint256",
          "name": "",
          "type": "uint256"
        }
      ],
      "stateMutability": "view",
      "type": "function"
    },
    {
      "inputs": [],
      "name": "feeGrowthGlobal1X128",
      "outputs": [
        {
          "internalType": "uint256",
          "name": "",
          "type": "uint256"
        }
      ],
      "stateMutability": "view",
      "type": "function"
    },
    {
      "inputs": [
        {
          "internalType": "address",
          "name": "recipient",
          "type": "address"
        },
        {
          "internalType": "uint256",
          "name": "amount0",
          "type": "uint256"
        },
        {
          "internalType": "uint256",
          "name": "amount1",
          "type": "uint256"
        },
        {
          "internalType": "bytes",
          "name": "data",
          "type": "bytes"
        }
      ],
      "name": "flash",
      "outputs": [],
      "stateMutability": "nonpayable",
      "type": "function"
    },
    {
      "inputs": [
        {
          "internalType": "uint16",
          "name": "observationCardinalityNext",
          "type": "uint16"
        }
      ],
      "name": "increaseObservationCardinalityNext",
      "outputs": [],
      "stateMutability": "nonpayable",
      "type": "function"
    },
    {
      "inputs": [
        {
          "internalType": "uint160",
          "name": "sqrtPriceX96",
          "type": "uint160"
        }
      ],
      "name": "initialize",
      "outputs": [],
      "stateMutability": "nonpayable",
      "type": "function"
    },
    {
      "inputs": [],
      "name": "liquidity",
      "outputs": [
        {
          "internalType": "uint128",
          "name": "",
          "type": "uint128"
        }
      ],
      "stateMutability": "view",
      "type": "function"
    },
    {
      "inputs": [],
      "name": "maxLiquidityPerTick",
      "outputs": [
        {
          "internalType": "uint128",
          "name": "",
          "type": "uint128"
        }
      ],
      "stateMutability": "view",
      "type": "function"
    },
    {
      "inputs": [
        {
          "internalType": "address",
          "name": "recipient",
          "type": "address"
        },
        {
          "internalType": "int24",
          "name": "tickLower",
          "type": "int24"
        },
        {
          "internalType": "int24",
          "name": "tickUpper",
          "type": "int24"
        },
        {
          "internalType": "uint128",
          "name": "amount",
          "type": "uint128"
        },
        {
          "internalType": "bytes",
          "name": "data",
          "type": "bytes"
        }
      ],
      "name": "mint",
      "outputs": [
        {
          "internalType": "uint256",
          "name": "amount0",
          "type": "uint256"
        },
        {
          "internalType": "uint256",
          "name": "amount1",
          "type": "uint256"
        }
      ],
      "stateMutability": "nonpayable",
      "type": "function"
    },
    {
      "inputs": [
        {
          "internalType": "uint256",
          "name": "",
          "type": "uint256"
        }
      ],
      "name": "observations",
      "outputs": [
        {
          "internalType": "uint32",
          "name": "blockTimestamp",
          "type": "uint32"
        },
        {
          "internalType": "int56",
          "name": "tickCumulative",
          "type": "int56"
        },
        {
          "internalType": "uint160",
          "name": "secondsPerLiquidityCumulativeX128",
          "type": "uint160"
        },
        {
          "internalType": "bool",
          "name": "initialized",
          "type": "bool"
        }
      ],
      "stateMutability": "view",
      "type": "function"
    },
    {
      "inputs": [
        {
          "internalType": "uint32[]",
          "name": "secondsAgos",
          "type": "uint32[]"
        }
      ],
      "name": "observe",
      "outputs": [
        {
          "internalType": "int56[]",
          "name": "tickCumulatives",
          "type": "int56[]"
        },
        {
          "internalType": "uint160[]",
          "name": "secondsPerLiquidityCumulativeX128s",
          "type": "uint160[]"
        }
      ],
      "stateMutability": "view",
      "type": "function"
    },
    {
      "inputs": [
        {
          "internalType": "bytes32",
          "name": "",
          "type": "bytes32"
        }
      ],
      "name": "positions",
      "outputs": [
        {
          "internalType": "uint128",
          "name": "liquidity",
          "type": "uint128"
        },
        {
          "internalType": "uint256",
          "name": "feeGrowthInside0LastX128",
          "type": "uint256"
        },
        {
          "internalType": "uint256",
          "name": "feeGrowthInside1LastX128",
          "type": "uint256"
        },
        {
          "internalType": "uint128",
          "name": "tokensOwed0",
          "type": "uint128"
        },
        {
          "internalType": "uint128",
          "name": "tokensOwed1",
          "type": "uint128"
        }
      ],
      "stateMutability": "view",
      "type": "function"
    },
    {
      "inputs": [],
      "name": "protocolFees",
      "outputs": [
        {
          "internalType": "uint128",
          "name": "token0",
          "type": "uint128"
        },
        {
          "internalType": "uint128",
          "name": "token1",
          "type": "uint128"
        }
      ],
      "stateMutability": "view",
      "type": "function"
    },
    {
      "inputs": [
        {
          "internalType": "uint8",
          "name": "feeProtocol0",
          "type": "uint8"
        },
        {
          "internalType": "uint8",
          "name": "feeProtocol1",
          "type": "uint8"
        }
      ],
      "name": "setFeeProtocol",
      "outputs": [],
      "stateMutability": "nonpayable",
      "type": "function"
    },
    {
      "inputs": [],
      "name": "slot0",
      "outputs": [
        {
          "internalType": "uint160",
          "name": "sqrtPriceX96",
          "type": "uint160"
        },
        {
          "internalType": "int24",
          "name": "tick",
          "type": "int24"
        },
        {
          "internalType": "uint16",
          "name": "observationIndex",
          "type": "uint16"
        },
        {
          "internalType": "uint16",
          "name": "observationCardinality",
          "type": "uint16"
        },
        {
          "internalType": "uint16",
          "name": "observationCardinalityNext",
          "type": "uint16"
        },
        {
          "internalType": "uint8",
          "name": "feeProtocol",
          "type": "uint8"
        },
        {
          "internalType": "bool",
          "name": "unlocked",
          "type": "bool"
        }
      ],
      "stateMutability": "view",
      "type": "function"
    },
    {
      "inputs": [
        {
          "internalType": "int24",
          "name": "tickLower",
          "type": "int24"
        },
        {
          "internalType": "int24",
          "name": "tickUpper",
          "type": "int24"
        }
      ],
      "name": "snapshotCumulativesInside",
      "outputs": [
        {
          "internalType": "int56",
          "name": "tickCumulativeInside",
          "type": "int56"
        },
        {
          "internalType": "uint160",
          "name": "secondsPerLiquidityInsideX128",
          "type": "uint160"
        },
        {
          "internalType": "uint32",
          "name": "secondsInside",
          "type": "uint32"
        }
      ],
      "stateMutability": "view",
      "type": "function"
    },
    {
      "inputs": [
        {
          "internalType": "address",
          "name": "recipient",
          "type": "address"
        },
        {
          "internalType": "bool",
          "name": "zeroForOne",
          "type": "bool"
        },
        {
          "internalType": "int256",
          "name": "amountSpecified",
          "type": "int256"
        },
        {
          "internalType": "uint160",
          "name": "sqrtPriceLimitX96",
          "type": "uint160"
        },
        {
          "internalType": "bytes",
          "name": "data",
          "type": "bytes"
        }
      ],
      "name": "swap",
      "outputs": [
        {
          "internalType": "int256",
          "name": "amount0",
          "type": "int256"
        },
        {
          "internalType": "int256",
          "name": "amount1",
          "type": "int256"
        }
      ],
      "stateMutability": "nonpayable",
      "type": "function"
    },
    {
      "inputs": [
        {
          "internalType": "int16",
          "name": "",
          "type": "int16"
        }
      ],
      "name": "tickBitmap",
      "outputs": [
        {
          "internalType": "uint256",
          "name": "",
          "type": "uint256"
        }
      ],
      "stateMutability": "view",
      "type": "function"
    },
    {
      "inputs": [],
      "name": "tickSpacing",
      "outputs": [
        {
          "internalType": "int24",
          "name": "",
          "type": "int24"
        }
      ],
      "stateMutability": "view",
      "type": "function"
    },
    {
      "inputs": [
        {
          "internalType": "int24",
          "name": "",
          "type": "int24"
        }
      ],
      "name": "ticks",
      "outputs": [
        {
          "internalType": "uint128",
          "name": "liquidityGross",
          "type": "uint128"
        },
        {
          "internalType": "int128",
          "name": "liquidityNet",
          "type": "int128"
        },
        {
          "internalType": "uint256",
          "name": "feeGrowthOutside0X128",
          "type": "uint256"
        },
        {
          "internalType": "uint256",
          "name": "feeGrowthOutside1X128",
          "type": "uint256"
        },
        {
          "internalType": "int56",
          "name": "tickCumulativeOutside",
          "type": "int56"
        },
        {
          "internalType": "uint160",
          "name": "secondsPerLiquidityOutsideX128",
          "type": "uint160"
        },
        {
          "internalType": "uint32",
          "name": "secondsOutside",
          "type": "uint32"
        },
        {
          "internalType": "bool",
          "name": "initialized",
          "type": "bool"
        }
      ],
      "stateMutability": "view",
      "type": "function"
    },
    {
      "inputs": [],
      "name": "token0",
      "outputs": [
        {
          "internalType": "address",
          "name": "",
          "type": "address"
        }
      ],
      "stateMutability": "view",
      "type": "function"
    },
    {
      "inputs": [],
      "name": "token1",
      "outputs": [
        {
          "internalType": "address",
          "name": "",
          "type": "address"
        }
      ],
      "stateMutability": "view",
      "type": "function"
    }
  ],
  "bytecode": "0x6101606040523480156200001257600080fd5b503060601b60805260408051630890357360e41b81529051600091339163890357309160048082019260a092909190829003018186803b1580156200005657600080fd5b505afa1580156200006b573d6000803e3d6000fd5b505050506040513d60a08110156200008257600080fd5b508051602080830151604084015160608086015160809096015160e896871b6001600160e81b0319166101005291811b6001600160601b031990811660e05292811b831660c0529390931b1660a052600282810b900b90921b610120529150620000f79082906200010f811b62002af517901c565b60801b6001600160801b03191661014052506200017d565b60008082600281900b620d89e719816200012557fe5b05029050600083600281900b620d89e8816200013d57fe5b0502905060008460020b83830360020b816200015557fe5b0560010190508062ffffff166001600160801b038016816200017357fe5b0495945050505050565b60805160601c60a05160601c60c05160601c60e05160601c6101005160e81c6101205160e81c6101405160801c613ebf6200024060003980611ec5528061394d5250806127e55280612bd95280613a525280613a84525080610b625280611944528061197b528061282d5250806112a052806119fe5280611dd852806121335280612809528061315052508061085a52806113a052806119cd5280611d7252806120ad52806131105250806127c152806135e1525080612b6c5250613ebf6000f3fe608060405234801561001057600080fd5b506004361061013e5760003560e01c80630dfe168114610143578063128acb08146101675780631a686502146102145780631ad8b03b14610238578063252c09d71461026f57806332148f67146102c65780633850c7bd146102e95780633c8a7d8d1461034257806346141319146103e2578063490e6cbc146103fc5780634f1eb3d814610486578063514ea4bf146104d75780635339c2961461053057806370cf754a146105505780638206a4d11461055857806385b6672914610580578063883bdbfd146105bd578063a34123a7146106c4578063a38807f2146106fe578063c45a015514610759578063d0c93a7c14610761578063d21220a714610780578063ddca3f4314610788578063f3058399146107a8578063f30dba93146107b0578063f637731d14610832575b600080fd5b61014b610858565b604080516001600160a01b039092168252519081900360200190f35b6101fb600480360360a081101561017d57600080fd5b6001600160a01b0382358116926020810135151592604082013592606083013516919081019060a081016080820135600160201b8111156101bd57600080fd5b8201836020820111156101cf57600080fd5b803590602001918460018302840111600160201b831117156101f057600080fd5b50909250905061087c565b6040805192835260208301919091528051918290030190f35b61021c61152a565b604080516001600160801b039092168252519081900360200190f35b610240611539565b60405180836001600160801b03168152602001826001600160801b031681526020019250505060405180910390f35b61028c6004803603602081101561028557600080fd5b5035611553565b6040805163ffffffff909516855260069390930b60208501526001600160a01b039091168383015215156060830152519081900360800190f35b6102e7600480360360208110156102dc57600080fd5b503561ffff16611598565b005b6102f16116c3565b604080516001600160a01b03909816885260029690960b602088015261ffff9485168787015292841660608701529216608085015260ff90911660a0840152151560c0830152519081900360e00190f35b6101fb600480360360a081101561035857600080fd5b6001600160a01b03823516916020810135600290810b92604083013590910b916001600160801b036060820135169181019060a081016080820135600160201b8111156103a457600080fd5b8201836020820111156103b657600080fd5b803590602001918460018302840111600160201b831117156103d757600080fd5b509092509050611713565b6103ea611926565b60408051918252519081900360200190f35b6102e76004803603608081101561041257600080fd5b6001600160a01b038235169160208101359160408201359190810190608081016060820135600160201b81111561044857600080fd5b82018360208201111561045a57600080fd5b803590602001918460018302840111600160201b8311171561047b57600080fd5b50909250905061192c565b610240600480360360a081101561049c57600080fd5b506001600160a01b03813516906020810135600290810b91604081013590910b906001600160801b0360608201358116916080013516611cae565b6104f4600480360360208110156104ed57600080fd5b5035611e74565b604080516001600160801b0396871681526020810195909552848101939093529084166060840152909216608082015290519081900360a00190f35b6103ea6004803603602081101561054657600080fd5b503560010b611eb1565b61021c611ec3565b6102e76004803603604081101561056e57600080fd5b5060ff81358116916020013516611ee7565b6102406004803603606081101561059657600080fd5b506001600160a01b03813516906001600160801b0360208201358116916040013516611fdf565b61062b600480360360208110156105d357600080fd5b810190602081018135600160201b8111156105ed57600080fd5b8201836020820111156105ff57600080fd5b803590602001918460208302840111600160201b8311171561062057600080fd5b5090925090506121be565b604051808060200180602001838103835285818151815260200191508051906020019060200280838360005b8381101561066f578181015183820152602001610657565b50505050905001838103825284818151815260200191508051906020019060200280838360005b838110156106ae578181015183820152602001610696565b5050505090500194505050505060405180910390f35b6101fb600480360360608110156106da57600080fd5b508035600290810b91602081013590910b90604001356001600160801b031661241e565b6107286004803603604081101561071457600080fd5b508035600290810b9160200135900b61253e565b6040805160069490940b84526001600160a01b03909216602084015263ffffffff1682820152519081900360600190f35b61014b6127bf565b6107696127e3565b6040805160029290920b8252519081900360200190f35b61014b612807565b61079061282b565b6040805162ffffff9092168252519081900360200190f35b6103ea61284f565b6107d0600480360360208110156107c657600080fd5b503560020b612855565b604080516001600160801b039099168952600f9790970b602089015287870195909552606087019390935260069190910b60808601526001600160a01b031660a085015263ffffffff1660c0840152151560e083015251908190036101000190f35b6102e76004803603602081101561084857600080fd5b50356001600160a01b03166128bf565b7f000000000000000000000000000000000000000000000000000000000000000081565b600080610887612b61565b6040805160e0810182526000546001600160a01b0381168252600160a01b8104600290810b810b900b602083015261ffff600160b81b8204811693830193909352600160c81b810483166060830152600160d81b8104909216608082015260ff600160e81b8304811660a0830152600160f01b909204909116151560c0820152861580159061091757508060c001515b80156109205750875b61096a5780600001516001600160a01b0316866001600160a01b0316118015610965575073fffd8963efd1fc6a506488495d951d5263988d266001600160a01b038716105b61099c565b80600001516001600160a01b0316866001600160a01b031610801561099c57506401000276a36001600160a01b038716115b6109a557600080fd5b6000805460ff60f01b191681556040805160c08101909152808a6109d45760048460a0015160ff16901c6109e7565b60108460a0015160ff16816109e557fe5b065b60ff1681526004546001600160801b03166020820152604001610a08612b98565b63ffffffff168152602001600060060b815260200160006001600160a01b031681526020016000151581525090506000808913905060006040518060e001604052808b81526020016000815260200185600001516001600160a01b03168152602001856020015160020b81526020018c610a8457600254610a88565b6001545b815260200160006001600160801b0316815260200184602001516001600160801b031681525090505b805115801590610ad75750886001600160a01b031681604001516001600160a01b031614155b15610fdb576000610ae8828d612b9c565b905073__$227557ed07fc81f3f2c16d51f81368c4cc$__63100d3f7483604001518e610b2c578c6001600160a01b031684606001516001600160a01b031611610b46565b8c6001600160a01b031684606001516001600160a01b0316105b610b54578360600151610b56565b8c5b8560c0015186600001517f00000000000000000000000000000000000000000000000000000000000000006040518663ffffffff1660e01b815260040180866001600160a01b03168152602001856001600160a01b03168152602001846001600160801b031681526020018381526020018262ffffff1681526020019550505050505060806040518083038186803b158015610bf157600080fd5b505af4158015610c05573d6000803e3d6000fd5b505050506040513d6080811015610c1b57600080fd5b508051602082015160408084015160609094015160c086015260a085019390935260808401526001600160a01b0316908301528215610c9357610c678160c00151826080015101612d5a565b825103825260a0810151610c8990610c7e90612d5a565b602084015190612d70565b6020830152610cce565b610ca08160a00151612d5a565b825101825260c08101516080820151610cc891610cbd9101612d5a565b602084015190612d8c565b60208301525b835160ff1615610d14576000846000015160ff168260c0015181610cee57fe5b60c0840180519290910491829003905260a0840180519091016001600160801b03169052505b60c08201516001600160801b031615610d5357610d478160c00151600160801b8460c001516001600160801b0316612da2565b60808301805190910190525b80606001516001600160a01b031682604001516001600160a01b03161415610f1f57806040015115610ef6578360a00151610e8057604080850151602080880151888401519188015160608a01518551639a7fc61560e01b81526008600482015263ffffffff90951660248601526000604486015260029290920b606485015261ffff92831660848501526001600160801b031660a48401521660c4820152815173__$48ac334b27a7b6aa6ed51aadb8a2c09873$__92639a7fc6159260e48082019391829003018186803b158015610e2b57600080fd5b505af4158015610e3f573d6000803e3d6000fd5b505050506040513d6040811015610e5557600080fd5b5080516020909101516001600160a01b03166080860152600690810b900b6060850152600160a08501525b6000610ecc82602001518e610e9757600154610e9d565b84608001515b8f610eac578560800151610eb0565b6002545b608089015160608a015160408b01516005959493929190612e52565b90508c15610ed8576000035b610ee68360c0015182612f0c565b6001600160801b031660c0840152505b8b610f05578060200151610f0e565b60018160200151035b600290810b900b6060830152610fd5565b80600001516001600160a01b031682604001516001600160a01b031614610fd55773__$ae74efe5bfe67cd1f3d10e6c6d5fbce88b$__634f76c05883604001516040518263ffffffff1660e01b815260040180826001600160a01b0316815260200191505060206040518083038186803b158015610f9c57600080fd5b505af4158015610fb0573d6000803e3d6000fd5b505050506040513d6020811015610fc657600080fd5b5051600290810b900b60608301525b50610ab1565b836020015160020b816060015160020b1461116057600080600873__$48ac334b27a7b6aa6ed51aadb8a2c09873$__63ab329c239091886040015188604001518a602001518a602001518c606001518d608001516040518863ffffffff1660e01b8152600401808881526020018761ffff1681526020018663ffffffff1681526020018560020b8152602001846001600160801b031681526020018361ffff1681526020018261ffff168152602001975050505050505050604080518083038186803b1580156110aa57600080fd5b505af41580156110be573d6000803e3d6000fd5b505050506040513d60408110156110d457600080fd5b508051602090910151604085015160608601516000805461ffff60c81b1916600160c81b61ffff958616021761ffff60b81b1916600160b81b94909516939093029390931762ffffff60a01b1916600160a01b62ffffff60029590950b9490941693909302929092176001600160a01b0319166001600160a01b03909216919091179055506111859050565b6040810151600080546001600160a01b0319166001600160a01b039092169190911790555b8060c001516001600160801b031683602001516001600160801b0316146111cb5760c0810151600480546001600160801b0319166001600160801b039092169190911790555b8a1561121b57608081015160015560a08101516001600160801b0316156112165760a0810151600380546001600160801b031981166001600160801b03918216909301169190911790555b611261565b608081015160025560a08101516001600160801b0316156112615760a0810151600380546001600160801b03808216600160801b92839004821690940116029190911790555b8115158b15151461127a57602081015181518b03611287565b80600001518a0381602001515b90965094508a156113925760008512156112c9576112c97f00000000000000000000000000000000000000000000000000000000000000008d87600003612fc2565b60006112d3613109565b9050336001600160a01b031663fa461e3388888c8c6040518563ffffffff1660e01b815260040180858152602001848152602001806020018281038252848482818152602001925080828437600081840152601f19601f82011690508083019250505095505050505050600060405180830381600087803b15801561135757600080fd5b505af115801561136b573d6000803e3d6000fd5b50505050611377613109565b6113818289613139565b111561138c57600080fd5b5061148e565b60008612156113c9576113c97f00000000000000000000000000000000000000000000000000000000000000008d88600003612fc2565b60006113d3613149565b9050336001600160a01b031663fa461e3388888c8c6040518563ffffffff1660e01b815260040180858152602001848152602001806020018281038252848482818152602001925080828437600081840152601f19601f82011690508083019250505095505050505050600060405180830381600087803b15801561145757600080fd5b505af115801561146b573d6000803e3d6000fd5b50505050611477613149565b6114818288613139565b111561148c57600080fd5b505b60408082015160c083015160608085015184518b8152602081018b90526001600160a01b03948516818701526001600160801b039093169183019190915260020b60808201529151908e169133917fc42079f94a6350d7e6235f29174924f928cc2ac818eb64fed8004e115fbcca679181900360a00190a350506000805460ff60f01b1916600160f01b17905550919890975095505050505050565b6004546001600160801b031681565b6003546001600160801b0380821691600160801b90041682565b60088161ffff811061156457600080fd5b015463ffffffff81169150600160201b810460060b90600160581b81046001600160a01b031690600160f81b900460ff1684565b6115a0613174565b6115a8612b61565b60008054604080516398cdb26160e01b81526008600482015261ffff600160d81b9093048316602482018190529285166044820152905191929173__$48ac334b27a7b6aa6ed51aadb8a2c09873$__916398cdb261916064808301926020929190829003018186803b15801561161d57600080fd5b505af4158015611631573d6000803e3d6000fd5b505050506040513d602081101561164757600080fd5b50516000805461ffff808416600160d81b810261ffff60d81b19909316929092179092559192508316146116b6576040805161ffff80851682528316602082015281517fac49e518f90a358f652e4400164f05a5d8f7e35e7747279bc3a93dbf584e125a929181900390910190a15b50506116c06131c7565b50565b6000546001600160a01b03811690600160a01b810460020b9061ffff600160b81b8204811691600160c81b8104821691600160d81b8204169060ff600160e81b8204811691600160f01b90041687565b60008061171e613174565b6000856001600160801b03161161173457600080fd5b60008061178260405180608001604052808c6001600160a01b031681526020018b60020b81526020018a60020b81526020016117788a6001600160801b03166131dc565b600f0b90526131ed565b925092505081935080925060008060008611156117a4576117a1613109565b91505b84156117b5576117b2613149565b90505b336001600160a01b031663d348799787878b8b6040518563ffffffff1660e01b815260040180858152602001848152602001806020018281038252848482818152602001925080828437600081840152601f19601f82011690508083019250505095505050505050600060405180830381600087803b15801561183757600080fd5b505af115801561184b573d6000803e3d6000fd5b5050505060008611158061186f5750611862613109565b61186c8388613139565b11155b801561189357508415806118935750611886613149565b6118908287613139565b11155b61189c57600080fd5b8960020b8b60020b8d6001600160a01b03167f7a53080ba414158be7ec69b987b5fb7d07dee101fe85488f0853ae16239d0bde338d8b8b60405180856001600160a01b03168152602001846001600160801b0316815260200183815260200182815260200194505050505060405180910390a45050505061191b6131c7565b965096945050505050565b60025481565b611934613174565b61193c612b61565b6000611971857f000000000000000000000000000000000000000000000000000000000000000062ffffff16620f4240613546565b905060006119a8857f000000000000000000000000000000000000000000000000000000000000000062ffffff16620f4240613546565b905060006119b4613109565b905060006119c0613149565b905087156119f3576119f37f00000000000000000000000000000000000000000000000000000000000000008a8a612fc2565b8615611a2457611a247f00000000000000000000000000000000000000000000000000000000000000008a89612fc2565b336001600160a01b031663e9cbafb0858589896040518563ffffffff1660e01b815260040180858152602001848152602001806020018281038252848482818152602001925080828437600081840152601f19601f82011690508083019250505095505050505050600060405180830381600087803b158015611aa657600080fd5b505af1158015611aba573d6000803e3d6000fd5b505050506000611ac8613109565b90506000611ad4613149565b6004549091506001600160801b03168015801590611afb575082611af88689613139565b11155b8015611b10575081611b0d8588613139565b11155b611b1957600080fd5b8483038483038115611ba85760008054600160e81b9004600f16908115611b4c578160ff168481611b4657fe5b04611b4f565b60005b90506001600160801b03811615611b8257600380546001600160801b038082168401166001600160801b03199091161790555b611b9c818503600160801b876001600160801b0316612da2565b60018054909101905550505b8015611c335760008054600160e81b900460041c600f16908115611bd8578160ff168381611bd257fe5b04611bdb565b60005b90506001600160801b03811615611c0d57600380546001600160801b03600160801b8083048216850182160291161790555b611c27818403600160801b876001600160801b0316612da2565b60028054909101905550505b8d6001600160a01b0316336001600160a01b03167fbdbdb71d7860376ba52b25a5028beea23581364a40522f6bcfb86bb1f2dca6338f8f86866040518085815260200184815260200183815260200182815260200194505050505060405180910390a3505050505050505050611ca76131c7565b5050505050565b600080611cb9613174565b6000611cc86007338989613580565b60038101549091506001600160801b0390811690861611611ce95784611cf8565b60038101546001600160801b03165b60038201549093506001600160801b03600160801b909104811690851611611d205783611d36565b6003810154600160801b90046001600160801b03165b91506001600160801b03831615611d9b576003810180546001600160801b031981166001600160801b03918216869003821617909155611d9b907f0000000000000000000000000000000000000000000000000000000000000000908a908616612fc2565b6001600160801b03821615611e01576003810180546001600160801b03600160801b808304821686900382160291811691909117909155611e01907f0000000000000000000000000000000000000000000000000000000000000000908a908516612fc2565b604080516001600160a01b038a1681526001600160801b0380861660208301528416818301529051600288810b92908a900b9133917f70935338e69775456a85ddef226c395fb668b63fa0115f5f20610b388e6ca9c0919081900360600190a450611e6a6131c7565b9550959350505050565b60076020526000908152604090208054600182015460028301546003909301546001600160801b0392831693919281811691600160801b90041685565b60066020526000908152604090205481565b7f000000000000000000000000000000000000000000000000000000000000000081565b611eef613174565b611ef76135df565b60ff82161580611f1a575060048260ff1610158015611f1a5750600a8260ff1611155b8015611f44575060ff81161580611f44575060048160ff1610158015611f445750600a8160ff1611155b611f4d57600080fd5b60008054610ff0600484901b16840160ff908116600160e81b90810260ff60e81b19841617909355919004167f973d8d92bb299f4af6ce49b52a8adb85ae46b9f214c4c4fc06ac77401237b1336010826040805160ff9390920683168252600f600486901c16602083015286831682820152918516606082015290519081900360800190a150611fdb6131c7565b5050565b600080611fea613174565b611ff26135df565b6003546001600160801b039081169085161161200e578361201b565b6003546001600160801b03165b6003549092506001600160801b03600160801b9091048116908416116120415782612055565b600354600160801b90046001600160801b03165b90506001600160801b038216156120d6576003546001600160801b038381169116141561208457600019909101905b600380546001600160801b031981166001600160801b039182168590038216179091556120d6907f00000000000000000000000000000000000000000000000000000000000000009087908516612fc2565b6001600160801b0381161561215c576003546001600160801b03828116600160801b90920416141561210757600019015b600380546001600160801b03600160801b80830482168590038216029181169190911790915561215c907f00000000000000000000000000000000000000000000000000000000000000009087908416612fc2565b604080516001600160801b0380851682528316602082015281516001600160a01b0388169233927f596b573906218d3411850b26a6b437d6c4522fdb43d2d2386263f86d50b8b151929081900390910190a36121b66131c7565b935093915050565b6060806121c9612b61565b73__$48ac334b27a7b6aa6ed51aadb8a2c09873$__637b7513c160086121ed612b98565b6000546004805460405160e087811b6001600160e01b031916825292810186815263ffffffff86166024830152600160a01b8504600290810b9081900b6064840152600160b81b860461ffff908116608485018190526001600160801b0390951660a48501819052600160c81b9097041660c484018190526044840195865260e484018e90528e968e96929594909391929061010401886020890280828437600081840152601f19601f820116905080830192505050995050505050505050505060006040518083038186803b1580156122c657600080fd5b505af41580156122da573d6000803e3d6000fd5b505050506040513d6000823e601f3d908101601f19168201604090815281101561230357600080fd5b8101908080516040519392919084600160201b82111561232257600080fd5b90830190602082018581111561233757600080fd5b82518660208202830111600160201b8211171561235357600080fd5b82525081516020918201928201910280838360005b83811015612380578181015183820152602001612368565b5050505090500160405260200180516040519392919084600160201b8211156123a857600080fd5b9083019060208201858111156123bd57600080fd5b82518660208202830111600160201b821117156123d957600080fd5b82525081516020918201928201910280838360005b838110156124065781810151838201526020016123ee565b50505050905001604052505050915091509250929050565b600080612429613174565b600080600061247c6040518060800160405280336001600160a01b031681526020018a60020b81526020018960020b815260200161246f896001600160801b03166131dc565b600003600f0b90526131ed565b925092509250816000039450806000039350600085118061249d5750600084115b156124dc576003830180546001600160801b038082168089018216600160801b93849004831689019092169092029091176001600160801b0319161790555b604080516001600160801b0388168152602081018790528082018690529051600289810b92908b900b9133917f0c396cd989a39f4459b5fa1aed6a9a8dcdbc45908acfd67e028cd568da98982c919081900360600190a45050506121b66131c7565b600080600061254b612b61565b6125558585613678565b600285810b810b60009081526005602052604080822087840b90930b8252902060038083015490820154600682810b949082900b93600160381b8085046001600160a01b03908116959185041693600160d81b80830463ffffffff90811695918304169390929091600160f81b9182900460ff90811692909104168180156125da5750805b6125e357600080fd5b50506040805160e0810182526000546001600160a01b0381168252600160a01b8104600290810b810b810b6020840181905261ffff600160b81b8404811695850195909552600160c81b830485166060850152600160d81b8304909416608084015260ff600160e81b8304811660a0850152600160f01b909204909116151560c08301529093508e810b91900b1215905061268c575093909403965090039350900390506127b8565b8a60020b816020015160020b12156127a95760006126a8612b98565b60208301516040808501516004805460608801518451639a7fc61560e01b815260089381019390935263ffffffff8716602484015260006044840181905260029690960b606484015261ffff93841660848401526001600160801b0390911660a48301529190911660c482015281519394509192839273__$48ac334b27a7b6aa6ed51aadb8a2c09873$__92639a7fc6159260e480840193829003018186803b15801561275457600080fd5b505af4158015612768573d6000803e3d6000fd5b505050506040513d604081101561277e57600080fd5b5080516020909101519a9003989098039b5050949096039290920396509091030392506127b8915050565b50949093039650039350900390505b9250925092565b7f000000000000000000000000000000000000000000000000000000000000000081565b7f000000000000000000000000000000000000000000000000000000000000000081565b7f000000000000000000000000000000000000000000000000000000000000000081565b7f000000000000000000000000000000000000000000000000000000000000000081565b60015481565b60056020526000908152604090208054600182015460028301546003909301546001600160801b03831693600160801b909304600f0b9290600681900b90600160381b81046001600160a01b031690600160d81b810463ffffffff1690600160f81b900460ff1688565b6000546001600160a01b0316156128d557600080fd5b600073__$ae74efe5bfe67cd1f3d10e6c6d5fbce88b$__634f76c058836040518263ffffffff1660e01b815260040180826001600160a01b0316815260200191505060206040518083038186803b15801561292f57600080fd5b505af4158015612943573d6000803e3d6000fd5b505050506040513d602081101561295957600080fd5b5051905060008073__$48ac334b27a7b6aa6ed51aadb8a2c09873$__63a0eff3f76008612984612b98565b6040518363ffffffff1660e01b8152600401808381526020018263ffffffff16815260200192505050604080518083038186803b1580156129c457600080fd5b505af41580156129d8573d6000803e3d6000fd5b505050506040513d60408110156129ee57600080fd5b5080516020918201516040805160e0810182526001600160a01b038916808252600289810b838801819052600084860181905261ffff808916606087018190529088166080870181905260a08701839052600160c090970196909652815461ffff60e81b19600160d81b90970261ffff60d81b19600160c81b90930263ffffffff60b81b199686900b62ffffff16600160a01b0262ffffff60a01b196001600160a01b0319909416891793909316929092179590951617169290921793909316600160f01b17905582519081529485015280519295509093507f98636036cb66a9c19a37435efc1e90142190214e8abeb821bdba3f2990dd4c95928290030190a150505050565b60008082600281900b620d89e71981612b0a57fe5b05029050600083600281900b620d89e881612b2157fe5b0502905060008460020b83830360020b81612b3857fe5b0560010190508062ffffff166001600160801b03801681612b5557fe5b0493505050505b919050565b306001600160a01b037f00000000000000000000000000000000000000000000000000000000000000001614612b9657600080fd5b565b4290565b612ba4613e76565b6040808401516001600160a01b031682526060840151815163120b7ff960e01b815260066004820152600291820b60248201527f000000000000000000000000000000000000000000000000000000000000000090910b60448201528315156064820152815173__$ea4b94bfad74e2320dc10203c916388da8$__9263120b7ff99260848082019391829003018186803b158015612c4157600080fd5b505af4158015612c55573d6000803e3d6000fd5b505050506040513d6040811015612c6b57600080fd5b50805160209182015115156040840152600290810b810b918301829052620d89e71991900b1215612ca557620d89e7196020820152612cc4565b6020810151620d89e860029190910b1315612cc457620d89e860208201525b73__$ae74efe5bfe67cd1f3d10e6c6d5fbce88b$__63986cfba382602001516040518263ffffffff1660e01b8152600401808260020b815260200191505060206040518083038186803b158015612d1a57600080fd5b505af4158015612d2e573d6000803e3d6000fd5b505050506040513d6020811015612d4457600080fd5b50516001600160a01b0316606082015292915050565b6000600160ff1b8210612d6c57600080fd5b5090565b80820382811315600083121514612d8657600080fd5b92915050565b81810182811215600083121514612d8657600080fd5b6000808060001985870986860292508281109083900303905080612dd85760008411612dcd57600080fd5b508290049050612e4b565b808411612de457600080fd5b6000848688096000868103871696879004966002600389028118808a02820302808a02820302808a02820302808a02820302808a02820302808a02909103029181900381900460010186841190950394909402919094039290920491909117919091029150505b9392505050565b600295860b860b60009081526020979097526040909620600181018054909503909455938301805490920390915560038201805463ffffffff600160d81b6001600160a01b03600160381b808504821690960316909402600160381b600160d81b031990921691909117600681810b90960390950b66ffffffffffffff1666ffffffffffffff199095169490941782810485169095039093160263ffffffff60d81b1990931692909217905554600160801b9004600f0b90565b60008082600f0b1215612f7157826001600160801b03168260000384039150816001600160801b031610612f6c576040805162461bcd60e51b81526020600482015260026024820152614c5360f01b604482015290519081900360640190fd5b612d86565b826001600160801b03168284019150816001600160801b03161015612d86576040805162461bcd60e51b81526020600482015260026024820152614c4160f01b604482015290519081900360640190fd5b604080516001600160a01b038481166024830152604480830185905283518084039091018152606490920183526020820180516001600160e01b031663a9059cbb60e01b1781529251825160009485949389169392918291908083835b6020831061303e5780518252601f19909201916020918201910161301f565b6001836020036101000a0380198251168184511680821785525050505050509050019150506000604051808303816000865af19150503d80600081146130a0576040519150601f19603f3d011682016040523d82523d6000602084013e6130a5565b606091505b50915091508180156130d35750805115806130d357508080602001905160208110156130d057600080fd5b50515b611ca7576040805162461bcd60e51b81526020600482015260026024820152612a2360f11b604482015290519081900360640190fd5b60006131347f00000000000000000000000000000000000000000000000000000000000000006136de565b905090565b80820182811015612d8657600080fd5b60006131347f00000000000000000000000000000000000000000000000000000000000000006136de565b600054600160f01b900460ff166131b8576040805162461bcd60e51b81526020600482015260036024820152624c4f4b60e81b604482015290519081900360640190fd5b6000805460ff60f01b19169055565b6000805460ff60f01b1916600160f01b179055565b80600f81900b8114612b5c57600080fd5b60008060006131fa612b61565b61320c84602001518560400151613678565b6040805160e0810182526000546001600160a01b0381168252600160a01b8104600290810b810b900b602080840182905261ffff600160b81b8404811685870152600160c81b84048116606080870191909152600160d81b8504909116608086015260ff600160e81b8504811660a0870152600160f01b909404909316151560c0850152885190890151948901519289015193946132b094919390929091906137f8565b935060008073__$ae74efe5bfe67cd1f3d10e6c6d5fbce88b$__638a933ec6886020015189604001516040518363ffffffff1660e01b8152600401808360020b81526020018260020b815260200192505050604080518083038186803b15801561331957600080fd5b505af415801561332d573d6000803e3d6000fd5b505050506040513d604081101561334357600080fd5b50805160209091015160608901519193509150600f0b1561353c57866020015160020b836020015160020b121561338a5761338382828960600151613b83565b945061353c565b866040015160020b836020015160020b121561352a5760045460408401516001600160801b039091169073__$48ac334b27a7b6aa6ed51aadb8a2c09873$__9063ab329c23906008906133db612b98565b8860200151868a606001518b608001516040518863ffffffff1660e01b8152600401808881526020018761ffff1681526020018663ffffffff1681526020018560020b8152602001846001600160801b031681526020018361ffff1681526020018261ffff168152602001975050505050505050604080518083038186803b15801561346657600080fd5b505af415801561347a573d6000803e3d6000fd5b505050506040513d604081101561349057600080fd5b5080516020909101516000805461ffff938416600160b81b0261ffff60b81b1994909316600160c81b0261ffff60c81b199091161792909216179055835160608901516134df91908490613b83565b95506134f48385600001518a60600151613bc8565b9450613504818960600151612f0c565b600480546001600160801b0319166001600160801b03929092169190911790555061353c565b61353982828960600151613bc8565b93505b5050509193909250565b6000613553848484612da2565b90506000828061355f57fe5b8486091115612e4b57600019811061357657600080fd5b6001019392505050565b6040805160609490941b6001600160601b031916602080860191909152600293840b60e890811b60348701529290930b90911b60378401528051808403601a018152603a90930181528251928201929092206000908152929052902090565b7f00000000000000000000000000000000000000000000000000000000000000006001600160a01b0316638da5cb5b6040518163ffffffff1660e01b815260040160206040518083038186803b15801561363857600080fd5b505afa15801561364c573d6000803e3d6000fd5b505050506040513d602081101561366257600080fd5b50516001600160a01b03163314612b9657600080fd5b8060020b8260020b1280156136955750620d89e719600283900b12155b80156136a85750620d89e8600282900b13155b611fdb576040805162461bcd60e51b815260206004820152600260248201526110d560f21b604482015290519081900360640190fd5b604080513060248083019190915282518083039091018152604490910182526020810180516001600160e01b03166370a0823160e01b17815291518151600093849384936001600160a01b03881693919290918291908083835b602083106137575780518252601f199092019160209182019101613738565b6001836020036101000a038019825116818451168082178552505050505050905001915050600060405180830381855afa9150503d80600081146137b7576040519150601f19603f3d011682016040523d82523d6000602084013e6137bc565b606091505b50915091508180156137d057506020815110155b6137d957600080fd5b8080602001905160208110156137ee57600080fd5b5051949350505050565b60006138076007878787613580565b60015460025491925090600080600f87900b15613aac576000613828612b98565b600080546004805460408051639a7fc61560e01b815260089381019390935263ffffffff8616602484015260448301859052600160a01b8404600290810b900b606484015261ffff600160b81b8504811660848501526001600160801b0390921660a4840152600160c81b9093041660c482015281519394509192839273__$48ac334b27a7b6aa6ed51aadb8a2c09873$__92639a7fc6159260e480840193829003018186803b1580156138db57600080fd5b505af41580156138ef573d6000803e3d6000fd5b505050506040513d604081101561390557600080fd5b81019080805190602001909291908051906020019092919050505091509150600573__$7e0ee984809e88e88d5445bb36e1fd61cf$__63dc3fd14d90918e8e8d8f8d8d898b8d7f00000000000000000000000000000000000000000000000000000000000000006040518c63ffffffff1660e01b8152600401808c81526020018b60020b81526020018a60020b81526020018960020b815260200188600f0b8152602001878152602001868152602001856001600160a01b031681526020018460060b81526020018363ffffffff168152602001826001600160801b031681526020019b505050505050505050505050604080518083038186803b158015613a0c57600080fd5b505af4158015613a20573d6000803e3d6000fd5b505050506040513d6040811015613a3657600080fd5b50805160209091015190955093508415613a7657613a7660068d7f0000000000000000000000000000000000000000000000000000000000000000613bf7565b8315613aa857613aa860068c7f0000000000000000000000000000000000000000000000000000000000000000613bf7565b5050505b600080613abe60058c8c8b8a8a613c5d565b915091508673__$87ceb4fd1c2b388d208cb9417a355ba086$__63d9a1a06390918b85856040518563ffffffff1660e01b81526004018085815260200184600f0b815260200183815260200182815260200194505050505060006040518083038186803b158015613b2e57600080fd5b505af4158015613b42573d6000803e3d6000fd5b50505050600089600f0b1215613b74578315613b6357613b6360058c613d09565b8215613b7457613b7460058b613d09565b50505050505095945050505050565b60008082600f0b12613ba957613ba4613b9f8585856001613d35565b612d5a565b613bc0565b613bbc613b9f8585856000036000613d35565b6000035b949350505050565b60008082600f0b12613be457613ba4613b9f8585856001613de0565b613bbc613b9f8585856000036000613de0565b8060020b8260020b81613c0657fe5b0760020b15613c1457600080fd5b600080613c2f8360020b8560020b81613c2957fe5b05613e59565b600191820b820b60009081526020979097526040909620805460ff9097169190911b90951890945550505050565b600285810b80820b60009081526020899052604080822088850b850b83529082209193849391929184918291908a900b12613ca357505060018201546002830154613cb6565b8360010154880391508360020154870390505b6000808b60020b8b60020b1215613cd857505060018301546002840154613ceb565b84600101548a0391508460020154890390505b92909803979097039b96909503949094039850939650505050505050565b600290810b810b6000908152602092909252604082208281556001810183905590810182905560030155565b6000836001600160a01b0316856001600160a01b03161115613d55579293925b600160601b600160e01b03606084901b166001600160a01b038686038116908716613d7f57600080fd5b83613daf57866001600160a01b0316613da28383896001600160a01b0316612da2565b81613da957fe5b04613dd5565b613dd5613dc68383896001600160a01b0316613546565b886001600160a01b0316613e6b565b979650505050505050565b6000836001600160a01b0316856001600160a01b03161115613e00579293925b81613e2d57613e28836001600160801b03168686036001600160a01b0316600160601b612da2565b613e50565b613e50836001600160801b03168686036001600160a01b0316600160601b613546565b95945050505050565b60020b600881901d9161010090910790565b808204910615150190565b6040805160e081018252600080825260208201819052918101829052606081018290526080810182905260a0810182905260c08101919091529056fea164736f6c6343000706000a",
  "linkReferences": {
    "@uniswap/v3-core-optimism/contracts/libraries/Oracle.sol": {
      "Oracle": [
        {
          "length": 20,
          "start": 4150
        },
        {
          "length": 20,
          "start": 4663
        },
        {
          "length": 20,
          "start": 6180
        },
        {
          "length": 20,
          "start": 9227
        },
        {
          "length": 20,
          "start": 10592
        },
        {
          "length": 20,
          "start": 11170
        },
        {
          "length": 20,
          "start": 13814
        },
        {
          "length": 20,
          "start": 15079
        }
      ]
    },
    "@uniswap/v3-core-optimism/contracts/libraries/Position.sol": {
      "Position": [
        {
          "length": 20,
          "start": 15621
        }
      ]
    },
    "@uniswap/v3-core-optimism/contracts/libraries/SwapMath.sol": {
      "SwapMath": [
        {
          "length": 20,
          "start": 3372
        }
      ]
    },
    "@uniswap/v3-core-optimism/contracts/libraries/Tick.sol": {
      "Tick": [
        {
          "length": 20,
          "start": 15208
        }
      ]
    },
    "@uniswap/v3-core-optimism/contracts/libraries/TickBitmap.sol": {
      "TickBitmap": [
        {
          "length": 20,
          "start": 11852
        }
      ]
    },
    "@uniswap/v3-core-optimism/contracts/libraries/TickMath.sol": {
      "TickMath": [
        {
          "length": 20,
          "start": 4482
        },
        {
          "length": 20,
          "start": 11033
        },
        {
          "length": 20,
          "start": 12038
        },
        {
          "length": 20,
          "start": 13559
        }
      ]
    }
  },
  "deployedLinkReferences": {
    "@uniswap/v3-core-optimism/contracts/libraries/Oracle.sol": {
      "Oracle": [
        {
          "length": 20,
          "start": 3574
        },
        {
          "length": 20,
          "start": 4087
        },
        {
          "length": 20,
          "start": 5604
        },
        {
          "length": 20,
          "start": 8651
        },
        {
          "length": 20,
          "start": 10016
        },
        {
          "length": 20,
          "start": 10594
        },
        {
          "length": 20,
          "start": 13238
        },
        {
          "length": 20,
          "start": 14503
        }
      ]
    },
    "@uniswap/v3-core-optimism/contracts/libraries/Position.sol": {
      "Position": [
        {
          "length": 20,
          "start": 15045
        }
      ]
    },
    "@uniswap/v3-core-optimism/contracts/libraries/SwapMath.sol": {
      "SwapMath": [
        {
          "length": 20,
          "start": 2796
        }
      ]
    },
    "@uniswap/v3-core-optimism/contracts/libraries/Tick.sol": {
      "Tick": [
        {
          "length": 20,
          "start": 14632
        }
      ]
    },
    "@uniswap/v3-core-optimism/contracts/libraries/TickBitmap.sol": {
      "TickBitmap": [
        {
          "length": 20,
          "start": 11276
        }
      ]
    },
    "@uniswap/v3-core-optimism/contracts/libraries/TickMath.sol": {
      "TickMath": [
        {
          "length": 20,
          "start": 3906
        },
        {
          "length": 20,
          "start": 10457
        },
        {
          "length": 20,
          "start": 11462
        },
        {
          "length": 20,
          "start": 12983
        }
      ]
    }
  }
}