{
  "_format": "hh-sol-artifact-1",
  "contractName": "NFTDescriptor",
  "sourceName": "contracts/libraries/NFTDescriptor.sol",
  "abi": [
    {
      "inputs": [
        {
          "components": [
            {
              "internalType": "uint256",
              "name": "tokenId",
              "type": "uint256"
            },
            {
              "internalType": "address",
              "name": "quoteTokenAddress",
              "type": "address"
            },
            {
              "internalType": "address",
              "name": "baseTokenAddress",
              "type": "address"
            },
            {
              "internalType": "string",
              "name": "quoteTokenSymbol",
              "type": "string"
            },
            {
              "internalType": "string",
              "name": "baseTokenSymbol",
              "type": "string"
            },
            {
              "internalType": "uint8",
              "name": "quoteTokenDecimals",
              "type": "uint8"
            },
            {
              "internalType": "uint8",
              "name": "baseTokenDecimals",
              "type": "uint8"
            },
            {
              "internalType": "bool",
              "name": "flipRatio",
              "type": "bool"
            },
            {
              "internalType": "int24",
              "name": "tickLower",
              "type": "int24"
            },
            {
              "internalType": "int24",
              "name": "tickUpper",
              "type": "int24"
            },
            {
              "internalType": "int24",
              "name": "tickCurrent",
              "type": "int24"
            },
            {
              "internalType": "int24",
              "name": "tickSpacing",
              "type": "int24"
            },
            {
              "internalType": "uint24",
              "name": "fee",
              "type": "uint24"
            },
            {
              "internalType": "address",
              "name": "poolAddress",
              "type": "address"
            }
          ],
          "internalType": "struct NFTDescriptor.ConstructTokenURIParams",
          "name": "params",
          "type": "tuple"
        }
      ],
      "name": "constructTokenURI",
      "outputs": [
        {
          "internalType": "string",
          "name": "",
          "type": "string"
        }
      ],
      "stateMutability": "pure",
      "type": "function"
    }
  ],
  "bytecode": "0x615862610026600b82828239805160001a60731461001957fe5b30600052607381538281f3fe73000000000000000000000000000000000000000030146080604052600436106100355760003560e01c8063c49917d71461003a575b600080fd5b61004d610048366004613859565b610063565b60405161005a9190613eb8565b60405180910390f35b6060600061007e83610079856101800151610170565b6103b6565b905060006100b26100928560600151610471565b61009f8660800151610471565b6100ad876101a001516105dc565b6105f2565b905060006101006100c68660000151610624565b6100d38760800151610471565b6100e088602001516105dc565b6100ed89604001516105dc565b6100fb8a6101800151610170565b6106fe565b9050600061011561011087610734565b61096f565b9050610145848484846040516020016101319493929190613bee565b60405160208183030381529060405261096f565b6040516020016101559190613e65565b6040516020818303038152906040529450505050505b919050565b606062ffffff821661019b5750604080518082019091526002815261302560f01b602082015261016b565b816000805b62ffffff8316156101eb5760ff8116156101bc576001016101d5565b600a62ffffff84160662ffffff166000146101d5576001015b600190910190600a62ffffff84160492506101a0565b6101f3613760565b6000600584106102e8576000600461020e8660ff8716610abc565b101561021b57600161021e565b60005b60ff90811691506102329085166001610abc565b61023d866005610abc565b106102695761026461025360ff86166001610abc565b61025e876005610abc565b90610abc565b61026c565b60005b60ff85166080850181905290925061028b9060019061025e9085610b19565b60ff90811660a085015260808401516102b29183916102ac91166001610abc565b90610b19565b60ff90811660408501526102da9082906102ac906102d39088166001610b19565b8590610b19565b60ff16602084015250610358565b6102f3600585610abc565b6002608084018190529091506103119060019061025e908490610b19565b60ff90811660a08401526103339061032c9085166002610b19565b8290610b19565b60ff1660208301819052610348906002610abc565b60ff166040830152600160c08301525b6103776103688560ff8616610abc565b62ffffff891690600a0a610b71565b8252600160e08301526004841161038f57600061039a565b61039a846004610abc565b60ff1660608301526103ab82610bd5565b979650505050505050565b6060816103c68460600151610471565b6103d38560800151610471565b61040c8660e00151156103eb578661012001516103f2565b8661010001515b8761016001518860c001518960a001518a60e00151610de4565b6104458760e00151156104245787610100015161042b565b8761012001515b8861016001518960c001518a60a001518b60e00151610de4565b604051602001610459959493929190613cc9565b60405160208183030381529060405290505b92915050565b6060816000805b82518160ff1610156104bd57828160ff168151811061049357fe5b6020910101516001600160f81b031916601160f91b14156104b5576001909101905b600101610478565b5060ff8116156105d45760008160ff168351016001600160401b03811180156104e557600080fd5b506040519080825280601f01601f191660200182016040528015610510576020820181803683370190505b5090506000805b84518160ff1610156105c757848160ff168151811061053257fe5b6020910101516001600160f81b031916601160f91b141561057c57601760fa1b83838060010194508151811061056457fe5b60200101906001600160f81b031916908160001a9053505b848160ff168151811061058b57fe5b602001015160f81c60f81b8383806001019450815181106105a857fe5b60200101906001600160f81b031916908160001a905350600101610517565b508194505050505061016b565b509192915050565b606061046b6001600160a01b0383166014610f78565b60608383838660405160200161060b9493929190613acc565b60405160208183030381529060405290505b9392505050565b60608161064957506040805180820190915260018152600360fc1b602082015261016b565b8160005b811561066157600101600a8204915061064d565b6000816001600160401b038111801561067957600080fd5b506040519080825280601f01601f1916602001820160405280156106a4576020820181803683370190505b50859350905060001982015b83156106f557600a840660300160f81b828280600190039350815181106106d357fe5b60200101906001600160f81b031916908160001a905350600a840493506106b0565b50949350505050565b60608385848489604051602001610719959493929190613d82565b60405160208183030381529060405290505b95945050505050565b60606000604051806102a0016040528061075185602001516105dc565b815260200161076385604001516105dc565b8152602001846101a001516001600160a01b03168152602001846060015181526020018460800151815260200161079e856101800151610170565b815260200184610100015160020b815260200184610120015160020b815260200184610160015160020b81526020016107e78561010001518661012001518761014001516110d6565b60000b81526020018460000151815260200161081185602001516001600160a01b0316608861110d565b815260200161082e85604001516001600160a01b0316608861110d565b815260200161084b85602001516001600160a01b0316600061110d565b815260200161086885604001516001600160a01b0316600061110d565b815260200161089b61088d86602001516001600160a01b03166010886000015161111c565b600060ff601061011261113c565b81526020016108ce6108c086604001516001600160a01b03166010886000015161111c565b600060ff60646101e461113c565b81526020016108f361088d86602001516001600160a01b03166020886000015161111c565b81526020016109186108c086604001516001600160a01b03166020886000015161111c565b815260200161093d61088d86602001516001600160a01b03166030886000015161111c565b81526020016109626108c086604001516001600160a01b03166030886000015161111c565b9052905061061d81611184565b6060815160001415610990575060408051602081019091526000815261016b565b6000604051806060016040528060408152602001614af0604091399050600060038451600201816109bd57fe5b0460040290506000816020016001600160401b03811180156109de57600080fd5b506040519080825280601f01601f191660200182016040528015610a09576020820181803683370190505b509050818152600183018586518101602084015b81831015610a775760039283018051603f601282901c811687015160f890811b8552600c83901c8216880151811b6001860152600683901c8216880151811b60028601529116860151901b93820193909352600401610a1d565b600389510660018114610a915760028114610aa257610aae565b613d3d60f01b600119830152610aae565b603d60f81b6000198301525b509398975050505050505050565b600082821115610b13576040805162461bcd60e51b815260206004820152601e60248201527f536166654d6174683a207375627472616374696f6e206f766572666c6f770000604482015290519081900360640190fd5b50900390565b60008282018381101561061d576040805162461bcd60e51b815260206004820152601b60248201527a536166654d6174683a206164646974696f6e206f766572666c6f7760281b604482015290519081900360640190fd5b6000808211610bc4576040805162461bcd60e51b815260206004820152601a602482015279536166654d6174683a206469766973696f6e206279207a65726f60301b604482015290519081900360640190fd5b818381610bcd57fe5b049392505050565b60606000826020015160ff166001600160401b0381118015610bf657600080fd5b506040519080825280601f01601f191660200182016040528015610c21576020820181803683370190505b5090508260e0015115610c5b57602560f81b81600183510381518110610c4357fe5b60200101906001600160f81b031916908160001a9053505b8260c0015115610cb857600360fc1b81600081518110610c7757fe5b60200101906001600160f81b031916908160001a905350601760f91b81600181518110610ca057fe5b60200101906001600160f81b031916908160001a9053505b608083015160ff165b60a0840151610cd49060ff166001610b19565b811015610d0b57603060f81b828281518110610cec57fe5b60200101906001600160f81b031916908160001a905350600101610cc1565b505b82511561046b576000836060015160ff16118015610d385750826060015160ff16836040015160ff16145b15610d7b5760408301805160ff600019820181169092528251601760f91b92849216908110610d6357fe5b60200101906001600160f81b031916908160001a9053505b8251610d8d90603090600a9006610b19565b60f81b818460400180518091906001900360ff1660ff1681525060ff1681518110610db457fe5b60200101906001600160f81b031916908160001a905350600a8360000181815181610ddb57fe5b04905250610d0d565b606084600281900b620d89e71981610df857fe5b050260020b8660020b1415610e52578115610e2e576040518060400160405280600381526020016209a82b60eb1b815250610e4b565b6040518060400160405280600381526020016226a4a760e91b8152505b905061072b565b84600281900b620d89e881610e6357fe5b050260020b8660020b1415610eb9578115610e99576040518060400160405280600381526020016226a4a760e91b815250610e4b565b5060408051808201909152600381526209a82b60eb1b602082015261072b565b60405163986cfba360e01b815260009073__$ae74efe5bfe67cd1f3d10e6c6d5fbce88b$__9063986cfba390610ef3908a90600401613eaa565b60206040518083038186803b158015610f0b57600080fd5b505af4158015610f1f573d6000803e3d6000fd5b505050506040513d601f19601f82011682018060405250810190610f4391906139c3565b90508215610f6557610f62600160c01b6001600160a01b038316610b71565b90505b610f708186866113fc565b91505061072b565b60606000826002026002016001600160401b0381118015610f9857600080fd5b506040519080825280601f01601f191660200182016040528015610fc3576020820181803683370190505b509050600360fc1b81600081518110610fd857fe5b60200101906001600160f81b031916908160001a905350600f60fb1b8160018151811061100157fe5b60200101906001600160f81b031916908160001a905350600160028402015b6001811115611082576f181899199a1a9b1b9c1cb0b131b232b360811b85600f166010811061104b57fe5b1a60f81b82828151811061105b57fe5b60200101906001600160f81b031916908160001a90535060049490941c9360001901611020565b50831561061d576040805162461bcd60e51b815260206004820181905260248201527f537472696e67733a20686578206c656e67746820696e73756666696369656e74604482015290519081900360640190fd5b60008360020b8260020b12156110ef575060001961061d565b8260020b8260020b13156111055750600161061d565b50600061061d565b606061061d83831c60036115b9565b600060ff8261112b8686611672565b028161113357fe5b06949350505050565b606061117a611175846102ac611152888a610abc565b61116f61115f888a610abc565b6111698d8d610abc565b90611679565b90610b71565b610624565b9695505050505050565b606061118f826116d2565b6111ab8360000151846020015185606001518660800151611d31565b6111c2846060015185608001518660a0015161205c565b6111e08560c001518660e001518761010001518861012001516121ac565b6112006111f1876101400151610624565b8760c001518860e0015161248f565b61121387610140015188604001516128a7565b6040516020018087805190602001908083835b602083106112455780518252601f199092019160209182019101611226565b51815160209384036101000a600019018019909216911617905289519190930192890191508083835b6020831061128d5780518252601f19909201916020918201910161126e565b51815160209384036101000a600019018019909216911617905288519190930192880191508083835b602083106112d55780518252601f1990920191602091820191016112b6565b51815160209384036101000a600019018019909216911617905287519190930192870191508083835b6020831061131d5780518252601f1990920191602091820191016112fe565b51815160209384036101000a600019018019909216911617905286519190930192860191508083835b602083106113655780518252601f199092019160209182019101611346565b51815160209384036101000a600019018019909216911617905285519190930192850191508083835b602083106113ad5780518252601f19909201916020918201910161138e565b5181516020939093036101000a6000190180199091169216919091179052651e17b9bb339f60d11b92019182525060408051808303601919018152600690920190529998505050505050505050565b6060600061140b85858561291f565b9050600061141e8283600160401b612a21565b9050600160601b821080156114535761144c826c47bf19673df52e37f2410011d1602c1b600160801b612a21565b9150611468565b61146582620186a0600160801b612a21565b91505b8160005b811561148057600101600a8204915061146c565b600019016000806114918684612ad0565b9150915080156114a2576001909201915b6114aa613760565b8515611517576114c96114c1602b60ff8716610abc565b600790610b19565b60ff9081166020830152600260808301526114ef906001906102ac90602b908816610abc565b60ff90811660a0830152602082015161150a91166001610abc565b60ff16604082015261158e565b60098460ff16106115605761153060ff85166004610abc565b60ff16602082018190526005608083015261154c906001610abc565b60ff1660a08201526004604082015261158e565b60066020820152600560408201819052611585906001906102ac9060ff881690610abc565b60ff1660608201525b82815285151560c0820152600060e08201526115a981610bd5565b9c9b505050505050505050505050565b60606000826002026001600160401b03811180156115d657600080fd5b506040519080825280601f01601f191660200182016040528015611601576020820181803683370190505b5080519091505b801561166a576f181899199a1a9b1b9c1cb0b131b232b360811b85600f166010811061163057fe5b1a60f81b82600183038151811061164357fe5b60200101906001600160f81b031916908160001a90535060049490941c9360001901611608565b509392505050565b1c60ff1690565b6000826116885750600061046b565b8282028284828161169557fe5b041461061d5760405162461bcd60e51b8152600401808060200182810382526021815260200180614d0f6021913960400191505060405180910390fd5b606061176782610160015160405160200180806148c96081913960810182805190602001908083835b6020831061171a5780518252601f1990920191602091820191016116fb565b6001836020036101000a038019825116818451168082178552505050505050905001806813979f1e17b9bb339f60b91b81525060090191505060405160208183030381529060405261096f565b6118c9836101e0015184610200015185610180015160405160200180806144066063913960630184805190602001908083835b602083106117b95780518252601f19909201916020918201910161179a565b51815160209384036101000a600019018019909216911617905265272063793d2760d01b919093019081528551600690910192860191508083835b602083106118135780518252601f1990920191602091820191016117f4565b51815160209384036101000a6000190180199092169116179052722720723d273132307078272066696c6c3d272360681b919093019081528451601390910192850191508083835b6020831061187a5780518252601f19909201916020918201910161185b565b6001836020036101000a038019825116818451168082178552505050505050905001806813979f1e17b9bb339f60b91b815250600901935050505060405160208183030381529060405261096f565b61191a846102200151856102400151866101a001516040516020018080614406606391396063018480519060200190808383602083106117b95780518252601f19909201916020918201910161179a565b611a2f856102600151866102800151876101c0015160405160200180806144066063913960630184805190602001908083835b6020831061196c5780518252601f19909201916020918201910161194d565b51815160209384036101000a600019018019909216911617905265272063793d2760d01b919093019081528551600690910192860191508083835b602083106119c65780518252601f1990920191602091820191016119a7565b51815160001960209485036101000a01908116901991909116179052722720723d273130307078272066696c6c3d272360681b93909101928352845160139093019290850191508083836020831061187a5780518252601f19909201916020918201910161185b565b6101608601516040516020018060566141818239605601602c614b308239651e3232b3399f60d11b602c820152603201604b61487e8239604b0186805190602001908083835b60208310611a945780518252601f199092019160209182019101611a75565b6001836020036101000a038019825116818451168082178552505050505050905001806153b6603e9139603e0185805190602001908083835b60208310611aec5780518252601f199092019160209182019101611acd565b6001836020036101000a0380198251168184511680821785525050505050509050018061494a603e9139603e0184805190602001908083835b60208310611b445780518252601f199092019160209182019101611b25565b5181516020939093036101000a6000190180199091169216919091179052631110179f60e11b920191825250600401603b6140798239603b0183805190602001908083835b60208310611ba85780518252601f199092019160209182019101611b89565b6001836020036101000a038019825116818451168082178552505050505050905001806144c660999139609901607f614f678239607f01608861532e8239608801604161455f8239604101605d6154ee8239605d01607261501382396072016049613fe2823960490160be6147c0823960be01607161429282396071016075614eaa823960750160666145a0823960660160a4614b5c823960a40160856153f482397f3c6720636c69702d706174683d2275726c2823636f726e65727329223e00000060858201526b1e3932b1ba103334b6361e9160a11b60a2820152825160ae9091019060208401908083835b60208310611cb55780518252601f199092019160209182019101611c96565b6001836020036101000a0380198251168184511680821785525050505050509050018061460660319139603101604e61402b8239604e01605d6144698239605d016041614aaf82396041016052614988823960520160756154798239607501955050505050506040516020818303038152906040529050919050565b60608382858488878a8960405160200180806155d160259139602501607d6147438239607d0189805190602001908083835b60208310611d825780518252601f199092019160209182019101611d63565b51815160209384036101000a600019018019909216911617905264010714051160dd1b919093019081528a516005909101928b0191508083835b60208310611ddb5780518252601f199092019160209182019101611dbc565b6001836020036101000a0380198251168184511680821785525050505050509050018061463760799139607901608661554b823960860187805190602001908083835b60208310611e3d5780518252601f199092019160209182019101611e1e565b51815160209384036101000a600019018019909216911617905264010714051160dd1b919093019081528851600590910192890191508083835b60208310611e965780518252601f199092019160209182019101611e77565b6001836020036101000a0380198251168184511680821785525050505050509050018061420d60859139608501607b61519c8239607b0185805190602001908083835b60208310611ef85780518252601f199092019160209182019101611ed9565b51815160209384036101000a600019018019909216911617905264010714051160dd1b919093019081528651600590910192870191508083835b60208310611f515780518252601f199092019160209182019101611f32565b6001836020036101000a03801982511681845116808217855250505050505090500180614357605d9139605d0160a3614e07823960a30183805190602001908083835b60208310611fb35780518252601f199092019160209182019101611f94565b51815160209384036101000a600019018019909216911617905264010714051160dd1b919093019081528451600590910192850191508083835b6020831061200c5780518252601f199092019160209182019101611fed565b6001836020036101000a03801982511681845116808217855250505050505090500180613f57608b9139608b01985050505050505050506040516020818303038152906040529050949350505050565b606083838360405160200180806140b460cd913960cd0184805190602001908083835b6020831061209e5780518252601f19909201916020918201910161207f565b6001836020036101000a03801982511681845116808217855250505050505090500180602f60f81b81525060010183805190602001908083835b602083106120f75780518252601f1990920191602091820191016120d8565b6001836020036101000a0380198251168184511680821785525050505050509050018061577a6077913960770182805190602001908083835b6020831061214f5780518252601f199092019160209182019101612130565b5181516020939093036101000a60001901801990911692169190911790526a1e17ba32bc3a1f1e17b39f60a91b920191825250600b01607361561a8239607301935050505060405160208183030381529060405290509392505050565b606060008260000b600114612213578260000b600019146121ea5760405180604001604052806005815260200164236e6f6e6560d81b81525061220e565b6040518060400160405280600a81526020016911b330b23296b237bbb760b11b8152505b612235565b60405180604001604052806008815260200167023666164652d75760c41b8152505b90506000612244878787612b41565b90508181838361225388612d6f565b60405160200180806c078ce40dac2e6d67a44eae4d85609b1b815250600d0186805190602001908083835b6020831061229d5780518252601f19909201916020918201910161227e565b5181516020939093036101000a600019018019909116921691909117905261149160f11b9201918252506002016077614c00823960770185805190602001908083835b602083106122ff5780518252601f1990920191602091820191016122e0565b6001836020036101000a038019825116818451168082178552505050505050905001806143036054913960540180700785ece7c78ce40dac2e6d67a44eae4d85607b1b81525060110184805190602001908083835b602083106123735780518252601f199092019160209182019101612354565b5181516020939093036101000a600019018019909116921691909117905261149160f11b9201918252506002016029614c7782396029016045614cca823960450180681e3830ba3410321e9160b91b81525060090183805190602001908083835b602083106123f35780518252601f1990920191602091820191016123d4565b6001836020036101000a03801982511681845116808217855250505050505090500180614f1f6048913960480182805190602001908083835b6020831061244b5780518252601f19909201916020918201910161242c565b6001836020036101000a0380198251168184511680821785525050505050509050019550505050505060405160208183030381529060405292505050949350505050565b6060600061249c846131d6565b905060006124a9846131d6565b865183518251929350600490910191600a91820191016000806124cc8a8a6132e0565b915091506124df85600401600702610624565b8b6124ef86600401600702610624565b896124ff87600401600702610624565b8a87876040516020018080614fe6602d9139602d01806c1e3932b1ba103bb4b23a341e9160991b815250600d0189805190602001908083835b602083106125575780518252601f199092019160209182019101612538565b6001836020036101000a038019825116818451168082178552505050505050905001806149da603d9139603d01608d61568d8239608d0188805190602001908083835b602083106125b95780518252601f19909201916020918201910161259a565b5181516020939093036101000a60001901801990911692169190911790526a1e17ba32bc3a1f1e17b39f60a91b920191825250600b01602d6158298239602d01806c1e3932b1ba103bb4b23a341e9160991b815250600d0187805190602001908083835b6020831061263c5780518252601f19909201916020918201910161261d565b6001836020036101000a038019825116818451168082178552505050505050905001806149da603d9139603d0160936146b0823960930186805190602001908083835b6020831061269e5780518252601f19909201916020918201910161267f565b5181516020939093036101000a60001901801990911692169190911790526a1e17ba32bc3a1f1e17b39f60a91b920191825250600b01602d6143b48239602d01806c1e3932b1ba103bb4b23a341e9160991b815250600d0185805190602001908083835b602083106127215780518252601f199092019160209182019101612702565b6001836020036101000a038019825116818451168082178552505050505050905001806149da603d9139603d016093615217823960930184805190602001908083835b602083106127835780518252601f199092019160209182019101612764565b6001836020036101000a038019825116818451168082178552505050505050905001806157f160389139603801606061571a82396060016064614da3823960640160256143e1823960250183805190602001908083835b602083106127f95780518252601f1990920191602091820191016127da565b51815160209384036101000a6000190180199092169116179052630383c16160e51b919093019081528451600490910192850191508083835b602083106128515780518252601f199092019160209182019101612832565b6001836020036101000a038019825116818451168082178552505050505050905001806141d760369139603601985050505050505050506040516020818303038152906040529750505050505050509392505050565b60606128b383836135ec565b156129095760405160200180608d61510f8239608d016073614d3082396073016071614a3e8239607101608a6150858239608a0160846152aa82396084019050604051602081830303815290604052905061046b565b5060408051602081019091526000815292915050565b60008061293a61293560ff86811690861661364a565b6136af565b905060008111801561294d575060128111155b15612a0e578260ff168460ff1611156129b75761298161296e826002610b71565b6001600160a01b03871690600a0a611679565b915060028106600114156129b2576129af827003298b075b4b6a5240945790619b37fd4a600160801b612a21565b91505b612a09565b6129d86129c5826002610b71565b6001600160a01b03871690600a0a610b71565b91506002810660011415612a0957612a0682600160801b7003298b075b4b6a5240945790619b37fd4a612a21565b91505b61166a565b50506001600160a01b0390921692915050565b6000808060001985870986860292508281109083900303905080612a575760008411612a4c57600080fd5b50829004905061061d565b808411612a6357600080fd5b6000848688096000868103871696879004966002600389028118808a02820302808a02820302808a02820302808a02820302808a02820302808a02909103029181900381900460010186841190950394909402919094039290920491909117919091029150509392505050565b600080600060058460ff161115612af857612af58560ff600419870116600a0a610b71565b94505b60006004600a8706119050612b0e86600a610b71565b95508015612b1d578560010195505b85620186a01415612b3357600a86049550600191505b5084925090505b9250929050565b606060008260020b85850360020b81612b5657fe5b05905060048160020b13612b9e576040518060400160405280601a8152602001794d3120314334312034312031303520313035203134352031343560301b815250915061166a565b60088160020b13612be257604051806040016040528060198152602001784d31203143333320343920393720313133203134352031343560381b815250915061166a565b60108160020b13612c2657604051806040016040528060198152602001784d31203143333320353720383920313133203134352031343560381b815250915061166a565b60208160020b13612c6a57604051806040016040528060198152602001784d31203143323520363520383120313231203134352031343560381b815250915061166a565b60408160020b13612cae57604051806040016040528060198152602001784d31203143313720373320373320313239203134352031343560381b815250915061166a565b60808160020b13612cf157604051806040016040528060188152602001774d312031433920383120363520313337203134352031343560401b815250915061166a565b6101008160020b13612d37576040518060400160405280601a8152602001794d31203143312038392035372e3520313435203134352031343560301b815250915061166a565b50506040805180820190915260188152774d312031433120393720343920313435203134352031343560401b60208201529392505050565b6040805180820182526002815261373360f01b6020808301919091528251808401845260038082526203139360ec1b82840152845180860186528181526232313760e81b818501528551808701909652908552620ccccd60ea1b928501929092526060939091906001600087900b1480612ded57508560000b600019145b15612fe4578560000b60001914612e045781612e06565b835b8660000b60001914612e185781612e1a565b835b8760000b60001914612e2c5783612e2e565b855b8860000b60001914612e405783612e42565b855b60405160200180806b1e31b4b931b6329031bc1e9160a11b815250600c0185805190602001908083835b60208310612e8b5780518252601f199092019160209182019101612e6c565b51815160209384036101000a600019018019909216911617905267383c111031bc9e9160c11b919093019081528651600890910192870191508083835b60208310612ee75780518252601f199092019160209182019101612ec8565b6001836020036101000a03801982511681845116808217855250505050505090500180614a176027913960270183805190602001908083835b60208310612f3f5780518252601f199092019160209182019101612f20565b51815160209384036101000a600019018019909216911617905267383c111031bc9e9160c11b919093019081528451600890910192850191508083835b60208310612f9b5780518252601f199092019160209182019101612f7c565b6001836020036101000a03801982511681845116808217855250505050505090500180614ca0602a9139602a0194505050505060405160208183030381529060405294506131cd565b8383838360405160200180806b1e31b4b931b6329031bc1e9160a11b815250600c0185805190602001908083835b602083106130315780518252601f199092019160209182019101613012565b51815160209384036101000a600019018019909216911617905267383c111031bc9e9160c11b919093019081528651600890910192870191508083835b6020831061308d5780518252601f19909201916020918201910161306e565b51815160209384036101000a60001901801990921691161790527a383c1110391e911a383c11103334b6361e913bb434ba329110179f60291b919093019081526b1e31b4b931b6329031bc1e9160a11b601b8201528551602790910192860191508083835b602083106131115780518252601f1990920191602091820191016130f2565b51815160209384036101000a600019018019909216911617905267383c111031bc9e9160c11b919093019081528451600890910192850191508083835b6020831061316d5780518252601f19909201916020918201910161314e565b6001836020036101000a038019825116818451168082178552505050505050905001807a383c1110391e911a383c11103334b6361e913bb434ba329110179f60291b815250601b0194505050505060405160208183030381529060405294505b50505050919050565b6060600060405180602001604052806000815250905060008360020b121561321c5782600019029250604051806040016040528060018152602001602d60f81b81525090505b806132298460020b610624565b6040516020018083805190602001908083835b6020831061325b5780518252601f19909201916020918201910161323c565b51815160209384036101000a600019018019909216911617905285519190930192850191508083835b602083106132a35780518252601f199092019160209182019101613284565b6001836020036101000a03801982511681845116808217855250505050505090500192505050604051602081830303815290604052915050919050565b60608060006002858501810b0590506201e847198160020b121561333c57604051806040016040528060018152602001600760fb1b815250604051806040016040528060018152602001603760f81b8152509250925050612b3a565b620124f7198160020b121561338c57604051806040016040528060018152602001600760fb1b8152506040518060400160405280600481526020016331302e3560e01b8152509250925050612b3a565b6161a7198160020b12156133dc57604051806040016040528060018152602001600760fb1b8152506040518060400160405280600581526020016431342e323560d81b8152509250925050612b3a565b611387198160020b121561342a5760405180604001604052806002815260200161031360f41b81525060405180604001604052806002815260200161062760f31b8152509250925050612b3a565b60008160020b12156134765760405180604001604052806002815260200161313160f01b81525060405180604001604052806002815260200161323160f01b8152509250925050612b3a565b6113888160020b12156134c35760405180604001604052806002815260200161313360f01b81525060405180604001604052806002815260200161323360f01b8152509250925050612b3a565b6161a88160020b12156135105760405180604001604052806002815260200161313560f01b81525060405180604001604052806002815260200161323560f01b8152509250925050612b3a565b620124f88160020b121561355e5760405180604001604052806002815260200161062760f31b81525060405180604001604052806002815260200161191b60f11b8152509250925050612b3a565b6201e8488160020b12156135ac5760405180604001604052806002815260200161323160f01b81525060405180604001604052806002815260200161323760f01b8152509250925050612b3a565b604051806040016040528060028152602001610c8d60f21b81525060405180604001604052806002815260200161323760f01b8152509250925050612b3a565b6040805160208082018590526001600160601b0319606085901b1682840152825160348184030181526054909201909252805191012060009061362e846136c6565b60020260010160ff166000198161364157fe5b04119392505050565b600081830381831280159061365f5750838113155b80613674575060008312801561367457508381135b61061d5760405162461bcd60e51b81526004018080602001828103825260248152602001806155f66024913960400191505060405180910390fd5b6000808212156136c2578160000361046b565b5090565b60008082116136d457600080fd5b600160801b82106136e757608091821c91015b600160401b82106136fa57604091821c91015b600160201b821061370d57602091821c91015b62010000821061371f57601091821c91015b610100821061373057600891821c91015b6010821061374057600491821c91015b6004821061375057600291821c91015b6002821061016b57600101919050565b6040805161010081018252600080825260208201819052918101829052606081018290526080810182905260a0810182905260c0810182905260e081019190915290565b803561016b81613f3e565b8035801515811461016b57600080fd5b8035600281900b811461016b57600080fd5b600082601f8301126137e1578081fd5b81356001600160401b038111156137f457fe5b613807601f8201601f1916602001613eeb565b81815284602083860101111561381b578283fd5b816020850160208301379081016020019190915292915050565b803562ffffff8116811461016b57600080fd5b803560ff8116811461016b57600080fd5b60006020828403121561386a578081fd5b81356001600160401b0380821115613880578283fd5b81840191506101c0808387031215613896578384fd5b61389f81613eeb565b9050823581526138b1602084016137a4565b60208201526138c2604084016137a4565b60408201526060830135828111156138d8578485fd5b6138e4878286016137d1565b6060830152506080830135828111156138fb578485fd5b613907878286016137d1565b60808301525061391960a08401613848565b60a082015261392a60c08401613848565b60c082015261393b60e084016137af565b60e082015261010091506139508284016137bf565b8282015261012091506139648284016137bf565b8282015261014091506139788284016137bf565b82820152610160915061398c8284016137bf565b8282015261018091506139a0828401613835565b828201526101a091506139b48284016137a4565b91810191909152949350505050565b6000602082840312156139d4578081fd5b815161061d81613f3e565b600081516139f1818560208601613f0e565b9290920192915050565b7fe29aa0efb88f20444953434c41494d45523a204475652064696c6967656e636581527f20697320696d7065726174697665207768656e20617373657373696e6720746860208201527f6973204e46542e204d616b65207375726520746f6b656e20616464726573736560408201527f73206d617463682074686520657870656374656420746f6b656e732c2061732060608201527f746f6b656e2073796d626f6c73206d617920626520696d6974617465642e00006080820152609e0190565b632e372e3760e11b815260040190565b60007f54686973204e465420726570726573656e74732061206c69717569646974792082527803837b9b4ba34b7b71034b71030902ab734b9bbb0b8102b199603d1b60208301528551613b26816039850160208a01613f0e565b602d60f81b6039918401918201528551613b4781603a840160208a01613f0e565b660103837b7b617160cd1b603a92909101918201527f546865206f776e6572206f662074686973204e46542063616e206d6f646966796041820152791037b9103932b232b2b6903a3432903837b9b4ba34b7b7172e3760311b60618201526f02e372837b7b61020b2323932b9b99d160851b607b8201528451613bd181608b840160208901613f0e565b612e3760f11b608b92909101918201526103ab608d8201856139df565b683d913730b6b2911d1160b91b81528451600090613c13816009850160208a01613f0e565b71111610113232b9b1b934b83a34b7b7111d1160711b6009918401918201528551613c4581601b840160208a01613f0e565b8551910190613c5b81601b840160208901613f0e565b6c1116101134b6b0b3b2911d101160991b601b92909101918201527919185d184e9a5b5859d94bdcdd99cade1b5b0ed8985cd94d8d0b60321b60288201528351613cac816042840160208801613f0e565b61227d60f01b604292909101918201526044019695505050505050565b60006902ab734b9bbb0b81016960b51b82528651613cee81600a850160208b01613f0e565b80830190506201016960ed1b80600a8301528751613d1381600d850160208c01613f0e565b602f60f81b600d93909101928301528651613d3581600e850160208b01613f0e565b600e9201918201528451613d50816011840160208901613f0e565b611e1f60f11b601192909101918201528351613d73816013840160208801613f0e565b01601301979650505050505050565b60006901020b2323932b9b99d160b51b8083528751613da881600a860160208c01613f0e565b612e3760f11b600a918501918201528751613dca81600c840160208c01613f0e565b01600c810191909152855190613de7826016830160208a01613f0e565b8181019150506b02e372332b2902a34b2b91d160a51b60168201528451613e15816022840160208901613f0e565b6b02e372a37b5b2b71024a21d160a51b602292909101918201528351613e4281602e840160208801613f0e565b613e58613e53602e83850101613abc565b6139fb565b9998505050505050505050565b60007f646174613a6170706c69636174696f6e2f6a736f6e3b6261736536342c00000082528251613e9d81601d850160208701613f0e565b91909101601d0192915050565b60029190910b815260200190565b6000602082528251806020840152613ed7816040850160208701613f0e565b601f01601f19169190910160400192915050565b6040518181016001600160401b0381118282101715613f0657fe5b604052919050565b60005b83811015613f29578181015183820152602001613f11565b83811115613f38576000848401525b50505050565b6001600160a01b0381168114613f5357600080fd5b5056fe203c616e696d6174652061646469746976653d2273756d22206174747269627574654e616d653d2273746172744f6666736574222066726f6d3d2230252220746f3d22313030252220626567696e3d22307322206475723d223330732220726570656174436f756e743d22696e646566696e69746522202f3e3c2f74657874506174683e3c2f746578743e3c73746f70206f66667365743d222e39222073746f702d636f6c6f723d227768697465222073746f702d6f7061636974793d223022202f3e3c2f6c696e6561724772616469656e743e3c72656374207374796c653d2266696c7465723a2075726c28236631292220783d223070782220793d22307078222077696474683d22323930707822206865696768743d22353030707822202f3e3c6665496d61676520726573756c743d2270332220786c696e6b3a687265663d22646174613a696d6167652f7376672b786d6c3b6261736536342c3c67206d61736b3d2275726c2823666164652d73796d626f6c29223e3c726563742066696c6c3d226e6f6e652220783d223070782220793d22307078222077696474683d22323930707822206865696768743d22323030707822202f3e203c7465787420793d22373070782220783d2233327078222066696c6c3d2277686974652220666f6e742d66616d696c793d2227436f7572696572204e6577272c206d6f6e6f73706163652220666f6e742d7765696768743d223230302220666f6e742d73697a653d2233367078223e3c7376672077696474683d2232393022206865696768743d22353030222076696577426f783d2230203020323930203530302220786d6c6e733d22687474703a2f2f7777772e77332e6f72672f323030302f7376672270782c2030707829222063783d22307078222063793d223070782220723d22347078222066696c6c3d227768697465222f3e3c2f673e203c616e696d6174652061646469746976653d2273756d22206174747269627574654e616d653d2273746172744f6666736574222066726f6d3d2230252220746f3d22313030252220626567696e3d22307322206475723d223330732220726570656174436f756e743d22696e646566696e69746522202f3e203c2f74657874506174683e3c6d61736b2069643d22666164652d757022206d61736b436f6e74656e74556e6974733d226f626a656374426f756e64696e67426f78223e3c726563742077696474683d223122206865696768743d2231222066696c6c3d2275726c2823677261642d75702922202f3e3c2f6d61736b3e22207374726f6b653d227267626128302c302c302c302e332922207374726f6b652d77696474683d2233327078222066696c6c3d226e6f6e6522207374726f6b652d6c696e656361703d22726f756e6422202f3e203c616e696d6174652061646469746976653d2273756d22206174747269627574654e616d653d2273746172744f6666736574222066726f6d3d2230252220746f3d22313030252220626567696e3d22307322206475723d2233307322203c67207374796c653d227472616e73666f726d3a7472616e736c61746528323970782c20343434707829223e3c636972636c65207374796c653d227472616e73666f726d3a7472616e736c6174653364283c7376672077696474683d2732393027206865696768743d27353030272076696577426f783d2730203020323930203530302720786d6c6e733d27687474703a2f2f7777772e77332e6f72672f323030302f737667273e3c636972636c652063783d27203c67207374796c653d2266696c7465723a75726c2823746f702d726567696f6e2d626c7572293b207472616e73666f726d3a7363616c6528312e35293b207472616e73666f726d2d6f726967696e3a63656e74657220746f703b223e22202f3e3c6665426c656e64206d6f64653d226f7665726c61792220696e3d2270302220696e323d22703122202f3e3c6665426c656e64206d6f64653d226578636c7573696f6e2220696e323d22703222202f3e3c6665426c656e64206d6f64653d226f7665726c61792220696e323d2270332220726573756c743d22626c656e644f757422202f3e3c6665476175737369616e426c7572203c706174682069643d226d696e696d61702220643d224d3233342034343443323334203435372e393439203234322e323120343633203235332034363322202f3e3c6d61736b2069643d226e6f6e6522206d61736b436f6e74656e74556e6974733d226f626a656374426f756e64696e67426f78223e3c726563742077696474683d223122206865696768743d2231222066696c6c3d22776869746522202f3e3c2f6d61736b3e2220783d223070782220793d22307078222077696474683d22323930707822206865696768743d22353030707822202f3e203c616e696d6174652061646469746976653d2273756d22206174747269627574654e616d653d2273746172744f6666736574222066726f6d3d2230252220746f3d22313030252220626567696e3d22307322206475723d223330732220726570656174436f756e743d22696e646566696e69746522202f3e3c7465787420783d22313270782220793d22313770782220666f6e742d66616d696c793d2227436f7572696572204e6577272c206d6f6e6f73706163652220666f6e742d73697a653d2231327078222066696c6c3d227768697465223e3c747370616e2066696c6c3d2272676261283235352c3235352c3235352c302e3629223e4d696e205469636b3a203c2f747370616e3e3c74657874506174682073746172744f66667365743d222d31303025222066696c6c3d2277686974652220666f6e742d66616d696c793d2227436f7572696572204e6577272c206d6f6e6f73706163652220666f6e742d73697a653d22313070782220786c696e6b3a687265663d2223746578742d706174682d61223e3c6c696e6561724772616469656e742069643d22677261642d646f776e222078313d2230222078323d2231222079313d2230222079323d2231223e3c73746f70206f66667365743d22302e30222073746f702d636f6c6f723d227768697465222073746f702d6f7061636974793d223122202f3e3c73746f70206f66667365743d22302e39222073746f702d636f6c6f723d227768697465222073746f702d6f7061636974793d223022202f3e3c2f6c696e6561724772616469656e743e3c66696c7465722069643d226631223e3c6665496d61676520726573756c743d2270302220786c696e6b3a687265663d22646174613a696d6167652f7376672b786d6c3b6261736536342c3c7376672077696474683d2732393027206865696768743d27353030272076696577426f783d2730203020323930203530302720786d6c6e733d27687474703a2f2f7777772e77332e6f72672f323030302f737667273e3c726563742077696474683d27323930707827206865696768743d273530307078272066696c6c3d2723222f3e3c6665496d61676520726573756c743d2270322220786c696e6b3a687265663d22646174613a696d6167652f7376672b786d6c3b6261736536342c3c656c6c697073652063783d22353025222063793d22307078222072783d223138307078222072793d223132307078222066696c6c3d222330303022206f7061636974793d22302e383522202f3e3c2f673e707822206865696768743d2232367078222072783d22387078222072793d22387078222066696c6c3d227267626128302c302c302c302e362922202f3e70782220723d22347078222066696c6c3d22776869746522202f3e3c636972636c652063783d2231312e333437384c32342031324c31342e343334312031322e363532324c32322e333932332031384c31332e373831392031332e373831394c31382032322e333932334c31322e363532322031342e343334314c31322032344c31312e333437382031342e343334314c362032322e33393c726563742066696c6c3d226e6f6e652220783d223070782220793d22307078222077696474683d22323930707822206865696768743d22353030707822202f3e4142434445464748494a4b4c4d4e4f505152535455565758595a6162636465666768696a6b6c6d6e6f707172737475767778797a303132333435363738392b2f20786d6c6e733a786c696e6b3d27687474703a2f2f7777772e77332e6f72672f313939392f786c696e6b273e3c6c696e6561724772616469656e742069643d22677261642d73796d626f6c223e3c73746f70206f66667365743d22302e37222073746f702d636f6c6f723d227768697465222073746f702d6f7061636974793d223122202f3e3c73746f70206f66667365743d222e3935222073746f702d636f6c6f723d227768697465222073746f702d6f7061636974793d223022202f3e3c2f6c696e6561724772616469656e743e207374796c653d227472616e73666f726d3a7472616e736c61746528373270782c313839707829223e3c7265637420783d222d313670782220793d222d31367078222077696474683d22313830707822206865696768743d223138307078222066696c6c3d226e6f6e6522202f3e3c7061746820643d22207374796c653d227472616e73666f726d3a7472616e736c61746528373270782c313839707829223e70782220723d2232347078222066696c6c3d226e6f6e6522207374726f6b653d22776869746522202f3e3c7265637420783d222d313670782220793d222d31367078222077696474683d22313830707822206865696768743d223138307078222066696c6c3d226e6f6e6522202f3e536166654d6174683a206d756c7469706c69636174696f6e206f766572666c6f773c673e3c70617468207374796c653d227472616e73666f726d3a7472616e736c617465283670782c367078292220643d224d313220304c31322e3635323220392e35363538374c313820312e363037374c31332e373831392031302e323138314c32322e3339323320364c31342e34333431203c70617468207374726f6b652d6c696e656361703d22726f756e642220643d224d38203943382e30303030342032322e393439342031362e32303939203238203237203238222066696c6c3d226e6f6e6522207374726f6b653d22776869746522202f3e20726570656174436f756e743d22696e646566696e69746522202f3e3c2f74657874506174683e3c74657874506174682073746172744f66667365743d222d353025222066696c6c3d2277686974652220666f6e742d66616d696c793d2227436f7572696572204e6577272c206d6f6e6f73706163652220666f6e742d73697a653d22313070782220786c696e6b3a687265663d2223746578742d706174682d61223e3c6d61736b2069643d22666164652d646f776e22206d61736b436f6e74656e74556e6974733d226f626a656374426f756e64696e67426f78223e3c726563742077696474683d223122206865696768743d2231222066696c6c3d2275726c2823677261642d646f776e2922202f3e3c2f6d61736b3e22207374726f6b653d2272676261283235352c3235352c3235352c3129222066696c6c3d226e6f6e6522207374726f6b652d6c696e656361703d22726f756e6422202f3e3c2f673e696e3d22626c656e644f75742220737464446576696174696f6e3d22343222202f3e3c2f66696c7465723e203c636c6970506174682069643d22636f726e657273223e3c726563742077696474683d2232393022206865696768743d22353030222072783d223432222072793d22343222202f3e3c2f636c6970506174683e203c67207374796c653d227472616e73666f726d3a7472616e736c61746528323970782c20333834707829223e3c6c696e6561724772616469656e742069643d22677261642d7570222078313d2231222078323d2230222079313d2231222079323d2230223e3c73746f70206f66667365743d22302e30222073746f702d636f6c6f723d227768697465222073746f702d6f7061636974793d223122202f3e32334c31302e323138312031332e373831394c312e363037372031384c392e35363538372031322e363532324c302031324c392e35363538372031312e333437384c312e3630373720364c31302e323138312031302e323138314c3620312e363037374c31312e3334373820392e35363538374c313220305a222066696c6c3d22776869746522202f3e3c67207374796c653d227472616e73666f726d3a7472616e736c6174652832323670782c20333932707829223e3c726563742077696474683d223336707822206865696768743d2233367078222072783d22387078222072793d22387078222066696c6c3d226e6f6e6522207374726f6b653d2272676261283235352c3235352c3235352c302e322922202f3e3c74657874506174682073746172744f66667365743d22353025222066696c6c3d2277686974652220666f6e742d66616d696c793d2227436f7572696572204e6577272c206d6f6e6f73706163652220666f6e742d73697a653d22313070782220786c696e6b3a687265663d2223746578742d706174682d61223e3c7465787420783d22313270782220793d22313770782220666f6e742d66616d696c793d2227436f7572696572204e6577272c206d6f6e6f73706163652220666f6e742d73697a653d2231327078222066696c6c3d227768697465223e3c747370616e2066696c6c3d2272676261283235352c3235352c3235352c302e3629223e4d6178205469636b3a203c2f747370616e3e3c616e696d6174655472616e73666f726d206174747269627574654e616d653d227472616e73666f726d2220747970653d22726f74617465222066726f6d3d22302031382031382220746f3d2233363020313820313822206475723d223130732220726570656174436f756e743d22696e646566696e697465222f3e3c2f673e3c2f673e3c706174682069643d22746578742d706174682d612220643d224d34302031322048323530204132382032382030203020312032373820343020563436302041323820323820302030203120323530203438382048343020413238203238203020302031203132203436302056343020413238203238203020302031203430203132207a22202f3e222f3e3c6665496d61676520726573756c743d2270312220786c696e6b3a687265663d22646174613a696d6167652f7376672b786d6c3b6261736536342c3c6d61736b2069643d22666164652d73796d626f6c22206d61736b436f6e74656e74556e6974733d227573657253706163654f6e557365223e3c726563742077696474683d22323930707822206865696768743d223230307078222066696c6c3d2275726c2823677261642d73796d626f6c2922202f3e3c2f6d61736b3e3c2f646566733e3c7265637420783d22302220793d2230222077696474683d2232393022206865696768743d22353030222072783d223432222072793d223432222066696c6c3d227267626128302c302c302c302922207374726f6b653d2272676261283235352c3235352c3235352c302e322922202f3e3c2f673e3c66696c7465722069643d22746f702d726567696f6e2d626c7572223e3c6665476175737369616e426c757220696e3d22536f75726365477261706869632220737464446576696174696f6e3d22323422202f3e3c2f66696c7465723e3c2f74657874506174683e203c74657874506174682073746172744f66667365743d223025222066696c6c3d2277686974652220666f6e742d66616d696c793d2227436f7572696572204e6577272c206d6f6e6f73706163652220666f6e742d73697a653d22313070782220786c696e6b3a687265663d2223746578742d706174682d61223e3c7465787420746578742d72656e646572696e673d226f7074696d697a655370656564223e5369676e6564536166654d6174683a207375627472616374696f6e206f766572666c6f773c7265637420783d2231362220793d223136222077696474683d2232353822206865696768743d22343638222072783d223236222072793d223236222066696c6c3d227267626128302c302c302c302922207374726f6b653d2272676261283235352c3235352c3235352c302e322922202f3e3c7465787420783d22313270782220793d22313770782220666f6e742d66616d696c793d2227436f7572696572204e6577272c206d6f6e6f73706163652220666f6e742d73697a653d2231327078222066696c6c3d227768697465223e3c747370616e2066696c6c3d2272676261283235352c3235352c3235352c302e3629223e49443a203c2f747370616e3e3c726563742077696474683d223336707822206865696768743d2233367078222072783d22387078222072793d22387078222066696c6c3d226e6f6e6522207374726f6b653d2272676261283235352c3235352c3235352c302e322922202f3e3c2f746578743e3c7465787420793d2231313570782220783d2233327078222066696c6c3d2277686974652220666f6e742d66616d696c793d2227436f7572696572204e6577272c206d6f6e6f73706163652220666f6e742d7765696768743d223230302220666f6e742d73697a653d2233367078223e3c2f746578743e3c2f673e3c67207374796c653d227472616e73666f726d3a7472616e736c6174652832323670782c20343333707829223e203c67207374796c653d227472616e73666f726d3a7472616e736c61746528323970782c20343134707829223ea164736f6c6343000706000a",
  "linkReferences": {
    "@uniswap/v3-core-optimism/contracts/libraries/TickMath.sol": {
      "TickMath": [
        {
          "length": 20,
          "start": 3825
        }
      ]
    }
  },
  "deployedLinkReferences": {
    "@uniswap/v3-core-optimism/contracts/libraries/TickMath.sol": {
      "TickMath": [
        {
          "length": 20,
          "start": 3787
        }
      ]
    }
  }
}