{
  "_format": "hh-sol-artifact-1",
  "contractName": "TickLens",
  "sourceName": "contracts/lens/TickLens.sol",
  "abi": [
    {
      "inputs": [
        {
          "internalType": "address",
          "name": "pool",
          "type": "address"
        },
        {
          "internalType": "int16",
          "name": "tickBitmapIndex",
          "type": "int16"
        },
        {
          "internalType": "uint256",
          "name": "wordStart",
          "type": "uint256"
        },
        {
          "internalType": "uint256",
          "name": "wordEnd",
          "type": "uint256"
        }
      ],
      "name": "getPopulatedTicksInPartialWord",
      "outputs": [
        {
          "components": [
            {
              "internalType": "int24",
              "name": "tick",
              "type": "int24"
            },
            {
              "internalType": "int128",
              "name": "liquidityNet",
              "type": "int128"
            },
            {
              "internalType": "uint128",
              "name": "liquidityGross",
              "type": "uint128"
            }
          ],
          "internalType": "struct ITickLens.PopulatedTick[]",
          "name": "populatedTicks",
          "type": "tuple[]"
        }
      ],
      "stateMutability": "view",
      "type": "function"
    },
    {
      "inputs": [
        {
          "internalType": "address",
          "name": "pool",
          "type": "address"
        },
        {
          "internalType": "int16",
          "name": "tickBitmapIndex",
          "type": "int16"
        }
      ],
      "name": "getPopulatedTicksInWord",
      "outputs": [
        {
          "components": [
            {
              "internalType": "int24",
              "name": "tick",
              "type": "int24"
            },
            {
              "internalType": "int128",
              "name": "liquidityNet",
              "type": "int128"
            },
            {
              "internalType": "uint128",
              "name": "liquidityGross",
              "type": "uint128"
            }
          ],
          "internalType": "struct ITickLens.PopulatedTick[]",
          "name": "populatedTicks",
          "type": "tuple[]"
        }
      ],
      "stateMutability": "view",
      "type": "function"
    }
  ],
  "bytecode": "0x608060405234801561001057600080fd5b506105d1806100206000396000f3fe608060405234801561001057600080fd5b50600436106100365760003560e01c8063351fb4781461003b5780634a8a632d14610064575b600080fd5b61004e6100493660046103ae565b610077565b60405161005b9190610505565b60405180910390f35b61004e6100723660046103e2565b61008f565b60606100888383600061010061008f565b9392505050565b606081831080156100a257506101008211155b6100c75760405162461bcd60e51b81526004016100be90610589565b60405180910390fd5b60405163299ce14b60e11b81526000906001600160a01b03871690635339c296906100f690889060040161056d565b60206040518083038186803b15801561010e57600080fd5b505afa158015610122573d6000803e3d6000fd5b505050506040513d601f19601f8201168201806040525081019061014691906104ed565b90506000845b8481101561016e576001811b831615610166576001909101905b60010161014c565b506000876001600160a01b031663d0c93a7c6040518163ffffffff1660e01b815260040160206040518083038186803b1580156101aa57600080fd5b505afa1580156101be573d6000803e3d6000fd5b505050506040513d601f19601f820116820180604052508101906101e29190610425565b9050816001600160401b03811180156101fa57600080fd5b5060405190808252806020026020018201604052801561023457816020015b610221610348565b8152602001906001900390816102195790505b509350855b8581101561033c576001811b8416156103345760405163f30dba9360e01b8152600189900b60020b60081b820183029060009081906001600160a01b038d169063f30dba939061028d90869060040161057b565b6101006040518083038186803b1580156102a657600080fd5b505afa1580156102ba573d6000803e3d6000fd5b505050506040513d601f19601f820116820180604052508101906102de9190610446565b5050505050509150915060405180606001604052808460020b815260200182600f0b8152602001836001600160801b03168152508887600190039750878151811061032557fe5b60200260200101819052505050505b600101610239565b50505050949350505050565b604080516060810182526000808252602082018190529181019190915290565b8051801515811461037857600080fd5b919050565b8035600181900b811461037857600080fd5b8051610378816105ac565b805163ffffffff8116811461037857600080fd5b600080604083850312156103c0578182fd5b82356103cb816105ac565b91506103d96020840161037d565b90509250929050565b600080600080608085870312156103f7578182fd5b8435610402816105ac565b93506104106020860161037d565b93969395505050506040820135916060013590565b600060208284031215610436578081fd5b81518060020b8114610088578182fd5b600080600080600080600080610100898b031215610462578384fd5b88516001600160801b0381168114610478578485fd5b80985050602089015180600f0b811461048f578485fd5b80975050604089015195506060890151945060808901518060060b81146104b4578485fd5b93506104c260a08a0161038f565b92506104d060c08a0161039a565b91506104de60e08a01610368565b90509295985092959890939650565b6000602082840312156104fe578081fd5b5051919050565b602080825282518282018190526000919060409081850190868401855b82811015610560578151805160020b855286810151600f0b878601528501516001600160801b03168585015260609093019290850190600101610522565b5091979650505050505050565b60019190910b815260200190565b60029190910b815260200190565b6020808252600990820152684261642072616e676560b81b604082015260600190565b6001600160a01b03811681146105c157600080fd5b5056fea164736f6c6343000706000a",
  "linkReferences": {},
  "deployedLinkReferences": {}
}