{
  "_format": "hh-sol-artifact-1",
  "contractName": "SwapMath",
  "sourceName": "contracts/libraries/SwapMath.sol",
  "abi": [
    {
      "inputs": [
        {
          "internalType": "uint160",
          "name": "sqrtRatioCurrentX96",
          "type": "uint160"
        },
        {
          "internalType": "uint160",
          "name": "sqrtRatioTargetX96",
          "type": "uint160"
        },
        {
          "internalType": "uint128",
          "name": "liquidity",
          "type": "uint128"
        },
        {
          "internalType": "int256",
          "name": "amountRemaining",
          "type": "int256"
        },
        {
          "internalType": "uint24",
          "name": "feePips",
          "type": "uint24"
        }
      ],
      "name": "computeSwapStep",
      "outputs": [
        {
          "internalType": "uint160",
          "name": "sqrtRatioNextX96",
          "type": "uint160"
        },
        {
          "internalType": "uint256",
          "name": "amountIn",
          "type": "uint256"
        },
        {
          "internalType": "uint256",
          "name": "amountOut",
          "type": "uint256"
        },
        {
          "internalType": "uint256",
          "name": "feeAmount",
          "type": "uint256"
        }
      ],
      "stateMutability": "pure",
      "type": "function"
    }
  ],
  "bytecode": "0x610762610026600b82828239805160001a60731461001957fe5b30600052607381538281f3fe73000000000000000000000000000000000000000030146080604052600436106100355760003560e01c8063100d3f741461003a575b600080fd5b61008b600480360360a081101561005057600080fd5b5080356001600160a01b039081169160208101359091169060408101356001600160801b0316906060810135906080013562ffffff166100bb565b604080516001600160a01b0390951685526020850193909352838301919091526060830152519081900360800190f35b60008080806001600160a01b03808916908a1610158187128015906101405760006100f48989620f42400362ffffff16620f42406102ad565b90508261010d576101088c8c8c600161035d565b61011a565b61011a8b8d8c60016103d8565b955085811061012b578a965061013a565b6101378c8b8386610483565b96505b5061018a565b81610157576101528b8b8b60006103d8565b610164565b6101648a8c8b600061035d565b93508388600003106101785789955061018a565b6101878b8a8a600003856104cf565b95505b6001600160a01b038a81169087161482156101ed578080156101a95750815b6101bf576101ba878d8c60016103d8565b6101c1565b855b95508080156101ce575081155b6101e4576101df878d8c600061035d565b6101e6565b845b9450610237565b8080156101f75750815b61020d576102088c888c600161035d565b61020f565b855b955080801561021c575081155b6102325761022d8c888c60006103d8565b610234565b845b94505b8115801561024757508860000385115b15610253578860000394505b81801561027257508a6001600160a01b0316876001600160a01b031614155b1561028157858903935061029e565b61029b868962ffffff168a620f42400362ffffff1661051b565b93505b50505095509550955095915050565b60008080600019858709868602925082811090839003039050806102e357600084116102d857600080fd5b508290049050610356565b8084116102ef57600080fd5b6000848688096000868103871696879004966002600389028118808a02820302808a02820302808a02820302808a02820302808a02820302808a02909103029181900381900460010186841190950394909402919094039290920491909117919091029150505b9392505050565b6000836001600160a01b0316856001600160a01b0316111561037d579293925b816103aa576103a5836001600160801b03168686036001600160a01b0316600160601b6102ad565b6103cd565b6103cd836001600160801b03168686036001600160a01b0316600160601b61051b565b90505b949350505050565b6000836001600160a01b0316856001600160a01b031611156103f8579293925b600160601b600160e01b03606084901b166001600160a01b03868603811690871661042257600080fd5b8361045257866001600160a01b03166104458383896001600160a01b03166102ad565b8161044c57fe5b04610478565b6104786104698383896001600160a01b031661051b565b886001600160a01b0316610555565b979650505050505050565b600080856001600160a01b03161161049a57600080fd5b6000846001600160801b0316116104b057600080fd5b816104c2576103a58585856001610560565b6103cd8585856001610641565b600080856001600160a01b0316116104e657600080fd5b6000846001600160801b0316116104fc57600080fd5b8161050e576103a58585856000610641565b6103cd8585856000610560565b60006105288484846102ad565b90506000828061053457fe5b848609111561035657600019811061054b57600080fd5b6001019392505050565b808204910615150190565b600081156105d35760006001600160a01b038411156105965761059184600160601b876001600160801b03166102ad565b6105ae565b6001600160801b038516606085901b816105ac57fe5b045b90506105cb6105c66001600160a01b03881683610724565b61073a565b9150506103d0565b60006001600160a01b03841115610601576105fc84600160601b876001600160801b031661051b565b610618565b610618606085901b6001600160801b038716610555565b905080866001600160a01b03161161062f57600080fd5b6001600160a01b0386160390506103d0565b60008261064f5750836103d0565b600160601b600160e01b03606085901b1682156106dd576001600160a01b0386168481029085828161067d57fe5b0414156106ae578181018281106106ac576106a283896001600160a01b03168361051b565b93505050506103d0565b505b6106d4826106cf878a6001600160a01b031686816106c857fe5b0490610724565b610555565b925050506103d0565b6001600160a01b038616848102908582816106f457fe5b0414801561070157508082115b61070a57600080fd5b8082036106a26105c6846001600160a01b038b168461051b565b8082018281101561073457600080fd5b92915050565b806001600160a01b038116811461075057600080fd5b91905056fea164736f6c6343000706000a",
  "linkReferences": {},
  "deployedLinkReferences": {}
}