{
  "_format": "hh-sol-artifact-1",
  "contractName": "NonfungiblePositionManager",
  "sourceName": "contracts/NonfungiblePositionManager.sol",
  "abi": [
    {
      "inputs": [
        {
          "internalType": "address",
          "name": "_factory",
          "type": "address"
        },
        {
          "internalType": "address",
          "name": "_WETH9",
          "type": "address"
        },
        {
          "internalType": "address",
          "name": "_tokenDescriptor_",
          "type": "address"
        }
      ],
      "stateMutability": "nonpayable",
      "type": "constructor"
    },
    {
      "anonymous": false,
      "inputs": [
        {
          "indexed": true,
          "internalType": "address",
          "name": "owner",
          "type": "address"
        },
        {
          "indexed": true,
          "internalType": "address",
          "name": "approved",
          "type": "address"
        },
        {
          "indexed": true,
          "internalType": "uint256",
          "name": "tokenId",
          "type": "uint256"
        }
      ],
      "name": "Approval",
      "type": "event"
    },
    {
      "anonymous": false,
      "inputs": [
        {
          "indexed": true,
          "internalType": "address",
          "name": "owner",
          "type": "address"
        },
        {
          "indexed": true,
          "internalType": "address",
          "name": "operator",
          "type": "address"
        },
        {
          "indexed": false,
          "internalType": "bool",
          "name": "approved",
          "type": "bool"
        }
      ],
      "name": "ApprovalForAll",
      "type": "event"
    },
    {
      "anonymous": false,
      "inputs": [
        {
          "indexed": true,
          "internalType": "address",
          "name": "from",
          "type": "address"
        },
        {
          "indexed": true,
          "internalType": "address",
          "name": "to",
          "type": "address"
        },
        {
          "indexed": true,
          "internalType": "uint256",
          "name": "tokenId",
          "type": "uint256"
        }
      ],
      "name": "Transfer",
      "type": "event"
    },
    {
      "inputs": [],
      "name": "DOMAIN_SEPARATOR",
      "outputs": [
        {
          "internalType": "bytes32",
          "name": "",
          "type": "bytes32"
        }
      ],
      "stateMutability": "view",
      "type": "function"
    },
    {
      "inputs": [],
      "name": "PERMIT_TYPEHASH",
      "outputs": [
        {
          "internalType": "bytes32",
          "name": "",
          "type": "bytes32"
        }
      ],
      "stateMutability": "view",
      "type": "function"
    },
    {
      "inputs": [],
      "name": "WETH9",
      "outputs": [
        {
          "internalType": "address",
          "name": "",
          "type": "address"
        }
      ],
      "stateMutability": "view",
      "type": "function"
    },
    {
      "inputs": [
        {
          "internalType": "address",
          "name": "to",
          "type": "address"
        },
        {
          "internalType": "uint256",
          "name": "tokenId",
          "type": "uint256"
        }
      ],
      "name": "approve",
      "outputs": [],
      "stateMutability": "nonpayable",
      "type": "function"
    },
    {
      "inputs": [
        {
          "internalType": "address",
          "name": "owner",
          "type": "address"
        }
      ],
      "name": "balanceOf",
      "outputs": [
        {
          "internalType": "uint256",
          "name": "",
          "type": "uint256"
        }
      ],
      "stateMutability": "view",
      "type": "function"
    },
    {
      "inputs": [],
      "name": "baseURI",
      "outputs": [
        {
          "internalType": "string",
          "name": "",
          "type": "string"
        }
      ],
      "stateMutability": "pure",
      "type": "function"
    },
    {
      "inputs": [
        {
          "internalType": "uint256",
          "name": "tokenId",
          "type": "uint256"
        }
      ],
      "name": "burn",
      "outputs": [],
      "stateMutability": "payable",
      "type": "function"
    },
    {
      "inputs": [
        {
          "components": [
            {
              "internalType": "uint256",
              "name": "tokenId",
              "type": "uint256"
            },
            {
              "internalType": "address",
              "name": "recipient",
              "type": "address"
            },
            {
              "internalType": "uint128",
              "name": "amount0Max",
              "type": "uint128"
            },
            {
              "internalType": "uint128",
              "name": "amount1Max",
              "type": "uint128"
            }
          ],
          "internalType": "struct INonfungiblePositionManager.CollectParams",
          "name": "params",
          "type": "tuple"
        }
      ],
      "name": "collect",
      "outputs": [
        {
          "internalType": "uint256",
          "name": "amount0",
          "type": "uint256"
        },
        {
          "internalType": "uint256",
          "name": "amount1",
          "type": "uint256"
        }
      ],
      "stateMutability": "payable",
      "type": "function"
    },
    {
      "inputs": [
        {
          "internalType": "address",
          "name": "token0",
          "type": "address"
        },
        {
          "internalType": "address",
          "name": "token1",
          "type": "address"
        },
        {
          "internalType": "uint24",
          "name": "fee",
          "type": "uint24"
        },
        {
          "internalType": "uint160",
          "name": "sqrtPriceX96",
          "type": "uint160"
        }
      ],
      "name": "createAndInitializePoolIfNecessary",
      "outputs": [
        {
          "internalType": "address",
          "name": "pool",
          "type": "address"
        }
      ],
      "stateMutability": "payable",
      "type": "function"
    },
    {
      "inputs": [
        {
          "components": [
            {
              "internalType": "uint256",
              "name": "tokenId",
              "type": "uint256"
            },
            {
              "internalType": "uint128",
              "name": "liquidity",
              "type": "uint128"
            },
            {
              "internalType": "uint256",
              "name": "amount0Min",
              "type": "uint256"
            },
            {
              "internalType": "uint256",
              "name": "amount1Min",
              "type": "uint256"
            },
            {
              "internalType": "uint256",
              "name": "deadline",
              "type": "uint256"
            }
          ],
          "internalType": "struct INonfungiblePositionManager.DecreaseLiquidityParams",
          "name": "params",
          "type": "tuple"
        }
      ],
      "name": "decreaseLiquidity",
      "outputs": [
        {
          "internalType": "uint256",
          "name": "amount0",
          "type": "uint256"
        },
        {
          "internalType": "uint256",
          "name": "amount1",
          "type": "uint256"
        }
      ],
      "stateMutability": "payable",
      "type": "function"
    },
    {
      "inputs": [],
      "name": "factory",
      "outputs": [
        {
          "internalType": "address",
          "name": "",
          "type": "address"
        }
      ],
      "stateMutability": "view",
      "type": "function"
    },
    {
      "inputs": [
        {
          "internalType": "uint256",
          "name": "tokenId",
          "type": "uint256"
        }
      ],
      "name": "getApproved",
      "outputs": [
        {
          "internalType": "address",
          "name": "",
          "type": "address"
        }
      ],
      "stateMutability": "view",
      "type": "function"
    },
    {
      "inputs": [
        {
          "components": [
            {
              "internalType": "uint256",
              "name": "tokenId",
              "type": "uint256"
            },
            {
              "internalType": "uint256",
              "name": "amount0Desired",
              "type": "uint256"
            },
            {
              "internalType": "uint256",
              "name": "amount1Desired",
              "type": "uint256"
            },
            {
              "internalType": "uint256",
              "name": "amount0Min",
              "type": "uint256"
            },
            {
              "internalType": "uint256",
              "name": "amount1Min",
              "type": "uint256"
            },
            {
              "internalType": "uint256",
              "name": "deadline",
              "type": "uint256"
            }
          ],
          "internalType": "struct INonfungiblePositionManager.IncreaseLiquidityParams",
          "name": "params",
          "type": "tuple"
        }
      ],
      "name": "increaseLiquidity",
      "outputs": [
        {
          "internalType": "uint128",
          "name": "liquidity",
          "type": "uint128"
        },
        {
          "internalType": "uint256",
          "name": "amount0",
          "type": "uint256"
        },
        {
          "internalType": "uint256",
          "name": "amount1",
          "type": "uint256"
        }
      ],
      "stateMutability": "payable",
      "type": "function"
    },
    {
      "inputs": [
        {
          "internalType": "address",
          "name": "owner",
          "type": "address"
        },
        {
          "internalType": "address",
          "name": "operator",
          "type": "address"
        }
      ],
      "name": "isApprovedForAll",
      "outputs": [
        {
          "internalType": "bool",
          "name": "",
          "type": "bool"
        }
      ],
      "stateMutability": "view",
      "type": "function"
    },
    {
      "inputs": [
        {
          "components": [
            {
              "internalType": "address",
              "name": "token0",
              "type": "address"
            },
            {
              "internalType": "address",
              "name": "token1",
              "type": "address"
            },
            {
              "internalType": "uint24",
              "name": "fee",
              "type": "uint24"
            },
            {
              "internalType": "int24",
              "name": "tickLower",
              "type": "int24"
            },
            {
              "internalType": "int24",
              "name": "tickUpper",
              "type": "int24"
            },
            {
              "internalType": "uint256",
              "name": "amount0Desired",
              "type": "uint256"
            },
            {
              "internalType": "uint256",
              "name": "amount1Desired",
              "type": "uint256"
            },
            {
              "internalType": "uint256",
              "name": "amount0Min",
              "type": "uint256"
            },
            {
              "internalType": "uint256",
              "name": "amount1Min",
              "type": "uint256"
            },
            {
              "internalType": "address",
              "name": "recipient",
              "type": "address"
            },
            {
              "internalType": "uint256",
              "name": "deadline",
              "type": "uint256"
            }
          ],
          "internalType": "struct INonfungiblePositionManager.MintParams",
          "name": "params",
          "type": "tuple"
        }
      ],
      "name": "mint",
      "outputs": [
        {
          "internalType": "uint256",
          "name": "tokenId",
          "type": "uint256"
        },
        {
          "internalType": "uint128",
          "name": "liquidity",
          "type": "uint128"
        },
        {
          "internalType": "uint256",
          "name": "amount0",
          "type": "uint256"
        },
        {
          "internalType": "uint256",
          "name": "amount1",
          "type": "uint256"
        }
      ],
      "stateMutability": "payable",
      "type": "function"
    },
    {
      "inputs": [
        {
          "internalType": "bytes[]",
          "name": "data",
          "type": "bytes[]"
        }
      ],
      "name": "multicall",
      "outputs": [
        {
          "internalType": "bytes[]",
          "name": "results",
          "type": "bytes[]"
        }
      ],
      "stateMutability": "payable",
      "type": "function"
    },
    {
      "inputs": [],
      "name": "name",
      "outputs": [
        {
          "internalType": "string",
          "name": "",
          "type": "string"
        }
      ],
      "stateMutability": "view",
      "type": "function"
    },
    {
      "inputs": [
        {
          "internalType": "uint256",
          "name": "tokenId",
          "type": "uint256"
        }
      ],
      "name": "ownerOf",
      "outputs": [
        {
          "internalType": "address",
          "name": "",
          "type": "address"
        }
      ],
      "stateMutability": "view",
      "type": "function"
    },
    {
      "inputs": [
        {
          "internalType": "address",
          "name": "spender",
          "type": "address"
        },
        {
          "internalType": "uint256",
          "name": "tokenId",
          "type": "uint256"
        },
        {
          "internalType": "uint256",
          "name": "deadline",
          "type": "uint256"
        },
        {
          "internalType": "uint8",
          "name": "v",
          "type": "uint8"
        },
        {
          "internalType": "bytes32",
          "name": "r",
          "type": "bytes32"
        },
        {
          "internalType": "bytes32",
          "name": "s",
          "type": "bytes32"
        }
      ],
      "name": "permit",
      "outputs": [],
      "stateMutability": "payable",
      "type": "function"
    },
    {
      "inputs": [
        {
          "internalType": "uint256",
          "name": "tokenId",
          "type": "uint256"
        }
      ],
      "name": "positions",
      "outputs": [
        {
          "internalType": "uint96",
          "name": "nonce",
          "type": "uint96"
        },
        {
          "internalType": "address",
          "name": "operator",
          "type": "address"
        },
        {
          "internalType": "address",
          "name": "token0",
          "type": "address"
        },
        {
          "internalType": "address",
          "name": "token1",
          "type": "address"
        },
        {
          "internalType": "uint24",
          "name": "fee",
          "type": "uint24"
        },
        {
          "internalType": "int24",
          "name": "tickLower",
          "type": "int24"
        },
        {
          "internalType": "int24",
          "name": "tickUpper",
          "type": "int24"
        },
        {
          "internalType": "uint128",
          "name": "liquidity",
          "type": "uint128"
        },
        {
          "internalType": "uint256",
          "name": "feeGrowthInside0LastX128",
          "type": "uint256"
        },
        {
          "internalType": "uint256",
          "name": "feeGrowthInside1LastX128",
          "type": "uint256"
        },
        {
          "internalType": "uint128",
          "name": "tokensOwed0",
          "type": "uint128"
        },
        {
          "internalType": "uint128",
          "name": "tokensOwed1",
          "type": "uint128"
        }
      ],
      "stateMutability": "view",
      "type": "function"
    },
    {
      "inputs": [],
      "name": "refundETH",
      "outputs": [],
      "stateMutability": "payable",
      "type": "function"
    },
    {
      "inputs": [
        {
          "internalType": "address",
          "name": "from",
          "type": "address"
        },
        {
          "internalType": "address",
          "name": "to",
          "type": "address"
        },
        {
          "internalType": "uint256",
          "name": "tokenId",
          "type": "uint256"
        }
      ],
      "name": "safeTransferFrom",
      "outputs": [],
      "stateMutability": "nonpayable",
      "type": "function"
    },
    {
      "inputs": [
        {
          "internalType": "address",
          "name": "from",
          "type": "address"
        },
        {
          "internalType": "address",
          "name": "to",
          "type": "address"
        },
        {
          "internalType": "uint256",
          "name": "tokenId",
          "type": "uint256"
        },
        {
          "internalType": "bytes",
          "name": "_data",
          "type": "bytes"
        }
      ],
      "name": "safeTransferFrom",
      "outputs": [],
      "stateMutability": "nonpayable",
      "type": "function"
    },
    {
      "inputs": [
        {
          "internalType": "address",
          "name": "token",
          "type": "address"
        },
        {
          "internalType": "uint256",
          "name": "value",
          "type": "uint256"
        },
        {
          "internalType": "uint256",
          "name": "deadline",
          "type": "uint256"
        },
        {
          "internalType": "uint8",
          "name": "v",
          "type": "uint8"
        },
        {
          "internalType": "bytes32",
          "name": "r",
          "type": "bytes32"
        },
        {
          "internalType": "bytes32",
          "name": "s",
          "type": "bytes32"
        }
      ],
      "name": "selfPermit",
      "outputs": [],
      "stateMutability": "payable",
      "type": "function"
    },
    {
      "inputs": [
        {
          "internalType": "address",
          "name": "token",
          "type": "address"
        },
        {
          "internalType": "uint256",
          "name": "nonce",
          "type": "uint256"
        },
        {
          "internalType": "uint256",
          "name": "expiry",
          "type": "uint256"
        },
        {
          "internalType": "uint8",
          "name": "v",
          "type": "uint8"
        },
        {
          "internalType": "bytes32",
          "name": "r",
          "type": "bytes32"
        },
        {
          "internalType": "bytes32",
          "name": "s",
          "type": "bytes32"
        }
      ],
      "name": "selfPermitAllowed",
      "outputs": [],
      "stateMutability": "payable",
      "type": "function"
    },
    {
      "inputs": [
        {
          "internalType": "address",
          "name": "token",
          "type": "address"
        },
        {
          "internalType": "uint256",
          "name": "nonce",
          "type": "uint256"
        },
        {
          "internalType": "uint256",
          "name": "expiry",
          "type": "uint256"
        },
        {
          "internalType": "uint8",
          "name": "v",
          "type": "uint8"
        },
        {
          "internalType": "bytes32",
          "name": "r",
          "type": "bytes32"
        },
        {
          "internalType": "bytes32",
          "name": "s",
          "type": "bytes32"
        }
      ],
      "name": "selfPermitAllowedIfNecessary",
      "outputs": [],
      "stateMutability": "payable",
      "type": "function"
    },
    {
      "inputs": [
        {
          "internalType": "address",
          "name": "token",
          "type": "address"
        },
        {
          "internalType": "uint256",
          "name": "value",
          "type": "uint256"
        },
        {
          "internalType": "uint256",
          "name": "deadline",
          "type": "uint256"
        },
        {
          "internalType": "uint8",
          "name": "v",
          "type": "uint8"
        },
        {
          "internalType": "bytes32",
          "name": "r",
          "type": "bytes32"
        },
        {
          "internalType": "bytes32",
          "name": "s",
          "type": "bytes32"
        }
      ],
      "name": "selfPermitIfNecessary",
      "outputs": [],
      "stateMutability": "payable",
      "type": "function"
    },
    {
      "inputs": [
        {
          "internalType": "address",
          "name": "operator",
          "type": "address"
        },
        {
          "internalType": "bool",
          "name": "approved",
          "type": "bool"
        }
      ],
      "name": "setApprovalForAll",
      "outputs": [],
      "stateMutability": "nonpayable",
      "type": "function"
    },
    {
      "inputs": [
        {
          "internalType": "bytes4",
          "name": "interfaceId",
          "type": "bytes4"
        }
      ],
      "name": "supportsInterface",
      "outputs": [
        {
          "internalType": "bool",
          "name": "",
          "type": "bool"
        }
      ],
      "stateMutability": "view",
      "type": "function"
    },
    {
      "inputs": [
        {
          "internalType": "address",
          "name": "token",
          "type": "address"
        },
        {
          "internalType": "uint256",
          "name": "amountMinimum",
          "type": "uint256"
        },
        {
          "internalType": "address",
          "name": "recipient",
          "type": "address"
        }
      ],
      "name": "sweepToken",
      "outputs": [],
      "stateMutability": "payable",
      "type": "function"
    },
    {
      "inputs": [],
      "name": "symbol",
      "outputs": [
        {
          "internalType": "string",
          "name": "",
          "type": "string"
        }
      ],
      "stateMutability": "view",
      "type": "function"
    },
    {
      "inputs": [
        {
          "internalType": "uint256",
          "name": "index",
          "type": "uint256"
        }
      ],
      "name": "tokenByIndex",
      "outputs": [
        {
          "internalType": "uint256",
          "name": "",
          "type": "uint256"
        }
      ],
      "stateMutability": "view",
      "type": "function"
    },
    {
      "inputs": [
        {
          "internalType": "address",
          "name": "owner",
          "type": "address"
        },
        {
          "internalType": "uint256",
          "name": "index",
          "type": "uint256"
        }
      ],
      "name": "tokenOfOwnerByIndex",
      "outputs": [
        {
          "internalType": "uint256",
          "name": "",
          "type": "uint256"
        }
      ],
      "stateMutability": "view",
      "type": "function"
    },
    {
      "inputs": [
        {
          "internalType": "uint256",
          "name": "tokenId",
          "type": "uint256"
        }
      ],
      "name": "tokenURI",
      "outputs": [
        {
          "internalType": "string",
          "name": "",
          "type": "string"
        }
      ],
      "stateMutability": "view",
      "type": "function"
    },
    {
      "inputs": [],
      "name": "totalSupply",
      "outputs": [
        {
          "internalType": "uint256",
          "name": "",
          "type": "uint256"
        }
      ],
      "stateMutability": "view",
      "type": "function"
    },
    {
      "inputs": [
        {
          "internalType": "address",
          "name": "from",
          "type": "address"
        },
        {
          "internalType": "address",
          "name": "to",
          "type": "address"
        },
        {
          "internalType": "uint256",
          "name": "tokenId",
          "type": "uint256"
        }
      ],
      "name": "transferFrom",
      "outputs": [],
      "stateMutability": "nonpayable",
      "type": "function"
    },
    {
      "inputs": [
        {
          "internalType": "uint256",
          "name": "amount0Owed",
          "type": "uint256"
        },
        {
          "internalType": "uint256",
          "name": "amount1Owed",
          "type": "uint256"
        },
        {
          "internalType": "bytes",
          "name": "data",
          "type": "bytes"
        }
      ],
      "name": "uniswapV3MintCallback",
      "outputs": [],
      "stateMutability": "nonpayable",
      "type": "function"
    },
    {
      "inputs": [
        {
          "internalType": "uint256",
          "name": "amountMinimum",
          "type": "uint256"
        },
        {
          "internalType": "address",
          "name": "recipient",
          "type": "address"
        }
      ],
      "name": "unwrapWETH9",
      "outputs": [],
      "stateMutability": "payable",
      "type": "function"
    },
    {
      "stateMutability": "payable",
      "type": "receive"
    }
  ],
  "bytecode": "0x610120604052600d80546001600160b01b0319166001176001600160b01b0316600160b01b1790553480156200003457600080fd5b50604051620049f8380380620049f88339810160408190526200005791620002db565b82826040518060400160405280601b81526020017f556e697377617020563320506f736974696f6e73204e46542d563100000000008152506040518060400160405280600a815260200169554e492d56332d504f5360b01b815250604051806040016040528060018152602001603160f81b8152508282620000e66301ffc9a760e01b6200018d60201b60201c565b8151620000fb90600690602085019062000212565b5080516200011190600790602084019062000212565b50620001246380ac58cd60e01b6200018d565b62000136635b5e139f60e01b6200018d565b6200014863780e9d6360e01b6200018d565b50508251602093840120608052805192019190912060a052506001600160601b0319606092831b811660c05290821b811660e05291901b166101005250620003249050565b6001600160e01b03198082161415620001ed576040805162461bcd60e51b815260206004820152601c60248201527f4552433136353a20696e76616c696420696e7465726661636520696400000000604482015290519081900360640190fd5b6001600160e01b0319166000908152602081905260409020805460ff19166001179055565b828054600181600116156101000203166002900490600052602060002090601f0160209004810192826200024a576000855562000295565b82601f106200026557805160ff191683800117855562000295565b8280016001018555821562000295579182015b828111156200029557825182559160200191906001019062000278565b50620002a3929150620002a7565b5090565b5b80821115620002a35760008155600101620002a8565b80516001600160a01b0381168114620002d657600080fd5b919050565b600080600060608486031215620002f0578283fd5b620002fb84620002be565b92506200030b60208501620002be565b91506200031b60408501620002be565b90509250925092565b60805160a05160c05160601c60e05160601c6101005160601c61464a620003ae60003980611fda5250806101c95280611166528061125152806112d95280612b4a5280612b905280612c045250806109055280610a105280610ad75280610dbc528061172d5280611f8d528061207a52806122d5525080610f80525080610f5f525061464a6000f3fe6080604052600436106101b95760003560e01c806301ffc9a71461022e57806306fdde0314610264578063081812fc14610286578063095ea7b3146102b35780630c49ccbe146102d357806312210e8a146102f457806313ead562146102fc57806318160ddd1461030f578063219f5d171461033157806323b872dd146103535780632f745c591461037357806330adf81f146103935780633644e515146103a857806342842e0e146103bd57806342966c68146103dd5780634659a494146103f057806349404b7c146104035780634aa4a4fc146104165780634f6ccce71461042b5780636352211e1461044b5780636c0360eb1461046b57806370a08231146104805780637ac2ff7b146104a057806388316456146104b357806395d89b41146104d657806399fbab88146104eb578063a22cb46514610523578063a4a78f0c14610543578063ac9650d814610556578063b88d4fde14610576578063c2e3140a14610596578063c45a0155146105a9578063c87b56dd146105be578063d3487997146105de578063df2ab5bb146105fe578063e985e9c514610611578063f3995c6714610631578063fc6f78651461064457610229565b3661022957336001600160a01b037f00000000000000000000000000000000000000000000000000000000000000001614610227576040805162461bcd60e51b81526020600482015260096024820152684e6f7420574554483960b81b604482015290519081900360640190fd5b005b600080fd5b34801561023a57600080fd5b5061024e610249366004613a74565b610657565b60405161025b9190613e2d565b60405180910390f35b34801561027057600080fd5b5061027961067a565b60405161025b919061416b565b34801561029257600080fd5b506102a66102a1366004613c6d565b610710565b60405161025b9190613db9565b3480156102bf57600080fd5b506102276102ce36600461393a565b610763565b6102e66102e1366004613b3f565b610839565b60405161025b929190614284565b6102276109dc565b6102a661030a3660046137ca565b6109ee565b34801561031b57600080fd5b50610324610ce2565b60405161025b9190613e38565b61034461033f366004613b50565b610cf3565b60405161025b9392919061423f565b34801561035f57600080fd5b5061022761036e366004613823565b610ea6565b34801561037f57600080fd5b5061032461038e36600461393a565b610efd565b34801561039f57600080fd5b50610324610f28565b3480156103b457600080fd5b50610324610f3a565b3480156103c957600080fd5b506102276103d8366004613823565b610ff8565b6102276103eb366004613c6d565b611013565b6102276103fe3660046139a6565b6110c8565b610227610411366004613c85565b611162565b34801561042257600080fd5b506102a66112d7565b34801561043757600080fd5b50610324610446366004613c6d565b6112fb565b34801561045757600080fd5b506102a6610466366004613c6d565b611311565b34801561047757600080fd5b50610279611339565b34801561048c57600080fd5b5061032461049b366004613776565b61133e565b6102276104ae3660046139a6565b6113a6565b6104c66104c1366004613c0b565b611664565b60405161025b9493929190614260565b3480156104e257600080fd5b50610279611953565b3480156104f757600080fd5b5061050b610506366004613c6d565b6119b4565b60405161025b9c9b9a99989796959493929190614292565b34801561052f57600080fd5b5061022761053e366004613909565b611bc5565b6102276105513660046139a6565b611cc6565b610569610564366004613a06565b611d5f565b60405161025b9190613dcd565b34801561058257600080fd5b50610227610591366004613863565b611e9e565b6102276105a43660046139a6565b611efc565b3480156105b557600080fd5b506102a6611f8b565b3480156105ca57600080fd5b506102796105d9366004613c6d565b611faf565b3480156105ea57600080fd5b506102276105f9366004613ccc565b612065565b61022761060c366004613965565b6120e3565b34801561061d57600080fd5b5061024e61062c366004613792565b6121bb565b61022761063f3660046139a6565b6121e9565b6102e6610652366004613b28565b61225b565b6001600160e01b0319811660009081526020819052604090205460ff165b919050565b60068054604080516020601f60026000196101006001881615020190951694909404938401819004810282018101909252828152606093909290918301828280156107065780601f106106db57610100808354040283529160200191610706565b820191906000526020600020905b8154815290600101906020018083116106e957829003601f168201915b5050505050905090565b600061071b82612341565b6107405760405162461bcd60e51b8152600401610737906141a4565b60405180910390fd5b506000908152600c6020526040902054600160601b90046001600160a01b031690565b600061076e82611311565b9050806001600160a01b0316836001600160a01b031614156107c15760405162461bcd60e51b81526004018080602001828103825260218152602001806145ec6021913960400191505060405180910390fd5b806001600160a01b03166107d361234e565b6001600160a01b031614806107ef57506107ef8161062c61234e565b61082a5760405162461bcd60e51b81526004018080602001828103825260388152602001806144d66038913960400191505060405180910390fd5b6108348383612352565b505050565b60008082608001358061084a6123c8565b1115610893576040805162461bcd60e51b8152602060048201526013602482015272151c985b9cd858dd1a5bdb881d1bdbc81bdb19606a1b604482015290519081900360640190fd5b61089d84356123cc565b83356000908152600c602090815260408083206001908101546001600160501b03168452600b8352818420825160608101845281546001600160a01b039081168252919092015490811693820193909352600160a01b90920462ffffff169082015261092a907f0000000000000000000000000000000000000000000000000000000000000000906123f5565b85356000908152600c60205260409081902090516376ea140560e11b815291925073__$fde963601be347ec4b4813a2ca821dcd62$__9163edd4280a91610981916001600160a01b03861691908a906004016140f1565b604080518083038186803b15801561099857600080fd5b505af41580156109ac573d6000803e3d6000fd5b505050506040513d601f19601f820116820180604052508101906109d09190613ca9565b90969095509350505050565b47156109ec576109ec33476124d4565b565b6000836001600160a01b0316856001600160a01b031610610a0e57600080fd5b7f00000000000000000000000000000000000000000000000000000000000000006001600160a01b0316631698ee828686866040518463ffffffff1660e01b815260040180846001600160a01b03168152602001836001600160a01b031681526020018262ffffff168152602001935050505060206040518083038186803b158015610a9957600080fd5b505afa158015610aad573d6000803e3d6000fd5b505050506040513d6020811015610ac357600080fd5b505190506001600160a01b038116610bf9577f00000000000000000000000000000000000000000000000000000000000000006001600160a01b031663a16712958686866040518463ffffffff1660e01b815260040180846001600160a01b03168152602001836001600160a01b031681526020018262ffffff1681526020019350505050602060405180830381600087803b158015610b6257600080fd5b505af1158015610b76573d6000803e3d6000fd5b505050506040513d6020811015610b8c57600080fd5b50516040805163f637731d60e01b81526001600160a01b03858116600483015291519293509083169163f637731d9160248082019260009290919082900301818387803b158015610bdc57600080fd5b505af1158015610bf0573d6000803e3d6000fd5b50505050610cda565b6000816001600160a01b0316633850c7bd6040518163ffffffff1660e01b815260040160e06040518083038186803b158015610c3457600080fd5b505afa158015610c48573d6000803e3d6000fd5b505050506040513d60e0811015610c5e57600080fd5b505190506001600160a01b038116610cd857816001600160a01b031663f637731d846040518263ffffffff1660e01b815260040180826001600160a01b03168152602001915050600060405180830381600087803b158015610cbf57600080fd5b505af1158015610cd3573d6000803e3d6000fd5b505050505b505b949350505050565b6000610cee60026125c3565b905090565b60008060008360a0013580610d066123c8565b1115610d4f576040805162461bcd60e51b8152602060048201526013602482015272151c985b9cd858dd1a5bdb881d1bdbc81bdb19606a1b604482015290519081900360640190fd5b84356000908152600c602090815260408083206001808201546001600160501b03168552600b8452828520835160608101855281546001600160a01b039081168252919092015490811694820194909452600160a01b90930462ffffff16918301919091529190610de1907f0000000000000000000000000000000000000000000000000000000000000000906123f5565b60018301546001600160501b03166000908152600b6020526040908190209051635695657560e11b815291925073__$fde963601be347ec4b4813a2ca821dcd62$__9163ad2acaea91610e46916001600160a01b038616919087908d90600401613ff8565b60606040518083038186803b158015610e5e57600080fd5b505af4158015610e72573d6000803e3d6000fd5b505050506040513d601f19601f82011682018060405250810190610e969190613c1d565b9550955095505050509193909250565b610eb7610eb161234e565b826125ce565b610ef25760405162461bcd60e51b815260040180806020018281038252603181526020018061460d6031913960400191505060405180910390fd5b61083483838361266a565b6001600160a01b0382166000908152600160205260408120610f1f90836127a4565b90505b92915050565b6000805160206145ac83398151915281565b60007f8b73c3c69bb8fe3d512ecc4cf759cc79239f7b179b0ffacaa9a75d522b39400f7f00000000000000000000000000000000000000000000000000000000000000007f0000000000000000000000000000000000000000000000000000000000000000610fa76127b0565b3060405160200180868152602001858152602001848152602001838152602001826001600160a01b031681526020019550505050505060405160208183030381529060405280519060200120905090565b61083483838360405180602001604052806000815250611e9e565b61101c816123cc565b6000818152600c602052604090206001810154600160801b90046001600160801b0316158015611057575060048101546001600160801b0316155b801561107557506004810154600160801b90046001600160801b0316155b6110915760405162461bcd60e51b81526004016107379061421a565b6000828152600c60205260408120818155600181018290556002810182905560038101829055600401556110c4826127b4565b5050565b604080516323f2ebc360e21b815233600482015230602482015260448101879052606481018690526001608482015260ff851660a482015260c4810184905260e4810183905290516001600160a01b03881691638fcbaf0c9161010480830192600092919082900301818387803b15801561114257600080fd5b505af1158015611156573d6000803e3d6000fd5b50505050505050505050565b60007f00000000000000000000000000000000000000000000000000000000000000006001600160a01b03166370a08231306040518263ffffffff1660e01b815260040180826001600160a01b0316815260200191505060206040518083038186803b1580156111d157600080fd5b505afa1580156111e5573d6000803e3d6000fd5b505050506040513d60208110156111fb57600080fd5b5051905082811015611249576040805162461bcd60e51b8152602060048201526012602482015271496e73756666696369656e7420574554483960701b604482015290519081900360640190fd5b8015610834577f00000000000000000000000000000000000000000000000000000000000000006001600160a01b0316632e1a7d4d826040518263ffffffff1660e01b815260040180828152602001915050600060405180830381600087803b1580156112b557600080fd5b505af11580156112c9573d6000803e3d6000fd5b5050505061083482826124d4565b7f000000000000000000000000000000000000000000000000000000000000000081565b60008061130960028461286f565b509392505050565b6000610f2282604051806060016040528060298152602001614538602991396002919061288d565b606090565b60006001600160a01b0382166113855760405162461bcd60e51b815260040180806020018281038252602a81526020018061450e602a913960400191505060405180910390fd5b6001600160a01b0382166000908152600160205260409020610f22906125c3565b836113af6123c8565b11156113f3576040805162461bcd60e51b815260206004820152600e60248201526d14195c9b5a5d08195e1c1a5c995960921b604482015290519081900360640190fd5b60006113fd610f3a565b6000805160206145ac8339815191528888611417816128a4565b604080516020808201969096526001600160a01b03909416848201526060840192909252608083015260a08083018a90528151808403909101815260c08301825280519084012061190160f01b60e084015260e28301949094526101028083019490945280518083039094018452610122909101905281519101209050600061149f87611311565b9050806001600160a01b0316886001600160a01b031614156114f25760405162461bcd60e51b815260040180806020018281038252602781526020018061445f6027913960400191505060405180910390fd5b6040805160208082018790528183018690526001600160f81b031960f889901b1660608301528251604181840301815260618301808552630b135d3f60e11b90526065830186815260858401948552815160a585015281516001600160a01b03871695631626ba7e958995919260c59091019185019080838360005b8381101561158657818101518382015260200161156e565b50505050905090810190601f1680156115b35780820380516001836020036101000a031916815260200191505b50935050505060206040518083038186803b1580156115d157600080fd5b505afa1580156115e5573d6000803e3d6000fd5b505050506040513d60208110156115fb57600080fd5b50516001600160e01b031916630b135d3f60e11b14611650576040805162461bcd60e51b815260206004820152600c60248201526b155b985d5d1a1bdc9a5e995960a21b604482015290519081900360640190fd5b61165a8888612352565b5050505050505050565b600080600080846101400135806116796123c8565b11156116c2576040805162461bcd60e51b8152602060048201526013602482015272151c985b9cd858dd1a5bdb881d1bdbc81bdb19606a1b604482015290519081900360640190fd5b6040805160608101909152600090806116de60208a018a613776565b6001600160a01b031681526020018860200160208101906116ff9190613776565b6001600160a01b0316815260200161171d60608a0160408b01613c53565b62ffffff169052905060006117527f0000000000000000000000000000000000000000000000000000000000000000836123f5565b9050806001600160a01b031673__$fde963601be347ec4b4813a2ca821dcd62$__633ca8e0669091846040518060e00160405280306001600160a01b031681526020018d60600160208101906117a89190613a9c565b60020b81526020018d60800160208101906117c39190613a9c565b60020b81526020018d60a0013581526020018d60c0013581526020018d60e0013581526020018d61010001358152506040518463ffffffff1660e01b815260040161181093929190613f68565b60606040518083038186803b15801561182857600080fd5b505af415801561183c573d6000803e3d6000fd5b505050506040513d601f19601f820116820180604052508101906118609190613c1d565b919750955093506118aa61187c6101408a016101208b01613776565b600d80546001600160b01b0319811660016001600160b01b03928316908101909216179091559850886128d9565b60006118b682846129f4565b6000898152600c602052604090819020905163072e0abf60e21b81529192509073__$fde963601be347ec4b4813a2ca821dcd62$__90631cb82afc90611917906001600160a01b038716908e9086908f908f908f908f908c90600401613e41565b60006040518083038186803b15801561192f57600080fd5b505af4158015611943573d6000803e3d6000fd5b5050505050505050509193509193565b60078054604080516020601f60026000196101006001881615020190951694909404938401819004810282018101909252828152606093909290918301828280156107065780601f106106db57610100808354040283529160200191610706565b6000818152600c6020908152604080832081516101408101835281546001600160601b03811682526001600160a01b03600160601b909104169381019390935260018101546001600160501b038116928401839052600160501b8104600290810b810b810b6060860152600160681b8204810b810b810b60808601526001600160801b03600160801b92839004811660a08701529083015460c0860152600383015460e086015260049092015480831661010086015204166101208301528291829182918291829182918291829182918291829190611aa55760405162461bcd60e51b8152600401610737906141f0565b6000600b600083604001516001600160501b03166001600160501b031681526020019081526020016000206040518060600160405290816000820160009054906101000a90046001600160a01b03166001600160a01b03166001600160a01b031681526020016001820160009054906101000a90046001600160a01b03166001600160a01b03166001600160a01b031681526020016001820160149054906101000a900462ffffff1662ffffff1662ffffff1681525050905081600001518260200151826000015183602001518460400151866060015187608001518860a001518960c001518a60e001518b61010001518c61012001519d509d509d509d509d509d509d509d509d509d509d509d50505091939597999b5091939597999b565b611bcd61234e565b6001600160a01b0316826001600160a01b03161415611c2f576040805162461bcd60e51b815260206004820152601960248201527822a9219b99189d1030b8383937bb32903a379031b0b63632b960391b604482015290519081900360640190fd5b8060056000611c3c61234e565b6001600160a01b03908116825260208083019390935260409182016000908120918716808252919093529120805460ff191692151592909217909155611c8061234e565b6001600160a01b03167f17307eab39ab6107e8899845ad3d59bd9653f200f220920489ca2b5937696c318360405180821515815260200191505060405180910390a35050565b60408051636eb1769f60e11b81523360048201523060248201529051600019916001600160a01b0389169163dd62ed3e91604480820192602092909190829003018186803b158015611d1757600080fd5b505afa158015611d2b573d6000803e3d6000fd5b505050506040513d6020811015611d4157600080fd5b50511015611d5757611d578686868686866110c8565b505050505050565b6060816001600160401b0381118015611d7757600080fd5b50604051908082528060200260200182016040528015611dab57816020015b6060815260200190600190039081611d965790505b50905060005b82811015611e975760008030868685818110611dc957fe5b9050602002810190611ddb919061432c565b604051611de9929190613da9565b600060405180830381855af49150503d8060008114611e24576040519150601f19603f3d011682016040523d82523d6000602084013e611e29565b606091505b509150915081611e7557604481511015611e4257600080fd5b60048101905080806020019051810190611e5c9190613ab6565b60405162461bcd60e51b8152600401610737919061416b565b80848481518110611e8257fe5b60209081029190910101525050600101611db1565b5092915050565b611eaf611ea961234e565b836125ce565b611eea5760405162461bcd60e51b815260040180806020018281038252603181526020018061460d6031913960400191505060405180910390fd5b611ef684848484612ad3565b50505050565b60408051636eb1769f60e11b8152336004820152306024820152905186916001600160a01b0389169163dd62ed3e91604480820192602092909190829003018186803b158015611f4b57600080fd5b505afa158015611f5f573d6000803e3d6000fd5b505050506040513d6020811015611f7557600080fd5b50511015611d5757611d578686868686866121e9565b7f000000000000000000000000000000000000000000000000000000000000000081565b6060611fba82612341565b611fc357600080fd5b60405163e9dc637560e01b81526001600160a01b037f0000000000000000000000000000000000000000000000000000000000000000169063e9dc6375906120119030908690600401614152565b60006040518083038186803b15801561202957600080fd5b505afa15801561203d573d6000803e3d6000fd5b505050506040513d6000823e601f3d908101601f19168201604052610f229190810190613ab6565b600061207382840184613b61565b90506120a37f00000000000000000000000000000000000000000000000000000000000000008260000151612b25565b5084156120be5780515160208201516120be91903388612b48565b83156120dc576120dc81600001516020015182602001513387612b48565b5050505050565b6000836001600160a01b03166370a08231306040518263ffffffff1660e01b815260040180826001600160a01b0316815260200191505060206040518083038186803b15801561213257600080fd5b505afa158015612146573d6000803e3d6000fd5b505050506040513d602081101561215c57600080fd5b50519050828110156121aa576040805162461bcd60e51b815260206004820152601260248201527124b739bab33334b1b4b2b73a103a37b5b2b760711b604482015290519081900360640190fd5b8015611ef657611ef6848383612cd8565b6001600160a01b03918216600090815260056020908152604080832093909416825291909152205460ff1690565b6040805163d505accf60e01b8152336004820152306024820152604481018790526064810186905260ff8516608482015260a4810184905260c4810183905290516001600160a01b0388169163d505accf9160e480830192600092919082900301818387803b15801561114257600080fd5b60008061226883356123cc565b82356000908152600c602090815260408083206001808201546001600160501b03168552600b8452828520835160608101855281546001600160a01b039081168252919092015490811694820194909452600160a01b90930462ffffff169183019190915291906122fa907f0000000000000000000000000000000000000000000000000000000000000000906123f5565b60405163e2e25d5960e01b815290915073__$fde963601be347ec4b4813a2ca821dcd62$__9063e2e25d5990610981906001600160a01b0385169086908a9060040161407e565b6000610f22600283612e1f565b3390565b6000818152600c6020526040902080546001600160601b0316600160601b6001600160a01b03851690810291909117909155819061238f82611311565b6001600160a01b03167f8c5be1e5ebec7d5bd14f71427d1e84f3dd0314c0f7b2291e5b200ac8c7c3b92560405160405180910390a45050565b4290565b6123d633826125ce565b6123f25760405162461bcd60e51b81526004016107379061417e565b50565b600081602001516001600160a01b031682600001516001600160a01b03161061241d57600080fd5b50805160208083015160409384015184516001600160a01b0394851681850152939091168385015262ffffff166060808401919091528351808403820181526080840185528051908301206001600160f81b031960a085015294901b6001600160601b03191660a183015260b58201939093527fd64aeb510b6f5a07f0728155913a1372ab2303cf3f169a4a79b7d9ece4774ae460d5808301919091528251808303909101815260f5909101909152805191012090565b604080516000808252602082019092526001600160a01b0384169083906040518082805190602001908083835b602083106125205780518252601f199092019160209182019101612501565b6001836020036101000a03801982511681845116808217855250505050505090500191505060006040518083038185875af1925050503d8060008114612582576040519150601f19603f3d011682016040523d82523d6000602084013e612587565b606091505b5050905080610834576040805162461bcd60e51b815260206004820152600360248201526253544560e81b604482015290519081900360640190fd5b6000610f2282612e2b565b60006125d982612341565b6126145760405162461bcd60e51b815260040180806020018281038252602c8152602001806144aa602c913960400191505060405180910390fd5b600061261f83611311565b9050806001600160a01b0316846001600160a01b0316148061265a5750836001600160a01b031661264f84610710565b6001600160a01b0316145b80610cda5750610cda81856121bb565b826001600160a01b031661267d82611311565b6001600160a01b0316146126c25760405162461bcd60e51b81526004018080602001828103825260298152602001806145836029913960400191505060405180910390fd5b6001600160a01b0382166127075760405162461bcd60e51b81526004018080602001828103825260248152602001806144866024913960400191505060405180910390fd5b612712838383610834565b61271d600082612352565b6001600160a01b038316600090815260016020526040902061273f9082612e2f565b506001600160a01b03821660009081526001602052604090206127629082612e3b565b5061276f60028284612e47565b5080826001600160a01b0316846001600160a01b03166000805160206145cc83398151915260405160405180910390a4505050565b6000610f1f8383612e5d565b4690565b60006127bf82611311565b90506127cd81600084610834565b6127d8600083612352565b6000828152600860205260409020546002600019610100600184161502019091160415612816576000828152600860205260408120612816916136ee565b6001600160a01b03811660009081526001602052604090206128389083612e2f565b50612844600283612ec1565b5060405182906000906001600160a01b038416906000805160206145cc833981519152908390a45050565b600080808061287e8686612ecd565b909450925050505b9250929050565b600061289a848484612f48565b90505b9392505050565b6000908152600c6020526040902080546001600160601b0319811660016001600160601b039283169081019092161790915590565b6001600160a01b038216612934576040805162461bcd60e51b815260206004820181905260248201527f4552433732313a206d696e7420746f20746865207a65726f2061646472657373604482015290519081900360640190fd5b61293d81612341565b1561298e576040805162461bcd60e51b815260206004820152601c60248201527b115490cdcc8c4e881d1bdad95b88185b1c9958591e481b5a5b9d195960221b604482015290519081900360640190fd5b61299a60008383610834565b6001600160a01b03821660009081526001602052604090206129bc9082612e3b565b506129c960028284612e47565b5060405181906001600160a01b038416906000906000805160206145cc833981519152908290a45050565b6001600160a01b0382166000908152600a60205260409020546001600160501b031680610f225750600d805460016001600160501b03600160b01b8084048216838101909216026001600160b01b03909316929092179092556001600160a01b038085166000908152600a6020908152604080832080546001600160501b03191686179055848352600b825291829020865181549085166001600160a01b031991821617825591870151950180549287015162ffffff16600160a01b0262ffffff60a01b19969094169290911691909117939093161790915592915050565b612ade84848461266a565b612aea84848484613012565b611ef65760405162461bcd60e51b815260040180806020018281038252603281526020018061442d6032913960400191505060405180910390fd5b6000612b3183836123f5565b9050336001600160a01b03821614610f2257600080fd5b7f00000000000000000000000000000000000000000000000000000000000000006001600160a01b0316846001600160a01b0316148015612b895750804710155b15612cab577f00000000000000000000000000000000000000000000000000000000000000006001600160a01b031663d0e30db0826040518263ffffffff1660e01b81526004016000604051808303818588803b158015612be957600080fd5b505af1158015612bfd573d6000803e3d6000fd5b50505050507f00000000000000000000000000000000000000000000000000000000000000006001600160a01b031663a9059cbb83836040518363ffffffff1660e01b815260040180836001600160a01b0316815260200182815260200192505050602060405180830381600087803b158015612c7957600080fd5b505af1158015612c8d573d6000803e3d6000fd5b505050506040513d6020811015612ca357600080fd5b50611ef69050565b6001600160a01b038316301415612ccc57612cc7848383612cd8565b611ef6565b611ef68484848461317a565b604080516001600160a01b038481166024830152604480830185905283518084039091018152606490920183526020820180516001600160e01b031663a9059cbb60e01b1781529251825160009485949389169392918291908083835b60208310612d545780518252601f199092019160209182019101612d35565b6001836020036101000a0380198251168184511680821785525050505050509050019150506000604051808303816000865af19150503d8060008114612db6576040519150601f19603f3d011682016040523d82523d6000602084013e612dbb565b606091505b5091509150818015612de9575080511580612de95750808060200190516020811015612de657600080fd5b50515b6120dc576040805162461bcd60e51b815260206004820152600260248201526114d560f21b604482015290519081900360640190fd5b6000610f1f83836132ca565b5490565b6000610f1f83836132e2565b6000610f1f83836133a8565b600061289a84846001600160a01b0385166133f2565b81546000908210612e9f5760405162461bcd60e51b815260040180806020018281038252602281526020018061440b6022913960400191505060405180910390fd5b826000018281548110612eae57fe5b9060005260206000200154905092915050565b6000610f1f8383613489565b815460009081908310612f115760405162461bcd60e51b81526004018080602001828103825260228152602001806145616022913960400191505060405180910390fd5b6000846000018481548110612f2257fe5b906000526020600020906002020190508060000154816001015492509250509250929050565b60008281526001840160205260408120548281612fe35760405162461bcd60e51b81526004018080602001828103825283818151815260200191508051906020019080838360005b83811015612fa8578181015183820152602001612f90565b50505050905090810190601f168015612fd55780820380516001836020036101000a031916815260200191505b509250505060405180910390fd5b50846000016001820381548110612ff657fe5b9060005260206000209060020201600101549150509392505050565b6000613026846001600160a01b031661355d565b61303257506001610cda565b6000613140630a85bd0160e11b61304761234e565b88878760405160240180856001600160a01b03168152602001846001600160a01b0316815260200183815260200180602001828103825283818151815260200191508051906020019080838360005b838110156130ae578181015183820152602001613096565b50505050905090810190601f1680156130db5780820380516001836020036101000a031916815260200191505b5095505050505050604051602081830303815290604052906001600160e01b0319166020820180516001600160e01b03838183161783525050505060405180606001604052806032815260200161442d603291396001600160a01b0388169190613563565b9050600081806020019051602081101561315957600080fd5b50516001600160e01b031916630a85bd0160e11b1492505050949350505050565b604080516001600160a01b0385811660248301528481166044830152606480830185905283518084039091018152608490920183526020820180516001600160e01b03166323b872dd60e01b178152925182516000948594938a169392918291908083835b602083106131fe5780518252601f1990920191602091820191016131df565b6001836020036101000a0380198251168184511680821785525050505050509050019150506000604051808303816000865af19150503d8060008114613260576040519150601f19603f3d011682016040523d82523d6000602084013e613265565b606091505b5091509150818015613293575080511580613293575080806020019051602081101561329057600080fd5b50515b611d57576040805162461bcd60e51b815260206004820152600360248201526229aa2360e91b604482015290519081900360640190fd5b60009081526001919091016020526040902054151590565b6000818152600183016020526040812054801561339e578354600019808301919081019060009087908390811061331557fe5b906000526020600020015490508087600001848154811061333257fe5b60009182526020808320909101929092558281526001898101909252604090209084019055865487908061336257fe5b60019003818190600052602060002001600090559055866001016000878152602001908152602001600020600090556001945050505050610f22565b6000915050610f22565b60006133b483836132ca565b6133ea57508154600181810184556000848152602080822090930184905584548482528286019093526040902091909155610f22565b506000610f22565b60008281526001840160205260408120548061345757505060408051808201825283815260208082018481528654600181810189556000898152848120955160029093029095019182559151908201558654868452818801909252929091205561289d565b8285600001600183038154811061346a57fe5b906000526020600020906002020160010181905550600091505061289d565b6000818152600183016020526040812054801561339e57835460001980830191908101906000908790839081106134bc57fe5b90600052602060002090600202019050808760000184815481106134dc57fe5b60009182526020808320845460029093020191825560019384015491840191909155835482528983019052604090209084019055865487908061351b57fe5b6000828152602080822060026000199094019384020182815560019081018390559290935588815289820190925260408220919091559450610f229350505050565b3b151590565b606061289a8484600085856135778561355d565b6135c8576040805162461bcd60e51b815260206004820152601d60248201527f416464726573733a2063616c6c20746f206e6f6e2d636f6e7472616374000000604482015290519081900360640190fd5b600080866001600160a01b031685876040518082805190602001908083835b602083106136065780518252601f1990920191602091820191016135e7565b6001836020036101000a03801982511681845116808217855250505050505090500191505060006040518083038185875af1925050503d8060008114613668576040519150601f19603f3d011682016040523d82523d6000602084013e61366d565b606091505b509150915061367d828286613688565b979650505050505050565b6060831561369757508161289d565b8251156136a75782518084602001fd5b60405162461bcd60e51b8152602060048201818152845160248401528451859391928392604401919085019080838360008315612fa8578181015183820152602001612f90565b50805460018160011615610100020316600290046000825580601f1061371457506123f2565b601f0160209004906000526020600020908101906123f291905b80821115613742576000815560010161372e565b5090565b8035610675816143e0565b8035600281900b811461067557600080fd5b803562ffffff8116811461067557600080fd5b600060208284031215613787578081fd5b813561289d816143e0565b600080604083850312156137a4578081fd5b82356137af816143e0565b915060208301356137bf816143e0565b809150509250929050565b600080600080608085870312156137df578182fd5b84356137ea816143e0565b935060208501356137fa816143e0565b925061380860408601613763565b91506060850135613818816143e0565b939692955090935050565b600080600060608486031215613837578283fd5b8335613842816143e0565b92506020840135613852816143e0565b929592945050506040919091013590565b60008060008060808587031215613878578182fd5b8435613883816143e0565b93506020850135613893816143e0565b92506040850135915060608501356001600160401b038111156138b4578182fd5b8501601f810187136138c4578182fd5b80356138d76138d282614393565b614370565b8181528860208385010111156138eb578384fd5b81602084016020830137908101602001929092525092959194509250565b6000806040838503121561391b578182fd5b8235613926816143e0565b9150602083013580151581146137bf578182fd5b6000806040838503121561394c578182fd5b8235613957816143e0565b946020939093013593505050565b600080600060608486031215613979578081fd5b8335613984816143e0565b925060208401359150604084013561399b816143e0565b809150509250925092565b60008060008060008060c087890312156139be578384fd5b86356139c9816143e0565b95506020870135945060408701359350606087013560ff811681146139ec578283fd5b9598949750929560808101359460a0909101359350915050565b60008060208385031215613a18578182fd5b82356001600160401b0380821115613a2e578384fd5b818501915085601f830112613a41578384fd5b813581811115613a4f578485fd5b8660208083028501011115613a62578485fd5b60209290920196919550909350505050565b600060208284031215613a85578081fd5b81356001600160e01b03198116811461289d578182fd5b600060208284031215613aad578081fd5b610f1f82613751565b600060208284031215613ac7578081fd5b81516001600160401b03811115613adc578182fd5b8201601f81018413613aec578182fd5b8051613afa6138d282614393565b818152856020838501011115613b0e578384fd5b613b1f8260208301602086016143b4565b95945050505050565b600060808284031215613b39578081fd5b50919050565b600060a08284031215613b39578081fd5b600060c08284031215613b39578081fd5b60008183036080811215613b73578182fd5b604080519081016001600160401b038082118383101715613b9057fe5b816040526060841215613ba1578485fd5b60a0830193508184108185111715613bb557fe5b508260405284359250613bc7836143e0565b918252602084013591613bd9836143e0565b826060830152613beb60408601613763565b60808301528152613bfe60608501613746565b6020820152949350505050565b60006101608284031215613b39578081fd5b600080600060608486031215613c31578081fd5b8351613c3c816143f5565b602085015160409095015190969495509392505050565b600060208284031215613c64578081fd5b610f1f82613763565b600060208284031215613c7e578081fd5b5035919050565b60008060408385031215613c97578182fd5b8235915060208301356137bf816143e0565b60008060408385031215613cbb578182fd5b505080516020909101519092909150565b60008060008060608587031215613ce1578182fd5b843593506020850135925060408501356001600160401b0380821115613d05578384fd5b818701915087601f830112613d18578384fd5b813581811115613d26578485fd5b886020828501011115613d37578485fd5b95989497505060200194505050565b6001600160a01b03169052565b60008151808452613d6b8160208601602086016143b4565b601f01601f19169290920160200192915050565b60020b9052565b6001600160801b03169052565b62ffffff169052565b6001600160501b03169052565b6000828483379101908152919050565b6001600160a01b0391909116815260200190565b6000602080830181845280855180835260408601915060408482028701019250838701855b82811015613e2057603f19888603018452613e0e858351613d53565b94509285019290850190600101613df2565b5092979650505050505050565b901515815260200190565b90815260200190565b6001600160a01b03891681526102408101613e6760208301613e628b613746565b613d46565b613e7360208a01613746565b613e806040840182613d46565b50613e8d60408a01613763565b613e9a6060840182613d93565b50613ea760608a01613751565b613eb46080840182613d7f565b50613ec160808a01613751565b613ece60a0840182613d7f565b5060a089013560c083015260c089013560e083015261010060e08a013581840152610120818b013581850152613f05818c01613746565b915050610140613f1781850183613d46565b808b0135610160850152505087610180830152866101a0830152613f3f6101c0830187613d86565b846101e083015283610200830152613f5b610220830184613d9c565b9998505050505050505050565b60006101608201905060018060a01b03808616835280855116602084015280602086015116604084015262ffffff604086015116606084015280845116608084015250602083015160020b60a0830152604083015160020b60c0830152606083015160e0830152608083015161010083015260a083015161012083015260c0830151610140830152949350505050565b60006101608201905060018060a01b0380871683528086541660208401526001860154818116604085015262ffffff8160a01c1660608501525050836080830152823560a0830152602083013560c0830152604083013560e08301526060830135610100830152608083013561012083015260a083013561014083015295945050505050565b6001600160a01b03848116825260208083018590528335604084015260c0830191908401356140ac816143e0565b16606083015260408301356140c0816143f5565b6001600160801b0390811660808401526060840135906140df826143f5565b80821660a08501525050949350505050565b6001600160a01b038416815260208082018490528235604083015260e082019083013561411d816143f5565b60018060801b03811660608401525060408301356080830152606083013560a0830152608083013560c0830152949350505050565b6001600160a01b03929092168252602082015260400190565b600060208252610f1f6020830184613d53565b6020808252600c908201526b139bdd08185c1c1c9bdd995960a21b604082015260600190565b6020808252602c908201527f4552433732313a20617070726f76656420717565727920666f72206e6f6e657860408201526b34b9ba32b73a103a37b5b2b760a11b606082015260800190565b60208082526010908201526f125b9d985b1a59081d1bdad95b88125160821b604082015260600190565b6020808252600b908201526a139bdd0818db19585c995960aa1b604082015260600190565b6001600160801b039390931683526020830191909152604082015260600190565b9384526001600160801b039290921660208401526040830152606082015260800190565b918252602082015260400190565b6001600160601b038d1681526001600160a01b038c811660208301528b811660408301528a16606082015262ffffff89166080820152600288900b60a082015261018081016142e460c0830189613d7f565b6142f160e0830188613d86565b856101008301528461012083015261430d610140830185613d86565b61431b610160830184613d86565b9d9c50505050505050505050505050565b6000808335601e19843603018112614342578283fd5b8301803591506001600160401b0382111561435b578283fd5b60200191503681900382131561288657600080fd5b6040518181016001600160401b038111828210171561438b57fe5b604052919050565b60006001600160401b038211156143a657fe5b50601f01601f191660200190565b60005b838110156143cf5781810151838201526020016143b7565b83811115611ef65750506000910152565b6001600160a01b03811681146123f257600080fd5b6001600160801b03811681146123f257600080fdfe456e756d657261626c655365743a20696e646578206f7574206f6620626f756e64734552433732313a207472616e7366657220746f206e6f6e20455243373231526563656976657220696d706c656d656e7465724552433732315065726d69743a20617070726f76616c20746f2063757272656e74206f776e65724552433732313a207472616e7366657220746f20746865207a65726f20616464726573734552433732313a206f70657261746f7220717565727920666f72206e6f6e6578697374656e7420746f6b656e4552433732313a20617070726f76652063616c6c6572206973206e6f74206f776e6572206e6f7220617070726f76656420666f7220616c6c4552433732313a2062616c616e636520717565727920666f7220746865207a65726f20616464726573734552433732313a206f776e657220717565727920666f72206e6f6e6578697374656e7420746f6b656e456e756d657261626c654d61703a20696e646578206f7574206f6620626f756e64734552433732313a207472616e73666572206f6620746f6b656e2074686174206973206e6f74206f776e49ecf333e5b8c95c40fdafc95c1ad136e8914a8fb55e9dc8bb01eaa83a2df9adddf252ad1be2c89b69c2b068fc378daa952ba7f163c4a11628f55a4df523b3ef4552433732313a20617070726f76616c20746f2063757272656e74206f776e65724552433732313a207472616e736665722063616c6c6572206973206e6f74206f776e6572206e6f7220617070726f766564a164736f6c6343000706000a",
  "linkReferences": {
    "contracts/libraries/NonfungiblePositionLibrary.sol": {
      "NonfungiblePositionLibrary": [
        {
          "length": 20,
          "start": 3323
        },
        {
          "length": 20,
          "start": 4542
        },
        {
          "length": 20,
          "start": 6926
        },
        {
          "length": 20,
          "start": 7302
        },
        {
          "length": 20,
          "start": 9914
        }
      ]
    }
  },
  "deployedLinkReferences": {
    "contracts/libraries/NonfungiblePositionLibrary.sol": {
      "NonfungiblePositionLibrary": [
        {
          "length": 20,
          "start": 2381
        },
        {
          "length": 20,
          "start": 3600
        },
        {
          "length": 20,
          "start": 5984
        },
        {
          "length": 20,
          "start": 6360
        },
        {
          "length": 20,
          "start": 8972
        }
      ]
    }
  }
}