{
  "_format": "hh-sol-artifact-1",
  "contractName": "UniswapV3Factory",
  "sourceName": "contracts/UniswapV3Factory.sol",
  "abi": [
    {
      "inputs": [],
      "stateMutability": "nonpayable",
      "type": "constructor"
    },
    {
      "anonymous": false,
      "inputs": [
        {
          "indexed": true,
          "internalType": "uint24",
          "name": "fee",
          "type": "uint24"
        },
        {
          "indexed": true,
          "internalType": "int24",
          "name": "tickSpacing",
          "type": "int24"
        }
      ],
      "name": "FeeAmountEnabled",
      "type": "event"
    },
    {
      "anonymous": false,
      "inputs": [
        {
          "indexed": true,
          "internalType": "address",
          "name": "oldOwner",
          "type": "address"
        },
        {
          "indexed": true,
          "internalType": "address",
          "name": "newOwner",
          "type": "address"
        }
      ],
      "name": "OwnerChanged",
      "type": "event"
    },
    {
      "anonymous": false,
      "inputs": [
        {
          "indexed": true,
          "internalType": "address",
          "name": "token0",
          "type": "address"
        },
        {
          "indexed": true,
          "internalType": "address",
          "name": "token1",
          "type": "address"
        },
        {
          "indexed": true,
          "internalType": "uint24",
          "name": "fee",
          "type": "uint24"
        },
        {
          "indexed": false,
          "internalType": "int24",
          "name": "tickSpacing",
          "type": "int24"
        },
        {
          "indexed": false,
          "internalType": "address",
          "name": "pool",
          "type": "address"
        }
      ],
      "name": "PoolCreated",
      "type": "event"
    },
    {
      "inputs": [
        {
          "internalType": "address",
          "name": "tokenA",
          "type": "address"
        },
        {
          "internalType": "address",
          "name": "tokenB",
          "type": "address"
        },
        {
          "internalType": "uint24",
          "name": "fee",
          "type": "uint24"
        }
      ],
      "name": "createPool",
      "outputs": [
        {
          "internalType": "address",
          "name": "pool",
          "type": "address"
        }
      ],
      "stateMutability": "nonpayable",
      "type": "function"
    },
    {
      "inputs": [
        {
          "internalType": "uint24",
          "name": "fee",
          "type": "uint24"
        },
        {
          "internalType": "int24",
          "name": "tickSpacing",
          "type": "int24"
        }
      ],
      "name": "enableFeeAmount",
      "outputs": [],
      "stateMutability": "nonpayable",
      "type": "function"
    },
    {
      "inputs": [
        {
          "internalType": "uint24",
          "name": "",
          "type": "uint24"
        }
      ],
      "name": "feeAmountTickSpacing",
      "outputs": [
        {
          "internalType": "int24",
          "name": "",
          "type": "int24"
        }
      ],
      "stateMutability": "view",
      "type": "function"
    },
    {
      "inputs": [
        {
          "internalType": "address",
          "name": "",
          "type": "address"
        },
        {
          "internalType": "address",
          "name": "",
          "type": "address"
        },
        {
          "internalType": "uint24",
          "name": "",
          "type": "uint24"
        }
      ],
      "name": "getPool",
      "outputs": [
        {
          "internalType": "address",
          "name": "",
          "type": "address"
        }
      ],
      "stateMutability": "view",
      "type": "function"
    },
    {
      "inputs": [],
      "name": "owner",
      "outputs": [
        {
          "internalType": "address",
          "name": "",
          "type": "address"
        }
      ],
      "stateMutability": "view",
      "type": "function"
    },
    {
      "inputs": [],
      "name": "parameters",
      "outputs": [
        {
          "internalType": "address",
          "name": "factory",
          "type": "address"
        },
        {
          "internalType": "address",
          "name": "token0",
          "type": "address"
        },
        {
          "internalType": "address",
          "name": "token1",
          "type": "address"
        },
        {
          "internalType": "uint24",
          "name": "fee",
          "type": "uint24"
        },
        {
          "internalType": "int24",
          "name": "tickSpacing",
          "type": "int24"
        }
      ],
      "stateMutability": "view",
      "type": "function"
    },
    {
      "inputs": [
        {
          "internalType": "address",
          "name": "_owner",
          "type": "address"
        }
      ],
      "name": "setOwner",
      "outputs": [],
      "stateMutability": "nonpayable",
      "type": "function"
    }
  ],
  "bytecode": "0x60a060405234801561001057600080fd5b503060601b608052600080546001600160a01b0319163390811782556040519091907fb532073b38c83145e3e5135377a08bf9aab55bc0fd7c1179cd4fb995d2a5159c908290a36101f4600081815260016020527f344a86d038cc67650617710ee5afca4f5d1ed60d199ecd86852cac7a55b2d3e5805462ffffff1916600a90811790915560405190929160008051602061082483398151915291a3610bb8600081815260016020527f8bf1273959200f3b11670b7338c174c40286607d4b851c000be7fc007987b275805462ffffff1916603c90811790915560405190929160008051602061082483398151915291a3612710600081815260016020527f1ca239af1d44623dfaa87ee0cbbbe4bbeb2112df36e66deedafd694350d045cd805462ffffff191660c890811790915560405190929160008051602061082483398151915291a360805160601c6106b16101736000398061067852506106b16000f3fe608060405234801561001057600080fd5b506004361061006d5760003560e01c806313af4035146100725780631698ee821461009a57806322afcccb146100f2578063890357301461012b5780638a7c195f146101755780638da5cb5b146101a0578063a1671295146101a8575b600080fd5b6100986004803603602081101561008857600080fd5b50356001600160a01b03166101e4565b005b6100d6600480360360608110156100b057600080fd5b5080356001600160a01b03908116916020810135909116906040013562ffffff16610256565b604080516001600160a01b039092168252519081900360200190f35b6101146004803603602081101561010857600080fd5b503562ffffff16610282565b6040805160029290920b8252519081900360200190f35b610133610297565b604080516001600160a01b0396871681529486166020860152929094168383015262ffffff16606083015260029290920b608082015290519081900360a00190f35b6100986004803603604081101561018b57600080fd5b5062ffffff813516906020013560020b6102cd565b6100d6610390565b6100d6600480360360608110156101be57600080fd5b5080356001600160a01b03908116916020810135909116906040013562ffffff1661039f565b6000546001600160a01b031633146101fb57600080fd5b600080546040516001600160a01b03808516939216917fb532073b38c83145e3e5135377a08bf9aab55bc0fd7c1179cd4fb995d2a5159c91a3600080546001600160a01b0319166001600160a01b0392909216919091179055565b60026020908152600093845260408085208252928452828420905282529020546001600160a01b031681565b60016020526000908152604090205460020b81565b6003546004546005546001600160a01b03928316929182169181169062ffffff600160a01b82041690600160b81b900460020b85565b6000546001600160a01b031633146102e457600080fd5b620f42408262ffffff16106102f857600080fd5b60008160020b13801561030f57506140008160020b125b61031857600080fd5b62ffffff8216600090815260016020526040902054600290810b900b1561033e57600080fd5b62ffffff828116600081815260016020526040808220805462ffffff1916600287900b958616179055517fc66a3fdf07232cdd185febcc6579d408c241b47ae2f9907d84be655141eeaecc9190a35050565b6000546001600160a01b031681565b60006103a961066d565b826001600160a01b0316846001600160a01b031614156103c857600080fd5b600080846001600160a01b0316866001600160a01b0316106103eb5784866103ee565b85855b90925090506001600160a01b03821661040657600080fd5b62ffffff8416600090815260016020526040902054600290810b9081900b61042d57600080fd5b6001600160a01b0383811660009081526002602090815260408083208685168452825280832062ffffff8a168452909152902054161561046c57600080fd5b6040805160a081018252308082526001600160a01b03868116602080850182905291871684860181905262ffffff8b811660608701819052600289810b6080909801889052600380546001600160a01b031990811690981790556004805488168617815560058054909816851762ffffff60a01b1916600160a01b84021762ffffff60b81b1916600160b81b9990920b909316979097029690961790945585516364f2c86160e01b81529384019190915260248301526044820192909252915173__$b6ef82c2aa92f2a9786ac578d7ad7a0752$__926364f2c861926064808301939192829003018186803b15801561056457600080fd5b505af4158015610578573d6000803e3d6000fd5b505050506040513d602081101561058e57600080fd5b5051600380546001600160a01b03199081169091556004805482169055600580546001600160d01b03191690556001600160a01b0385811660008181526002602081815260408084208a871680865290835281852062ffffff8f168087529084528286208054988b16988a168917905581865284845282862087875284528286208187528452948290208054909816871790975580519289900b8352908201949094528351959950909491927f783cca1c0412dd0d695e784568c96da2e9c22ff989357a2e8b1d9b2b4e6b711892918290030190a45050509392505050565b306001600160a01b037f000000000000000000000000000000000000000000000000000000000000000016146106a257600080fd5b56fea164736f6c6343000706000ac66a3fdf07232cdd185febcc6579d408c241b47ae2f9907d84be655141eeaecc",
  "linkReferences": {
    "contracts/UniswapV3PoolDeployer.sol": {
      "UniswapV3PoolDeployer": [
        {
          "length": 20,
          "start": 1697
        }
      ]
    }
  },
  "deployedLinkReferences": {
    "contracts/UniswapV3PoolDeployer.sol": {
      "UniswapV3PoolDeployer": [
        {
          "length": 20,
          "start": 1326
        }
      ]
    }
  }
}