{
  "_format": "hh-sol-artifact-1",
  "contractName": "TickMath",
  "sourceName": "@uniswap/v3-core-optimism/contracts/libraries/TickMath.sol",
  "abi": [
    {
      "inputs": [
        {
          "internalType": "int24",
          "name": "tick",
          "type": "int24"
        }
      ],
      "name": "getSqrtRatioAtTick",
      "outputs": [
        {
          "internalType": "uint160",
          "name": "sqrtPriceX96",
          "type": "uint160"
        }
      ],
      "stateMutability": "pure",
      "type": "function"
    },
    {
      "inputs": [
        {
          "internalType": "int24",
          "name": "tickLower",
          "type": "int24"
        },
        {
          "internalType": "int24",
          "name": "tickUpper",
          "type": "int24"
        }
      ],
      "name": "getSqrtRatioAtTicks",
      "outputs": [
        {
          "internalType": "uint160",
          "name": "sqrtPriceAX96",
          "type": "uint160"
        },
        {
          "internalType": "uint160",
          "name": "sqrtPriceBX96",
          "type": "uint160"
        }
      ],
      "stateMutability": "pure",
      "type": "function"
    },
    {
      "inputs": [
        {
          "internalType": "uint160",
          "name": "sqrtPriceX96",
          "type": "uint160"
        }
      ],
      "name": "getTickAtSqrtRatio",
      "outputs": [
        {
          "internalType": "int24",
          "name": "tick",
          "type": "int24"
        }
      ],
      "stateMutability": "pure",
      "type": "function"
    }
  ],
  "bytecode": "0x610761610026600b82828239805160001a60731461001957fe5b30600052607381538281f3fe730000000000000000000000000000000000000000301460806040526004361061004b5760003560e01c80634f76c058146100505780638a933ec61461008d578063986cfba3146100e6575b600080fd5b6100766004803603602081101561006657600080fd5b50356001600160a01b0316610122565b6040805160029290920b8252519081900360200190f35b6100b7600480360360408110156100a357600080fd5b508035600290810b9160200135900b61040d565b60405180836001600160a01b03168152602001826001600160a01b031681526020019250505060405180910390f35b610106600480360360208110156100fc57600080fd5b503560020b61042d565b604080516001600160a01b039092168252519081900360200190f35b60006401000276a36001600160a01b0383161080159061015e575073fffd8963efd1fc6a506488495d951d5263988d266001600160a01b038316105b610193576040805162461bcd60e51b81526020600482015260016024820152602960f91b604482015290519081900360640190fd5b600160201b600160c01b03602083901b166001600160801b03811160071b81811c6001600160401b03811160061b90811c63ffffffff811160051b90811c61ffff811160041b90811c60ff8111600390811b91821c600f811160021b90811c918211600190811b92831c9790881196179094179092171790911717176080811061022557607f810383901c915061022f565b80607f0383901b91505b908002607f81811c60ff83811c9190911c800280831c81831c1c800280841c81841c1c800280851c81851c1c800280861c81861c1c800280871c81871c1c800280881c81881c1c800280891c81891c1c8002808a1c818a1c1c8002808b1c818b1c1c8002808c1c818c1c1c8002808d1c818d1c1c8002808e1c9c81901c9c909c1c80029c8d901c9e9d607f198f0160401b60c09190911c6001603f1b161760c19b909b1c6001603e1b169a909a1760c29990991c6001603d1b169890981760c39790971c6001603c1b169690961760c49590951c6001603b1b169490941760c59390931c6001603a1b169290921760c69190911c600160391b161760c79190911c600160381b161760c89190911c600160371b161760c99190911c600160361b161760ca9190911c600160351b161760cb9190911c600160341b161760cc9190911c600160331b161760cd9190911c600160321b1617693627a301d71055774c8581026f028f6481ab7f045a5af012a19d003aa9198101608090811d906fdb2df09e81959a81455e260799a0632f8301901d600281810b9083900b146103fe57886001600160a01b03166103e28261042d565b6001600160a01b031611156103f757816103f9565b805b610400565b815b9998505050505050505050565b6000806104198461042d565b91506104248361042d565b90509250929050565b60008060008360020b12610444578260020b61044c565b8260020b6000035b9050620d89e881111561048a576040805162461bcd60e51b81526020600482015260016024820152601560fa1b604482015290519081900360640190fd5b60006001821661049e57600160801b6104b0565b6ffffcb933bd6fad37aa2d162d1a5940015b6001600160881b0316905060028216156104da576ffff97272373d413259a46990580e213a0260801c5b60048216156104f9576ffff2e50f5f656932ef12357cf3c7fdcc0260801c5b6008821615610518576fffe5caca7e10e4e61c3624eaa0941cd00260801c5b6010821615610537576fffcb9843d60f6159c9db58835c9266440260801c5b6020821615610556576fff973b41fa98c081472e6896dfb254c00260801c5b6040821615610575576fff2ea16466c96a3843ec78b326b528610260801c5b6080821615610594576ffe5dee046a99a2a811c461f1969c30530260801c5b6101008216156105b4576ffcbe86c7900a88aedcffc83b479aa3a40260801c5b6102008216156105d4576ff987a7253ac413176f2b074cf7815e540260801c5b6104008216156105f4576ff3392b0822b70005940c7a398e4b70f30260801c5b610800821615610614576fe7159475a2c29b7443b29c7fa6e889d90260801c5b611000821615610634576fd097f3bdfd2022b8845ad8f792aa58250260801c5b612000821615610654576fa9f746462d870fdf8a65dc1f90e061e50260801c5b614000821615610674576f70d869a156d2a1b890bb3df62baf32f70260801c5b618000821615610694576f31be135f97d08fd981231505542fcfa60260801c5b620100008216156106b5576f09aa508b5b7a84e1c677de54f3e99bc90260801c5b620200008216156106d5576e5d6af8dedb81196699c329225ee6040260801c5b620400008216156106f4576d2216e584f5fa1ea926041bedfe980260801c5b62080000821615610711576b048a170391f7dc42444e8fa20260801c5b60008460020b131561072c57806000198161072857fe5b0490505b600160201b81061561073f576001610742565b60005b60ff16602082901c019250505091905056fea164736f6c6343000706000a",
  "linkReferences": {},
  "deployedLinkReferences": {}
}